{
	"contracts/CertificateVerification.sol": {
		"CertificateVerification": {
			"abi": [
				{
					"inputs": [],
					"stateMutability": "nonpayable",
					"type": "constructor"
				},
				{
					"anonymous": false,
					"inputs": [
						{
							"indexed": false,
							"internalType": "string",
							"name": "certificateId",
							"type": "string"
						},
						{
							"indexed": true,
							"internalType": "address",
							"name": "issuer",
							"type": "address"
						},
						{
							"indexed": true,
							"internalType": "address",
							"name": "student",
							"type": "address"
						},
						{
							"indexed": false,
							"internalType": "string",
							"name": "ipfsHash",
							"type": "string"
						},
						{
							"indexed": false,
							"internalType": "uint256",
							"name": "issueDate",
							"type": "uint256"
						}
					],
					"name": "CertificateIssued",
					"type": "event"
				},
				{
					"anonymous": false,
					"inputs": [
						{
							"indexed": false,
							"internalType": "string",
							"name": "certificateId",
							"type": "string"
						},
						{
							"indexed": true,
							"internalType": "address",
							"name": "issuer",
							"type": "address"
						}
					],
					"name": "CertificateRevoked",
					"type": "event"
				},
				{
					"anonymous": false,
					"inputs": [
						{
							"indexed": false,
							"internalType": "address",
							"name": "account",
							"type": "address"
						}
					],
					"name": "Paused",
					"type": "event"
				},
				{
					"anonymous": false,
					"inputs": [
						{
							"indexed": true,
							"internalType": "bytes32",
							"name": "role",
							"type": "bytes32"
						},
						{
							"indexed": true,
							"internalType": "bytes32",
							"name": "previousAdminRole",
							"type": "bytes32"
						},
						{
							"indexed": true,
							"internalType": "bytes32",
							"name": "newAdminRole",
							"type": "bytes32"
						}
					],
					"name": "RoleAdminChanged",
					"type": "event"
				},
				{
					"anonymous": false,
					"inputs": [
						{
							"indexed": true,
							"internalType": "bytes32",
							"name": "role",
							"type": "bytes32"
						},
						{
							"indexed": true,
							"internalType": "address",
							"name": "account",
							"type": "address"
						},
						{
							"indexed": true,
							"internalType": "address",
							"name": "sender",
							"type": "address"
						}
					],
					"name": "RoleGranted",
					"type": "event"
				},
				{
					"anonymous": false,
					"inputs": [
						{
							"indexed": true,
							"internalType": "bytes32",
							"name": "role",
							"type": "bytes32"
						},
						{
							"indexed": true,
							"internalType": "address",
							"name": "account",
							"type": "address"
						},
						{
							"indexed": true,
							"internalType": "address",
							"name": "sender",
							"type": "address"
						}
					],
					"name": "RoleRevoked",
					"type": "event"
				},
				{
					"anonymous": false,
					"inputs": [
						{
							"indexed": false,
							"internalType": "address",
							"name": "account",
							"type": "address"
						}
					],
					"name": "Unpaused",
					"type": "event"
				},
				{
					"inputs": [],
					"name": "DEFAULT_ADMIN_ROLE",
					"outputs": [
						{
							"internalType": "bytes32",
							"name": "",
							"type": "bytes32"
						}
					],
					"stateMutability": "view",
					"type": "function"
				},
				{
					"inputs": [],
					"name": "ISSUER_ROLE",
					"outputs": [
						{
							"internalType": "bytes32",
							"name": "",
							"type": "bytes32"
						}
					],
					"stateMutability": "view",
					"type": "function"
				},
				{
					"inputs": [
						{
							"internalType": "string",
							"name": "",
							"type": "string"
						}
					],
					"name": "certificates",
					"outputs": [
						{
							"internalType": "string",
							"name": "certificateId",
							"type": "string"
						},
						{
							"internalType": "address",
							"name": "issuer",
							"type": "address"
						},
						{
							"internalType": "address",
							"name": "studentAddress",
							"type": "address"
						},
						{
							"internalType": "string",
							"name": "ipfsHash",
							"type": "string"
						},
						{
							"internalType": "uint256",
							"name": "issueDate",
							"type": "uint256"
						},
						{
							"internalType": "bool",
							"name": "isRevoked",
							"type": "bool"
						},
						{
							"internalType": "string",
							"name": "metadata",
							"type": "string"
						}
					],
					"stateMutability": "view",
					"type": "function"
				},
				{
					"inputs": [
						{
							"internalType": "bytes32",
							"name": "role",
							"type": "bytes32"
						}
					],
					"name": "getRoleAdmin",
					"outputs": [
						{
							"internalType": "bytes32",
							"name": "",
							"type": "bytes32"
						}
					],
					"stateMutability": "view",
					"type": "function"
				},
				{
					"inputs": [
						{
							"internalType": "bytes32",
							"name": "role",
							"type": "bytes32"
						},
						{
							"internalType": "address",
							"name": "account",
							"type": "address"
						}
					],
					"name": "grantRole",
					"outputs": [],
					"stateMutability": "nonpayable",
					"type": "function"
				},
				{
					"inputs": [
						{
							"internalType": "bytes32",
							"name": "role",
							"type": "bytes32"
						},
						{
							"internalType": "address",
							"name": "account",
							"type": "address"
						}
					],
					"name": "hasRole",
					"outputs": [
						{
							"internalType": "bool",
							"name": "",
							"type": "bool"
						}
					],
					"stateMutability": "view",
					"type": "function"
				},
				{
					"inputs": [
						{
							"internalType": "string",
							"name": "certificateId",
							"type": "string"
						},
						{
							"internalType": "address",
							"name": "studentAddress",
							"type": "address"
						},
						{
							"internalType": "string",
							"name": "ipfsHash",
							"type": "string"
						},
						{
							"internalType": "string",
							"name": "metadata",
							"type": "string"
						}
					],
					"name": "issueCertificate",
					"outputs": [],
					"stateMutability": "nonpayable",
					"type": "function"
				},
				{
					"inputs": [],
					"name": "pause",
					"outputs": [],
					"stateMutability": "nonpayable",
					"type": "function"
				},
				{
					"inputs": [],
					"name": "paused",
					"outputs": [
						{
							"internalType": "bool",
							"name": "",
							"type": "bool"
						}
					],
					"stateMutability": "view",
					"type": "function"
				},
				{
					"inputs": [
						{
							"internalType": "bytes32",
							"name": "role",
							"type": "bytes32"
						},
						{
							"internalType": "address",
							"name": "account",
							"type": "address"
						}
					],
					"name": "renounceRole",
					"outputs": [],
					"stateMutability": "nonpayable",
					"type": "function"
				},
				{
					"inputs": [
						{
							"internalType": "string",
							"name": "certificateId",
							"type": "string"
						}
					],
					"name": "revokeCertificate",
					"outputs": [],
					"stateMutability": "nonpayable",
					"type": "function"
				},
				{
					"inputs": [
						{
							"internalType": "bytes32",
							"name": "role",
							"type": "bytes32"
						},
						{
							"internalType": "address",
							"name": "account",
							"type": "address"
						}
					],
					"name": "revokeRole",
					"outputs": [],
					"stateMutability": "nonpayable",
					"type": "function"
				},
				{
					"inputs": [
						{
							"internalType": "bytes4",
							"name": "interfaceId",
							"type": "bytes4"
						}
					],
					"name": "supportsInterface",
					"outputs": [
						{
							"internalType": "bool",
							"name": "",
							"type": "bool"
						}
					],
					"stateMutability": "view",
					"type": "function"
				},
				{
					"inputs": [],
					"name": "unpause",
					"outputs": [],
					"stateMutability": "nonpayable",
					"type": "function"
				},
				{
					"inputs": [
						{
							"internalType": "string",
							"name": "certificateId",
							"type": "string"
						}
					],
					"name": "verifyCertificate",
					"outputs": [
						{
							"internalType": "bool",
							"name": "isValid",
							"type": "bool"
						},
						{
							"components": [
								{
									"internalType": "string",
									"name": "certificateId",
									"type": "string"
								},
								{
									"internalType": "address",
									"name": "issuer",
									"type": "address"
								},
								{
									"internalType": "address",
									"name": "studentAddress",
									"type": "address"
								},
								{
									"internalType": "string",
									"name": "ipfsHash",
									"type": "string"
								},
								{
									"internalType": "uint256",
									"name": "issueDate",
									"type": "uint256"
								},
								{
									"internalType": "bool",
									"name": "isRevoked",
									"type": "bool"
								},
								{
									"internalType": "string",
									"name": "metadata",
									"type": "string"
								}
							],
							"internalType": "struct CertificateVerification.Certificate",
							"name": "certificate",
							"type": "tuple"
						}
					],
					"stateMutability": "view",
					"type": "function"
				}
			],
			"devdoc": {
				"events": {
					"Paused(address)": {
						"details": "Emitted when the pause is triggered by `account`."
					},
					"RoleAdminChanged(bytes32,bytes32,bytes32)": {
						"details": "Emitted when `newAdminRole` is set as ``role``'s admin role, replacing `previousAdminRole` `DEFAULT_ADMIN_ROLE` is the starting admin for all roles, despite {RoleAdminChanged} not being emitted signaling this. _Available since v3.1._"
					},
					"RoleGranted(bytes32,address,address)": {
						"details": "Emitted when `account` is granted `role`. `sender` is the account that originated the contract call, an admin role bearer except when using {AccessControl-_setupRole}."
					},
					"RoleRevoked(bytes32,address,address)": {
						"details": "Emitted when `account` is revoked `role`. `sender` is the account that originated the contract call:   - if using `revokeRole`, it is the admin role bearer   - if using `renounceRole`, it is the role bearer (i.e. `account`)"
					},
					"Unpaused(address)": {
						"details": "Emitted when the pause is lifted by `account`."
					}
				},
				"kind": "dev",
				"methods": {
					"getRoleAdmin(bytes32)": {
						"details": "Returns the admin role that controls `role`. See {grantRole} and {revokeRole}. To change a role's admin, use {_setRoleAdmin}."
					},
					"grantRole(bytes32,address)": {
						"details": "Grants `role` to `account`. If `account` had not been already granted `role`, emits a {RoleGranted} event. Requirements: - the caller must have ``role``'s admin role. May emit a {RoleGranted} event."
					},
					"hasRole(bytes32,address)": {
						"details": "Returns `true` if `account` has been granted `role`."
					},
					"issueCertificate(string,address,string,string)": {
						"details": "Issues a new certificate",
						"params": {
							"certificateId": "Unique identifier for the certificate",
							"ipfsHash": "IPFS hash where the certificate data is stored",
							"metadata": "Additional certificate metadata",
							"studentAddress": "Address of the student receiving the certificate"
						}
					},
					"pause()": {
						"details": "Pauses all certificate operations"
					},
					"paused()": {
						"details": "Returns true if the contract is paused, and false otherwise."
					},
					"renounceRole(bytes32,address)": {
						"details": "Revokes `role` from the calling account. Roles are often managed via {grantRole} and {revokeRole}: this function's purpose is to provide a mechanism for accounts to lose their privileges if they are compromised (such as when a trusted device is misplaced). If the calling account had been revoked `role`, emits a {RoleRevoked} event. Requirements: - the caller must be `account`. May emit a {RoleRevoked} event."
					},
					"revokeCertificate(string)": {
						"details": "Revokes an existing certificate",
						"params": {
							"certificateId": "ID of the certificate to revoke"
						}
					},
					"revokeRole(bytes32,address)": {
						"details": "Revokes `role` from `account`. If `account` had been granted `role`, emits a {RoleRevoked} event. Requirements: - the caller must have ``role``'s admin role. May emit a {RoleRevoked} event."
					},
					"supportsInterface(bytes4)": {
						"details": "See {IERC165-supportsInterface}."
					},
					"unpause()": {
						"details": "Unpauses all certificate operations"
					},
					"verifyCertificate(string)": {
						"details": "Verifies a certificate's authenticity",
						"params": {
							"certificateId": "ID of the certificate to verify"
						},
						"returns": {
							"certificate": "The certificate data",
							"isValid": "Whether the certificate is valid"
						}
					}
				},
				"version": 1
			},
			"evm": {
				"assembly": "    /* \"contracts/CertificateVerification.sol\":180:4045  contract CertificateVerification is AccessControl, Pausable {... */\n  mstore(0x40, 0x80)\n    /* \"contracts/CertificateVerification.sol\":1059:1180  constructor() {... */\n  callvalue\n  dup1\n  iszero\n  tag_1\n  jumpi\n  0x00\n  dup1\n  revert\ntag_1:\n  pop\n    /* \"@openzeppelin/contracts/security/Pausable.sol\":1006:1011  false */\n  0x00\n    /* \"@openzeppelin/contracts/security/Pausable.sol\":996:1003  _paused */\n  0x01\n  0x00\n    /* \"@openzeppelin/contracts/security/Pausable.sol\":996:1011  _paused = false */\n  0x0100\n  exp\n  dup2\n  sload\n  dup2\n  0xff\n  mul\n  not\n  and\n  swap1\n  dup4\n  iszero\n  iszero\n  mul\n  or\n  swap1\n  sstore\n  pop\n    /* \"contracts/CertificateVerification.sol\":1084:1126  _grantRole(DEFAULT_ADMIN_ROLE, msg.sender) */\n  tag_6\n    /* \"@openzeppelin/contracts/access/AccessControl.sol\":2198:2202  0x00 */\n  0x00\n    /* \"contracts/CertificateVerification.sol\":1095:1113  DEFAULT_ADMIN_ROLE */\n  dup1\n  shl\n    /* \"contracts/CertificateVerification.sol\":1115:1125  msg.sender */\n  caller\n    /* \"contracts/CertificateVerification.sol\":1084:1094  _grantRole */\n  shl(0x20, tag_7)\n    /* \"contracts/CertificateVerification.sol\":1084:1126  _grantRole(DEFAULT_ADMIN_ROLE, msg.sender) */\n  0x20\n  shr\n  jump\t// in\ntag_6:\n    /* \"contracts/CertificateVerification.sol\":1137:1172  _grantRole(ISSUER_ROLE, msg.sender) */\n  tag_8\n    /* \"contracts/CertificateVerification.sol\":285:309  keccak256(\"ISSUER_ROLE\") */\n  0x114e74f6ea3bd819998f78687bfcb11b140da08e9b7d222fa9c1f1ba1f2aa122\n    /* \"contracts/CertificateVerification.sol\":1161:1171  msg.sender */\n  caller\n    /* \"contracts/CertificateVerification.sol\":1137:1147  _grantRole */\n  shl(0x20, tag_7)\n    /* \"contracts/CertificateVerification.sol\":1137:1172  _grantRole(ISSUER_ROLE, msg.sender) */\n  0x20\n  shr\n  jump\t// in\ntag_8:\n    /* \"contracts/CertificateVerification.sol\":180:4045  contract CertificateVerification is AccessControl, Pausable {... */\n  jump(tag_9)\n    /* \"@openzeppelin/contracts/access/AccessControl.sol\":7587:7820  function _grantRole(bytes32 role, address account) internal virtual {... */\ntag_7:\n    /* \"@openzeppelin/contracts/access/AccessControl.sol\":7670:7692  hasRole(role, account) */\n  tag_11\n    /* \"@openzeppelin/contracts/access/AccessControl.sol\":7678:7682  role */\n  dup3\n    /* \"@openzeppelin/contracts/access/AccessControl.sol\":7684:7691  account */\n  dup3\n    /* \"@openzeppelin/contracts/access/AccessControl.sol\":7670:7677  hasRole */\n  shl(0x20, tag_12)\n    /* \"@openzeppelin/contracts/access/AccessControl.sol\":7670:7692  hasRole(role, account) */\n  0x20\n  shr\n  jump\t// in\ntag_11:\n    /* \"@openzeppelin/contracts/access/AccessControl.sol\":7665:7814  if (!hasRole(role, account)) {... */\n  tag_13\n  jumpi\n    /* \"@openzeppelin/contracts/access/AccessControl.sol\":7740:7744  true */\n  0x01\n    /* \"@openzeppelin/contracts/access/AccessControl.sol\":7708:7714  _roles */\n  0x00\n    /* \"@openzeppelin/contracts/access/AccessControl.sol\":7708:7720  _roles[role] */\n  dup1\n    /* \"@openzeppelin/contracts/access/AccessControl.sol\":7715:7719  role */\n  dup5\n    /* \"@openzeppelin/contracts/access/AccessControl.sol\":7708:7720  _roles[role] */\n  dup2\n  mstore\n  0x20\n  add\n  swap1\n  dup2\n  mstore\n  0x20\n  add\n  0x00\n  keccak256\n    /* \"@openzeppelin/contracts/access/AccessControl.sol\":7708:7728  _roles[role].members */\n  0x00\n  add\n    /* \"@openzeppelin/contracts/access/AccessControl.sol\":7708:7737  _roles[role].members[account] */\n  0x00\n    /* \"@openzeppelin/contracts/access/AccessControl.sol\":7729:7736  account */\n  dup4\n    /* \"@openzeppelin/contracts/access/AccessControl.sol\":7708:7737  _roles[role].members[account] */\n  0xffffffffffffffffffffffffffffffffffffffff\n  and\n  0xffffffffffffffffffffffffffffffffffffffff\n  and\n  dup2\n  mstore\n  0x20\n  add\n  swap1\n  dup2\n  mstore\n  0x20\n  add\n  0x00\n  keccak256\n  0x00\n    /* \"@openzeppelin/contracts/access/AccessControl.sol\":7708:7744  _roles[role].members[account] = true */\n  0x0100\n  exp\n  dup2\n  sload\n  dup2\n  0xff\n  mul\n  not\n  and\n  swap1\n  dup4\n  iszero\n  iszero\n  mul\n  or\n  swap1\n  sstore\n  pop\n    /* \"@openzeppelin/contracts/access/AccessControl.sol\":7790:7802  _msgSender() */\n  tag_14\n    /* \"@openzeppelin/contracts/access/AccessControl.sol\":7790:7800  _msgSender */\n  shl(0x20, tag_15)\n    /* \"@openzeppelin/contracts/access/AccessControl.sol\":7790:7802  _msgSender() */\n  0x20\n  shr\n  jump\t// in\ntag_14:\n    /* \"@openzeppelin/contracts/access/AccessControl.sol\":7763:7803  RoleGranted(role, account, _msgSender()) */\n  0xffffffffffffffffffffffffffffffffffffffff\n  and\n    /* \"@openzeppelin/contracts/access/AccessControl.sol\":7781:7788  account */\n  dup2\n    /* \"@openzeppelin/contracts/access/AccessControl.sol\":7763:7803  RoleGranted(role, account, _msgSender()) */\n  0xffffffffffffffffffffffffffffffffffffffff\n  and\n    /* \"@openzeppelin/contracts/access/AccessControl.sol\":7775:7779  role */\n  dup4\n    /* \"@openzeppelin/contracts/access/AccessControl.sol\":7763:7803  RoleGranted(role, account, _msgSender()) */\n  0x2f8788117e7eff1d82e926ec794901d17c78024a50270940304540a733656f0d\n  mload(0x40)\n  mload(0x40)\n  dup1\n  swap2\n  sub\n  swap1\n  log4\n    /* \"@openzeppelin/contracts/access/AccessControl.sol\":7665:7814  if (!hasRole(role, account)) {... */\ntag_13:\n    /* \"@openzeppelin/contracts/access/AccessControl.sol\":7587:7820  function _grantRole(bytes32 role, address account) internal virtual {... */\n  pop\n  pop\n  jump\t// out\n    /* \"@openzeppelin/contracts/access/AccessControl.sol\":3021:3166  function hasRole(bytes32 role, address account) public view virtual override returns (bool) {... */\ntag_12:\n    /* \"@openzeppelin/contracts/access/AccessControl.sol\":3107:3111  bool */\n  0x00\n    /* \"@openzeppelin/contracts/access/AccessControl.sol\":3130:3136  _roles */\n  dup1\n    /* \"@openzeppelin/contracts/access/AccessControl.sol\":3130:3142  _roles[role] */\n  0x00\n    /* \"@openzeppelin/contracts/access/AccessControl.sol\":3137:3141  role */\n  dup5\n    /* \"@openzeppelin/contracts/access/AccessControl.sol\":3130:3142  _roles[role] */\n  dup2\n  mstore\n  0x20\n  add\n  swap1\n  dup2\n  mstore\n  0x20\n  add\n  0x00\n  keccak256\n    /* \"@openzeppelin/contracts/access/AccessControl.sol\":3130:3150  _roles[role].members */\n  0x00\n  add\n    /* \"@openzeppelin/contracts/access/AccessControl.sol\":3130:3159  _roles[role].members[account] */\n  0x00\n    /* \"@openzeppelin/contracts/access/AccessControl.sol\":3151:3158  account */\n  dup4\n    /* \"@openzeppelin/contracts/access/AccessControl.sol\":3130:3159  _roles[role].members[account] */\n  0xffffffffffffffffffffffffffffffffffffffff\n  and\n  0xffffffffffffffffffffffffffffffffffffffff\n  and\n  dup2\n  mstore\n  0x20\n  add\n  swap1\n  dup2\n  mstore\n  0x20\n  add\n  0x00\n  keccak256\n  0x00\n  swap1\n  sload\n  swap1\n  0x0100\n  exp\n  swap1\n  div\n  0xff\n  and\n    /* \"@openzeppelin/contracts/access/AccessControl.sol\":3123:3159  return _roles[role].members[account] */\n  swap1\n  pop\n    /* \"@openzeppelin/contracts/access/AccessControl.sol\":3021:3166  function hasRole(bytes32 role, address account) public view virtual override returns (bool) {... */\n  swap3\n  swap2\n  pop\n  pop\n  jump\t// out\n    /* \"@openzeppelin/contracts/utils/Context.sol\":640:736  function _msgSender() internal view virtual returns (address) {... */\ntag_15:\n    /* \"@openzeppelin/contracts/utils/Context.sol\":693:700  address */\n  0x00\n    /* \"@openzeppelin/contracts/utils/Context.sol\":719:729  msg.sender */\n  caller\n    /* \"@openzeppelin/contracts/utils/Context.sol\":712:729  return msg.sender */\n  swap1\n  pop\n    /* \"@openzeppelin/contracts/utils/Context.sol\":640:736  function _msgSender() internal view virtual returns (address) {... */\n  swap1\n  jump\t// out\n    /* \"contracts/CertificateVerification.sol\":180:4045  contract CertificateVerification is AccessControl, Pausable {... */\ntag_9:\n  dataSize(sub_0)\n  dup1\n  dataOffset(sub_0)\n  0x00\n  codecopy\n  0x00\n  return\nstop\n\nsub_0: assembly {\n        /* \"contracts/CertificateVerification.sol\":180:4045  contract CertificateVerification is AccessControl, Pausable {... */\n      mstore(0x40, 0x80)\n      callvalue\n      dup1\n      iszero\n      tag_1\n      jumpi\n      0x00\n      dup1\n      revert\n    tag_1:\n      pop\n      jumpi(tag_2, lt(calldatasize, 0x04))\n      shr(0xe0, calldataload(0x00))\n      dup1\n      0x5c975abb\n      gt\n      tag_18\n      jumpi\n      dup1\n      0x8f2b91ea\n      gt\n      tag_19\n      jumpi\n      dup1\n      0x8f2b91ea\n      eq\n      tag_14\n      jumpi\n      dup1\n      0x91d14854\n      eq\n      tag_15\n      jumpi\n      dup1\n      0xa217fddf\n      eq\n      tag_16\n      jumpi\n      dup1\n      0xd547741f\n      eq\n      tag_17\n      jumpi\n      jump(tag_2)\n    tag_19:\n      dup1\n      0x5c975abb\n      eq\n      tag_10\n      jumpi\n      dup1\n      0x82aefa24\n      eq\n      tag_11\n      jumpi\n      dup1\n      0x8456cb59\n      eq\n      tag_12\n      jumpi\n      dup1\n      0x8b23d875\n      eq\n      tag_13\n      jumpi\n      jump(tag_2)\n    tag_18:\n      dup1\n      0x2f2ff15d\n      gt\n      tag_20\n      jumpi\n      dup1\n      0x2f2ff15d\n      eq\n      tag_6\n      jumpi\n      dup1\n      0x36568abe\n      eq\n      tag_7\n      jumpi\n      dup1\n      0x37851f2d\n      eq\n      tag_8\n      jumpi\n      dup1\n      0x3f4ba83a\n      eq\n      tag_9\n      jumpi\n      jump(tag_2)\n    tag_20:\n      dup1\n      0x01ffc9a7\n      eq\n      tag_3\n      jumpi\n      dup1\n      0x142e1542\n      eq\n      tag_4\n      jumpi\n      dup1\n      0x248a9ca3\n      eq\n      tag_5\n      jumpi\n    tag_2:\n      0x00\n      dup1\n      revert\n        /* \"@openzeppelin/contracts/access/AccessControl.sol\":2732:2934  function supportsInterface(bytes4 interfaceId) public view virtual override returns (bool) {... */\n    tag_3:\n      tag_21\n      0x04\n      dup1\n      calldatasize\n      sub\n      dup2\n      add\n      swap1\n      tag_22\n      swap2\n      swap1\n      tag_23\n      jump\t// in\n    tag_22:\n      tag_24\n      jump\t// in\n    tag_21:\n      mload(0x40)\n      tag_25\n      swap2\n      swap1\n      tag_26\n      jump\t// in\n    tag_25:\n      mload(0x40)\n      dup1\n      swap2\n      sub\n      swap1\n      return\n        /* \"contracts/CertificateVerification.sol\":2707:3159  function revokeCertificate(string memory certificateId) ... */\n    tag_4:\n      tag_27\n      0x04\n      dup1\n      calldatasize\n      sub\n      dup2\n      add\n      swap1\n      tag_28\n      swap2\n      swap1\n      tag_29\n      jump\t// in\n    tag_28:\n      tag_30\n      jump\t// in\n    tag_27:\n      stop\n        /* \"@openzeppelin/contracts/access/AccessControl.sol\":4504:4633  function getRoleAdmin(bytes32 role) public view virtual override returns (bytes32) {... */\n    tag_5:\n      tag_31\n      0x04\n      dup1\n      calldatasize\n      sub\n      dup2\n      add\n      swap1\n      tag_32\n      swap2\n      swap1\n      tag_33\n      jump\t// in\n    tag_32:\n      tag_34\n      jump\t// in\n    tag_31:\n      mload(0x40)\n      tag_35\n      swap2\n      swap1\n      tag_36\n      jump\t// in\n    tag_35:\n      mload(0x40)\n      dup1\n      swap2\n      sub\n      swap1\n      return\n        /* \"@openzeppelin/contracts/access/AccessControl.sol\":4929:5074  function grantRole(bytes32 role, address account) public virtual override onlyRole(getRoleAdmin(role)) {... */\n    tag_6:\n      tag_37\n      0x04\n      dup1\n      calldatasize\n      sub\n      dup2\n      add\n      swap1\n      tag_38\n      swap2\n      swap1\n      tag_39\n      jump\t// in\n    tag_38:\n      tag_40\n      jump\t// in\n    tag_37:\n      stop\n        /* \"@openzeppelin/contracts/access/AccessControl.sol\":6038:6252  function renounceRole(bytes32 role, address account) public virtual override {... */\n    tag_7:\n      tag_41\n      0x04\n      dup1\n      calldatasize\n      sub\n      dup2\n      add\n      swap1\n      tag_42\n      swap2\n      swap1\n      tag_39\n      jump\t// in\n    tag_42:\n      tag_43\n      jump\t// in\n    tag_41:\n      stop\n        /* \"contracts/CertificateVerification.sol\":1517:2575  function issueCertificate(... */\n    tag_8:\n      tag_44\n      0x04\n      dup1\n      calldatasize\n      sub\n      dup2\n      add\n      swap1\n      tag_45\n      swap2\n      swap1\n      tag_46\n      jump\t// in\n    tag_45:\n      tag_47\n      jump\t// in\n    tag_44:\n      stop\n        /* \"contracts/CertificateVerification.sol\":3958:4042  function unpause() public onlyRole(DEFAULT_ADMIN_ROLE) {... */\n    tag_9:\n      tag_48\n      tag_49\n      jump\t// in\n    tag_48:\n      stop\n        /* \"@openzeppelin/contracts/security/Pausable.sol\":1615:1699  function paused() public view virtual returns (bool) {... */\n    tag_10:\n      tag_50\n      tag_51\n      jump\t// in\n    tag_50:\n      mload(0x40)\n      tag_52\n      swap2\n      swap1\n      tag_26\n      jump\t// in\n    tag_52:\n      mload(0x40)\n      dup1\n      swap2\n      sub\n      swap1\n      return\n        /* \"contracts/CertificateVerification.sol\":247:309  bytes32 public constant ISSUER_ROLE = keccak256(\"ISSUER_ROLE\") */\n    tag_11:\n      tag_53\n      tag_54\n      jump\t// in\n    tag_53:\n      mload(0x40)\n      tag_55\n      swap2\n      swap1\n      tag_36\n      jump\t// in\n    tag_55:\n      mload(0x40)\n      dup1\n      swap2\n      sub\n      swap1\n      return\n        /* \"contracts/CertificateVerification.sol\":3803:3883  function pause() public onlyRole(DEFAULT_ADMIN_ROLE) {... */\n    tag_12:\n      tag_56\n      tag_57\n      jump\t// in\n    tag_56:\n      stop\n        /* \"contracts/CertificateVerification.sol\":3403:3730  function verifyCertificate(string memory certificateId)... */\n    tag_13:\n      tag_58\n      0x04\n      dup1\n      calldatasize\n      sub\n      dup2\n      add\n      swap1\n      tag_59\n      swap2\n      swap1\n      tag_29\n      jump\t// in\n    tag_59:\n      tag_60\n      jump\t// in\n    tag_58:\n      mload(0x40)\n      tag_61\n      swap3\n      swap2\n      swap1\n      tag_62\n      jump\t// in\n    tag_61:\n      mload(0x40)\n      dup1\n      swap2\n      sub\n      swap1\n      return\n        /* \"contracts/CertificateVerification.sol\":713:763  mapping(string => Certificate) public certificates */\n    tag_14:\n      tag_63\n      0x04\n      dup1\n      calldatasize\n      sub\n      dup2\n      add\n      swap1\n      tag_64\n      swap2\n      swap1\n      tag_29\n      jump\t// in\n    tag_64:\n      tag_65\n      jump\t// in\n    tag_63:\n      mload(0x40)\n      tag_66\n      swap8\n      swap7\n      swap6\n      swap5\n      swap4\n      swap3\n      swap2\n      swap1\n      tag_67\n      jump\t// in\n    tag_66:\n      mload(0x40)\n      dup1\n      swap2\n      sub\n      swap1\n      return\n        /* \"@openzeppelin/contracts/access/AccessControl.sol\":3021:3166  function hasRole(bytes32 role, address account) public view virtual override returns (bool) {... */\n    tag_15:\n      tag_68\n      0x04\n      dup1\n      calldatasize\n      sub\n      dup2\n      add\n      swap1\n      tag_69\n      swap2\n      swap1\n      tag_39\n      jump\t// in\n    tag_69:\n      tag_70\n      jump\t// in\n    tag_68:\n      mload(0x40)\n      tag_71\n      swap2\n      swap1\n      tag_26\n      jump\t// in\n    tag_71:\n      mload(0x40)\n      dup1\n      swap2\n      sub\n      swap1\n      return\n        /* \"@openzeppelin/contracts/access/AccessControl.sol\":2153:2202  bytes32 public constant DEFAULT_ADMIN_ROLE = 0x00 */\n    tag_16:\n      tag_72\n      tag_73\n      jump\t// in\n    tag_72:\n      mload(0x40)\n      tag_74\n      swap2\n      swap1\n      tag_36\n      jump\t// in\n    tag_74:\n      mload(0x40)\n      dup1\n      swap2\n      sub\n      swap1\n      return\n        /* \"@openzeppelin/contracts/access/AccessControl.sol\":5354:5501  function revokeRole(bytes32 role, address account) public virtual override onlyRole(getRoleAdmin(role)) {... */\n    tag_17:\n      tag_75\n      0x04\n      dup1\n      calldatasize\n      sub\n      dup2\n      add\n      swap1\n      tag_76\n      swap2\n      swap1\n      tag_39\n      jump\t// in\n    tag_76:\n      tag_77\n      jump\t// in\n    tag_75:\n      stop\n        /* \"@openzeppelin/contracts/access/AccessControl.sol\":2732:2934  function supportsInterface(bytes4 interfaceId) public view virtual override returns (bool) {... */\n    tag_24:\n        /* \"@openzeppelin/contracts/access/AccessControl.sol\":2817:2821  bool */\n      0x00\n        /* \"@openzeppelin/contracts/access/AccessControl.sol\":2855:2887  type(IAccessControl).interfaceId */\n      0x7965db0b00000000000000000000000000000000000000000000000000000000\n        /* \"@openzeppelin/contracts/access/AccessControl.sol\":2840:2887  interfaceId == type(IAccessControl).interfaceId */\n      not(0xffffffffffffffffffffffffffffffffffffffffffffffffffffffff)\n      and\n        /* \"@openzeppelin/contracts/access/AccessControl.sol\":2840:2851  interfaceId */\n      dup3\n        /* \"@openzeppelin/contracts/access/AccessControl.sol\":2840:2887  interfaceId == type(IAccessControl).interfaceId */\n      not(0xffffffffffffffffffffffffffffffffffffffffffffffffffffffff)\n      and\n      eq\n        /* \"@openzeppelin/contracts/access/AccessControl.sol\":2840:2927  interfaceId == type(IAccessControl).interfaceId || super.supportsInterface(interfaceId) */\n      dup1\n      tag_79\n      jumpi\n      pop\n        /* \"@openzeppelin/contracts/access/AccessControl.sol\":2891:2927  super.supportsInterface(interfaceId) */\n      tag_80\n        /* \"@openzeppelin/contracts/access/AccessControl.sol\":2915:2926  interfaceId */\n      dup3\n        /* \"@openzeppelin/contracts/access/AccessControl.sol\":2891:2914  super.supportsInterface */\n      tag_81\n        /* \"@openzeppelin/contracts/access/AccessControl.sol\":2891:2927  super.supportsInterface(interfaceId) */\n      jump\t// in\n    tag_80:\n        /* \"@openzeppelin/contracts/access/AccessControl.sol\":2840:2927  interfaceId == type(IAccessControl).interfaceId || super.supportsInterface(interfaceId) */\n    tag_79:\n        /* \"@openzeppelin/contracts/access/AccessControl.sol\":2833:2927  return interfaceId == type(IAccessControl).interfaceId || super.supportsInterface(interfaceId) */\n      swap1\n      pop\n        /* \"@openzeppelin/contracts/access/AccessControl.sol\":2732:2934  function supportsInterface(bytes4 interfaceId) public view virtual override returns (bool) {... */\n      swap2\n      swap1\n      pop\n      jump\t// out\n        /* \"contracts/CertificateVerification.sol\":2707:3159  function revokeCertificate(string memory certificateId) ... */\n    tag_30:\n        /* \"contracts/CertificateVerification.sol\":285:309  keccak256(\"ISSUER_ROLE\") */\n      0x114e74f6ea3bd819998f78687bfcb11b140da08e9b7d222fa9c1f1ba1f2aa122\n        /* \"@openzeppelin/contracts/access/AccessControl.sol\":2631:2647  _checkRole(role) */\n      tag_83\n        /* \"@openzeppelin/contracts/access/AccessControl.sol\":2642:2646  role */\n      dup2\n        /* \"@openzeppelin/contracts/access/AccessControl.sol\":2631:2641  _checkRole */\n      tag_84\n        /* \"@openzeppelin/contracts/access/AccessControl.sol\":2631:2647  _checkRole(role) */\n      jump\t// in\n    tag_83:\n        /* \"@openzeppelin/contracts/security/Pausable.sol\":1239:1258  _requireNotPaused() */\n      tag_86\n        /* \"@openzeppelin/contracts/security/Pausable.sol\":1239:1256  _requireNotPaused */\n      tag_87\n        /* \"@openzeppelin/contracts/security/Pausable.sol\":1239:1258  _requireNotPaused() */\n      jump\t// in\n    tag_86:\n        /* \"contracts/CertificateVerification.sol\":2901:2902  0 */\n      0x00\n        /* \"contracts/CertificateVerification.sol\":2861:2873  certificates */\n      0x02\n        /* \"contracts/CertificateVerification.sol\":2874:2887  certificateId */\n      dup4\n        /* \"contracts/CertificateVerification.sol\":2861:2888  certificates[certificateId] */\n      mload(0x40)\n      tag_89\n      swap2\n      swap1\n      tag_90\n      jump\t// in\n    tag_89:\n      swap1\n      dup2\n      mstore\n      0x20\n      add\n      mload(0x40)\n      dup1\n      swap2\n      sub\n      swap1\n      keccak256\n        /* \"contracts/CertificateVerification.sol\":2861:2898  certificates[certificateId].issueDate */\n      0x04\n      add\n      sload\n        /* \"contracts/CertificateVerification.sol\":2861:2902  certificates[certificateId].issueDate > 0 */\n      gt\n        /* \"contracts/CertificateVerification.sol\":2853:2933  require(certificates[certificateId].issueDate > 0, \"Certificate does not exist\") */\n      tag_91\n      jumpi\n      mload(0x40)\n      0x08c379a000000000000000000000000000000000000000000000000000000000\n      dup2\n      mstore\n      0x04\n      add\n      tag_92\n      swap1\n      tag_93\n      jump\t// in\n    tag_92:\n      mload(0x40)\n      dup1\n      swap2\n      sub\n      swap1\n      revert\n    tag_91:\n        /* \"contracts/CertificateVerification.sol\":2953:2965  certificates */\n      0x02\n        /* \"contracts/CertificateVerification.sol\":2966:2979  certificateId */\n      dup3\n        /* \"contracts/CertificateVerification.sol\":2953:2980  certificates[certificateId] */\n      mload(0x40)\n      tag_94\n      swap2\n      swap1\n      tag_90\n      jump\t// in\n    tag_94:\n      swap1\n      dup2\n      mstore\n      0x20\n      add\n      mload(0x40)\n      dup1\n      swap2\n      sub\n      swap1\n      keccak256\n        /* \"contracts/CertificateVerification.sol\":2953:2990  certificates[certificateId].isRevoked */\n      0x05\n      add\n      0x00\n      swap1\n      sload\n      swap1\n      0x0100\n      exp\n      swap1\n      div\n      0xff\n      and\n        /* \"contracts/CertificateVerification.sol\":2952:2990  !certificates[certificateId].isRevoked */\n      iszero\n        /* \"contracts/CertificateVerification.sol\":2944:3025  require(!certificates[certificateId].isRevoked, \"Certificate is already revoked\") */\n      tag_95\n      jumpi\n      mload(0x40)\n      0x08c379a000000000000000000000000000000000000000000000000000000000\n      dup2\n      mstore\n      0x04\n      add\n      tag_96\n      swap1\n      tag_97\n      jump\t// in\n    tag_96:\n      mload(0x40)\n      dup1\n      swap2\n      sub\n      swap1\n      revert\n    tag_95:\n        /* \"contracts/CertificateVerification.sol\":3086:3090  true */\n      0x01\n        /* \"contracts/CertificateVerification.sol\":3046:3058  certificates */\n      0x02\n        /* \"contracts/CertificateVerification.sol\":3059:3072  certificateId */\n      dup4\n        /* \"contracts/CertificateVerification.sol\":3046:3073  certificates[certificateId] */\n      mload(0x40)\n      tag_98\n      swap2\n      swap1\n      tag_90\n      jump\t// in\n    tag_98:\n      swap1\n      dup2\n      mstore\n      0x20\n      add\n      mload(0x40)\n      dup1\n      swap2\n      sub\n      swap1\n      keccak256\n        /* \"contracts/CertificateVerification.sol\":3046:3083  certificates[certificateId].isRevoked */\n      0x05\n      add\n      0x00\n        /* \"contracts/CertificateVerification.sol\":3046:3090  certificates[certificateId].isRevoked = true */\n      0x0100\n      exp\n      dup2\n      sload\n      dup2\n      0xff\n      mul\n      not\n      and\n      swap1\n      dup4\n      iszero\n      iszero\n      mul\n      or\n      swap1\n      sstore\n      pop\n        /* \"contracts/CertificateVerification.sol\":3140:3150  msg.sender */\n      caller\n        /* \"contracts/CertificateVerification.sol\":3106:3151  CertificateRevoked(certificateId, msg.sender) */\n      0xffffffffffffffffffffffffffffffffffffffff\n      and\n      0x7b87df98e4ff33f07a9fbda6f93a6b69c498e48444877da8c54a83d3a43aee5b\n        /* \"contracts/CertificateVerification.sol\":3125:3138  certificateId */\n      dup4\n        /* \"contracts/CertificateVerification.sol\":3106:3151  CertificateRevoked(certificateId, msg.sender) */\n      mload(0x40)\n      tag_99\n      swap2\n      swap1\n      tag_100\n      jump\t// in\n    tag_99:\n      mload(0x40)\n      dup1\n      swap2\n      sub\n      swap1\n      log2\n        /* \"contracts/CertificateVerification.sol\":2707:3159  function revokeCertificate(string memory certificateId) ... */\n      pop\n      pop\n      jump\t// out\n        /* \"@openzeppelin/contracts/access/AccessControl.sol\":4504:4633  function getRoleAdmin(bytes32 role) public view virtual override returns (bytes32) {... */\n    tag_34:\n        /* \"@openzeppelin/contracts/access/AccessControl.sol\":4578:4585  bytes32 */\n      0x00\n        /* \"@openzeppelin/contracts/access/AccessControl.sol\":4604:4610  _roles */\n      dup1\n        /* \"@openzeppelin/contracts/access/AccessControl.sol\":4604:4616  _roles[role] */\n      0x00\n        /* \"@openzeppelin/contracts/access/AccessControl.sol\":4611:4615  role */\n      dup4\n        /* \"@openzeppelin/contracts/access/AccessControl.sol\":4604:4616  _roles[role] */\n      dup2\n      mstore\n      0x20\n      add\n      swap1\n      dup2\n      mstore\n      0x20\n      add\n      0x00\n      keccak256\n        /* \"@openzeppelin/contracts/access/AccessControl.sol\":4604:4626  _roles[role].adminRole */\n      0x01\n      add\n      sload\n        /* \"@openzeppelin/contracts/access/AccessControl.sol\":4597:4626  return _roles[role].adminRole */\n      swap1\n      pop\n        /* \"@openzeppelin/contracts/access/AccessControl.sol\":4504:4633  function getRoleAdmin(bytes32 role) public view virtual override returns (bytes32) {... */\n      swap2\n      swap1\n      pop\n      jump\t// out\n        /* \"@openzeppelin/contracts/access/AccessControl.sol\":4929:5074  function grantRole(bytes32 role, address account) public virtual override onlyRole(getRoleAdmin(role)) {... */\n    tag_40:\n        /* \"@openzeppelin/contracts/access/AccessControl.sol\":5012:5030  getRoleAdmin(role) */\n      tag_102\n        /* \"@openzeppelin/contracts/access/AccessControl.sol\":5025:5029  role */\n      dup3\n        /* \"@openzeppelin/contracts/access/AccessControl.sol\":5012:5024  getRoleAdmin */\n      tag_34\n        /* \"@openzeppelin/contracts/access/AccessControl.sol\":5012:5030  getRoleAdmin(role) */\n      jump\t// in\n    tag_102:\n        /* \"@openzeppelin/contracts/access/AccessControl.sol\":2631:2647  _checkRole(role) */\n      tag_104\n        /* \"@openzeppelin/contracts/access/AccessControl.sol\":2642:2646  role */\n      dup2\n        /* \"@openzeppelin/contracts/access/AccessControl.sol\":2631:2641  _checkRole */\n      tag_84\n        /* \"@openzeppelin/contracts/access/AccessControl.sol\":2631:2647  _checkRole(role) */\n      jump\t// in\n    tag_104:\n        /* \"@openzeppelin/contracts/access/AccessControl.sol\":5042:5067  _grantRole(role, account) */\n      tag_106\n        /* \"@openzeppelin/contracts/access/AccessControl.sol\":5053:5057  role */\n      dup4\n        /* \"@openzeppelin/contracts/access/AccessControl.sol\":5059:5066  account */\n      dup4\n        /* \"@openzeppelin/contracts/access/AccessControl.sol\":5042:5052  _grantRole */\n      tag_107\n        /* \"@openzeppelin/contracts/access/AccessControl.sol\":5042:5067  _grantRole(role, account) */\n      jump\t// in\n    tag_106:\n        /* \"@openzeppelin/contracts/access/AccessControl.sol\":4929:5074  function grantRole(bytes32 role, address account) public virtual override onlyRole(getRoleAdmin(role)) {... */\n      pop\n      pop\n      pop\n      jump\t// out\n        /* \"@openzeppelin/contracts/access/AccessControl.sol\":6038:6252  function renounceRole(bytes32 role, address account) public virtual override {... */\n    tag_43:\n        /* \"@openzeppelin/contracts/access/AccessControl.sol\":6144:6156  _msgSender() */\n      tag_109\n        /* \"@openzeppelin/contracts/access/AccessControl.sol\":6144:6154  _msgSender */\n      tag_110\n        /* \"@openzeppelin/contracts/access/AccessControl.sol\":6144:6156  _msgSender() */\n      jump\t// in\n    tag_109:\n        /* \"@openzeppelin/contracts/access/AccessControl.sol\":6133:6156  account == _msgSender() */\n      0xffffffffffffffffffffffffffffffffffffffff\n      and\n        /* \"@openzeppelin/contracts/access/AccessControl.sol\":6133:6140  account */\n      dup2\n        /* \"@openzeppelin/contracts/access/AccessControl.sol\":6133:6156  account == _msgSender() */\n      0xffffffffffffffffffffffffffffffffffffffff\n      and\n      eq\n        /* \"@openzeppelin/contracts/access/AccessControl.sol\":6125:6208  require(account == _msgSender(), \"AccessControl: can only renounce roles for self\") */\n      tag_111\n      jumpi\n      mload(0x40)\n      0x08c379a000000000000000000000000000000000000000000000000000000000\n      dup2\n      mstore\n      0x04\n      add\n      tag_112\n      swap1\n      tag_113\n      jump\t// in\n    tag_112:\n      mload(0x40)\n      dup1\n      swap2\n      sub\n      swap1\n      revert\n    tag_111:\n        /* \"@openzeppelin/contracts/access/AccessControl.sol\":6219:6245  _revokeRole(role, account) */\n      tag_114\n        /* \"@openzeppelin/contracts/access/AccessControl.sol\":6231:6235  role */\n      dup3\n        /* \"@openzeppelin/contracts/access/AccessControl.sol\":6237:6244  account */\n      dup3\n        /* \"@openzeppelin/contracts/access/AccessControl.sol\":6219:6230  _revokeRole */\n      tag_115\n        /* \"@openzeppelin/contracts/access/AccessControl.sol\":6219:6245  _revokeRole(role, account) */\n      jump\t// in\n    tag_114:\n        /* \"@openzeppelin/contracts/access/AccessControl.sol\":6038:6252  function renounceRole(bytes32 role, address account) public virtual override {... */\n      pop\n      pop\n      jump\t// out\n        /* \"contracts/CertificateVerification.sol\":1517:2575  function issueCertificate(... */\n    tag_47:\n        /* \"contracts/CertificateVerification.sol\":285:309  keccak256(\"ISSUER_ROLE\") */\n      0x114e74f6ea3bd819998f78687bfcb11b140da08e9b7d222fa9c1f1ba1f2aa122\n        /* \"@openzeppelin/contracts/access/AccessControl.sol\":2631:2647  _checkRole(role) */\n      tag_117\n        /* \"@openzeppelin/contracts/access/AccessControl.sol\":2642:2646  role */\n      dup2\n        /* \"@openzeppelin/contracts/access/AccessControl.sol\":2631:2641  _checkRole */\n      tag_84\n        /* \"@openzeppelin/contracts/access/AccessControl.sol\":2631:2647  _checkRole(role) */\n      jump\t// in\n    tag_117:\n        /* \"@openzeppelin/contracts/security/Pausable.sol\":1239:1258  _requireNotPaused() */\n      tag_119\n        /* \"@openzeppelin/contracts/security/Pausable.sol\":1239:1256  _requireNotPaused */\n      tag_87\n        /* \"@openzeppelin/contracts/security/Pausable.sol\":1239:1258  _requireNotPaused() */\n      jump\t// in\n    tag_119:\n        /* \"contracts/CertificateVerification.sol\":1779:1780  0 */\n      0x00\n        /* \"contracts/CertificateVerification.sol\":1755:1768  certificateId */\n      dup6\n        /* \"contracts/CertificateVerification.sol\":1749:1776  bytes(certificateId).length */\n      mload\n        /* \"contracts/CertificateVerification.sol\":1749:1780  bytes(certificateId).length > 0 */\n      gt\n        /* \"contracts/CertificateVerification.sol\":1741:1815  require(bytes(certificateId).length > 0, \"Certificate ID cannot be empty\") */\n      tag_121\n      jumpi\n      mload(0x40)\n      0x08c379a000000000000000000000000000000000000000000000000000000000\n      dup2\n      mstore\n      0x04\n      add\n      tag_122\n      swap1\n      tag_123\n      jump\t// in\n    tag_122:\n      mload(0x40)\n      dup1\n      swap2\n      sub\n      swap1\n      revert\n    tag_121:\n        /* \"contracts/CertificateVerification.sol\":1860:1861  0 */\n      0x00\n        /* \"contracts/CertificateVerification.sol\":1834:1862  studentAddress != address(0) */\n      0xffffffffffffffffffffffffffffffffffffffff\n      and\n        /* \"contracts/CertificateVerification.sol\":1834:1848  studentAddress */\n      dup5\n        /* \"contracts/CertificateVerification.sol\":1834:1862  studentAddress != address(0) */\n      0xffffffffffffffffffffffffffffffffffffffff\n      and\n      sub\n        /* \"contracts/CertificateVerification.sol\":1826:1890  require(studentAddress != address(0), \"Invalid student address\") */\n      tag_124\n      jumpi\n      mload(0x40)\n      0x08c379a000000000000000000000000000000000000000000000000000000000\n      dup2\n      mstore\n      0x04\n      add\n      tag_125\n      swap1\n      tag_126\n      jump\t// in\n    tag_125:\n      mload(0x40)\n      dup1\n      swap2\n      sub\n      swap1\n      revert\n    tag_124:\n        /* \"contracts/CertificateVerification.sol\":1934:1935  0 */\n      0x00\n        /* \"contracts/CertificateVerification.sol\":1915:1923  ipfsHash */\n      dup4\n        /* \"contracts/CertificateVerification.sol\":1909:1931  bytes(ipfsHash).length */\n      mload\n        /* \"contracts/CertificateVerification.sol\":1909:1935  bytes(ipfsHash).length > 0 */\n      gt\n        /* \"contracts/CertificateVerification.sol\":1901:1965  require(bytes(ipfsHash).length > 0, \"IPFS hash cannot be empty\") */\n      tag_127\n      jumpi\n      mload(0x40)\n      0x08c379a000000000000000000000000000000000000000000000000000000000\n      dup2\n      mstore\n      0x04\n      add\n      tag_128\n      swap1\n      tag_129\n      jump\t// in\n    tag_128:\n      mload(0x40)\n      dup1\n      swap2\n      sub\n      swap1\n      revert\n    tag_127:\n        /* \"contracts/CertificateVerification.sol\":2025:2026  0 */\n      0x00\n        /* \"contracts/CertificateVerification.sol\":1984:1996  certificates */\n      0x02\n        /* \"contracts/CertificateVerification.sol\":1997:2010  certificateId */\n      dup7\n        /* \"contracts/CertificateVerification.sol\":1984:2011  certificates[certificateId] */\n      mload(0x40)\n      tag_130\n      swap2\n      swap1\n      tag_90\n      jump\t// in\n    tag_130:\n      swap1\n      dup2\n      mstore\n      0x20\n      add\n      mload(0x40)\n      dup1\n      swap2\n      sub\n      swap1\n      keccak256\n        /* \"contracts/CertificateVerification.sol\":1984:2021  certificates[certificateId].issueDate */\n      0x04\n      add\n      sload\n        /* \"contracts/CertificateVerification.sol\":1984:2026  certificates[certificateId].issueDate == 0 */\n      eq\n        /* \"contracts/CertificateVerification.sol\":1976:2060  require(certificates[certificateId].issueDate == 0, \"Certificate ID already exists\") */\n      tag_131\n      jumpi\n      mload(0x40)\n      0x08c379a000000000000000000000000000000000000000000000000000000000\n      dup2\n      mstore\n      0x04\n      add\n      tag_132\n      swap1\n      tag_133\n      jump\t// in\n    tag_132:\n      mload(0x40)\n      dup1\n      swap2\n      sub\n      swap1\n      revert\n    tag_131:\n        /* \"contracts/CertificateVerification.sol\":2103:2386  Certificate({... */\n      mload(0x40)\n      dup1\n      0xe0\n      add\n      0x40\n      mstore\n      dup1\n        /* \"contracts/CertificateVerification.sol\":2145:2158  certificateId */\n      dup7\n        /* \"contracts/CertificateVerification.sol\":2103:2386  Certificate({... */\n      dup2\n      mstore\n      0x20\n      add\n        /* \"contracts/CertificateVerification.sol\":2181:2191  msg.sender */\n      caller\n        /* \"contracts/CertificateVerification.sol\":2103:2386  Certificate({... */\n      0xffffffffffffffffffffffffffffffffffffffff\n      and\n      dup2\n      mstore\n      0x20\n      add\n        /* \"contracts/CertificateVerification.sol\":2222:2236  studentAddress */\n      dup6\n        /* \"contracts/CertificateVerification.sol\":2103:2386  Certificate({... */\n      0xffffffffffffffffffffffffffffffffffffffff\n      and\n      dup2\n      mstore\n      0x20\n      add\n        /* \"contracts/CertificateVerification.sol\":2261:2269  ipfsHash */\n      dup5\n        /* \"contracts/CertificateVerification.sol\":2103:2386  Certificate({... */\n      dup2\n      mstore\n      0x20\n      add\n        /* \"contracts/CertificateVerification.sol\":2295:2310  block.timestamp */\n      timestamp\n        /* \"contracts/CertificateVerification.sol\":2103:2386  Certificate({... */\n      dup2\n      mstore\n      0x20\n      add\n        /* \"contracts/CertificateVerification.sol\":2336:2341  false */\n      0x00\n        /* \"contracts/CertificateVerification.sol\":2103:2386  Certificate({... */\n      iszero\n      iszero\n      dup2\n      mstore\n      0x20\n      add\n        /* \"contracts/CertificateVerification.sol\":2366:2374  metadata */\n      dup4\n        /* \"contracts/CertificateVerification.sol\":2103:2386  Certificate({... */\n      dup2\n      mstore\n      pop\n        /* \"contracts/CertificateVerification.sol\":2073:2085  certificates */\n      0x02\n        /* \"contracts/CertificateVerification.sol\":2086:2099  certificateId */\n      dup7\n        /* \"contracts/CertificateVerification.sol\":2073:2100  certificates[certificateId] */\n      mload(0x40)\n      tag_134\n      swap2\n      swap1\n      tag_90\n      jump\t// in\n    tag_134:\n      swap1\n      dup2\n      mstore\n      0x20\n      add\n      mload(0x40)\n      dup1\n      swap2\n      sub\n      swap1\n      keccak256\n        /* \"contracts/CertificateVerification.sol\":2073:2386  certificates[certificateId] = Certificate({... */\n      0x00\n      dup3\n      add\n      mload\n      dup2\n      0x00\n      add\n      swap1\n      dup2\n      tag_135\n      swap2\n      swap1\n      tag_136\n      jump\t// in\n    tag_135:\n      pop\n      0x20\n      dup3\n      add\n      mload\n      dup2\n      0x01\n      add\n      exp(0x0100, 0x00)\n      dup2\n      sload\n      dup2\n      0xffffffffffffffffffffffffffffffffffffffff\n      mul\n      not\n      and\n      swap1\n      dup4\n      0xffffffffffffffffffffffffffffffffffffffff\n      and\n      mul\n      or\n      swap1\n      sstore\n      pop\n      0x40\n      dup3\n      add\n      mload\n      dup2\n      0x02\n      add\n      exp(0x0100, 0x00)\n      dup2\n      sload\n      dup2\n      0xffffffffffffffffffffffffffffffffffffffff\n      mul\n      not\n      and\n      swap1\n      dup4\n      0xffffffffffffffffffffffffffffffffffffffff\n      and\n      mul\n      or\n      swap1\n      sstore\n      pop\n      0x60\n      dup3\n      add\n      mload\n      dup2\n      0x03\n      add\n      swap1\n      dup2\n      tag_137\n      swap2\n      swap1\n      tag_136\n      jump\t// in\n    tag_137:\n      pop\n      0x80\n      dup3\n      add\n      mload\n      dup2\n      0x04\n      add\n      sstore\n      0xa0\n      dup3\n      add\n      mload\n      dup2\n      0x05\n      add\n      exp(0x0100, 0x00)\n      dup2\n      sload\n      dup2\n      0xff\n      mul\n      not\n      and\n      swap1\n      dup4\n      iszero\n      iszero\n      mul\n      or\n      swap1\n      sstore\n      pop\n      0xc0\n      dup3\n      add\n      mload\n      dup2\n      0x06\n      add\n      swap1\n      dup2\n      tag_138\n      swap2\n      swap1\n      tag_136\n      jump\t// in\n    tag_138:\n      pop\n      swap1\n      pop\n      pop\n        /* \"contracts/CertificateVerification.sol\":2489:2503  studentAddress */\n      dup4\n        /* \"contracts/CertificateVerification.sol\":2404:2567  CertificateIssued(... */\n      0xffffffffffffffffffffffffffffffffffffffff\n      and\n        /* \"contracts/CertificateVerification.sol\":2464:2474  msg.sender */\n      caller\n        /* \"contracts/CertificateVerification.sol\":2404:2567  CertificateIssued(... */\n      0xffffffffffffffffffffffffffffffffffffffff\n      and\n      0x2af155826810ef2dfc642eb7e9c4b891594d8067978057a44fc1e01773bcd706\n        /* \"contracts/CertificateVerification.sol\":2436:2449  certificateId */\n      dup8\n        /* \"contracts/CertificateVerification.sol\":2518:2526  ipfsHash */\n      dup7\n        /* \"contracts/CertificateVerification.sol\":2541:2556  block.timestamp */\n      timestamp\n        /* \"contracts/CertificateVerification.sol\":2404:2567  CertificateIssued(... */\n      mload(0x40)\n      tag_139\n      swap4\n      swap3\n      swap2\n      swap1\n      tag_140\n      jump\t// in\n    tag_139:\n      mload(0x40)\n      dup1\n      swap2\n      sub\n      swap1\n      log3\n        /* \"contracts/CertificateVerification.sol\":1517:2575  function issueCertificate(... */\n      pop\n      pop\n      pop\n      pop\n      pop\n      jump\t// out\n        /* \"contracts/CertificateVerification.sol\":3958:4042  function unpause() public onlyRole(DEFAULT_ADMIN_ROLE) {... */\n    tag_49:\n        /* \"@openzeppelin/contracts/access/AccessControl.sol\":2198:2202  0x00 */\n      0x00\n        /* \"contracts/CertificateVerification.sol\":3993:4011  DEFAULT_ADMIN_ROLE */\n      dup1\n      shl\n        /* \"@openzeppelin/contracts/access/AccessControl.sol\":2631:2647  _checkRole(role) */\n      tag_142\n        /* \"@openzeppelin/contracts/access/AccessControl.sol\":2642:2646  role */\n      dup2\n        /* \"@openzeppelin/contracts/access/AccessControl.sol\":2631:2641  _checkRole */\n      tag_84\n        /* \"@openzeppelin/contracts/access/AccessControl.sol\":2631:2647  _checkRole(role) */\n      jump\t// in\n    tag_142:\n        /* \"contracts/CertificateVerification.sol\":4024:4034  _unpause() */\n      tag_144\n        /* \"contracts/CertificateVerification.sol\":4024:4032  _unpause */\n      tag_145\n        /* \"contracts/CertificateVerification.sol\":4024:4034  _unpause() */\n      jump\t// in\n    tag_144:\n        /* \"contracts/CertificateVerification.sol\":3958:4042  function unpause() public onlyRole(DEFAULT_ADMIN_ROLE) {... */\n      pop\n      jump\t// out\n        /* \"@openzeppelin/contracts/security/Pausable.sol\":1615:1699  function paused() public view virtual returns (bool) {... */\n    tag_51:\n        /* \"@openzeppelin/contracts/security/Pausable.sol\":1662:1666  bool */\n      0x00\n        /* \"@openzeppelin/contracts/security/Pausable.sol\":1685:1692  _paused */\n      0x01\n      0x00\n      swap1\n      sload\n      swap1\n      0x0100\n      exp\n      swap1\n      div\n      0xff\n      and\n        /* \"@openzeppelin/contracts/security/Pausable.sol\":1678:1692  return _paused */\n      swap1\n      pop\n        /* \"@openzeppelin/contracts/security/Pausable.sol\":1615:1699  function paused() public view virtual returns (bool) {... */\n      swap1\n      jump\t// out\n        /* \"contracts/CertificateVerification.sol\":247:309  bytes32 public constant ISSUER_ROLE = keccak256(\"ISSUER_ROLE\") */\n    tag_54:\n        /* \"contracts/CertificateVerification.sol\":285:309  keccak256(\"ISSUER_ROLE\") */\n      0x114e74f6ea3bd819998f78687bfcb11b140da08e9b7d222fa9c1f1ba1f2aa122\n        /* \"contracts/CertificateVerification.sol\":247:309  bytes32 public constant ISSUER_ROLE = keccak256(\"ISSUER_ROLE\") */\n      dup2\n      jump\t// out\n        /* \"contracts/CertificateVerification.sol\":3803:3883  function pause() public onlyRole(DEFAULT_ADMIN_ROLE) {... */\n    tag_57:\n        /* \"@openzeppelin/contracts/access/AccessControl.sol\":2198:2202  0x00 */\n      0x00\n        /* \"contracts/CertificateVerification.sol\":3836:3854  DEFAULT_ADMIN_ROLE */\n      dup1\n      shl\n        /* \"@openzeppelin/contracts/access/AccessControl.sol\":2631:2647  _checkRole(role) */\n      tag_148\n        /* \"@openzeppelin/contracts/access/AccessControl.sol\":2642:2646  role */\n      dup2\n        /* \"@openzeppelin/contracts/access/AccessControl.sol\":2631:2641  _checkRole */\n      tag_84\n        /* \"@openzeppelin/contracts/access/AccessControl.sol\":2631:2647  _checkRole(role) */\n      jump\t// in\n    tag_148:\n        /* \"contracts/CertificateVerification.sol\":3867:3875  _pause() */\n      tag_150\n        /* \"contracts/CertificateVerification.sol\":3867:3873  _pause */\n      tag_151\n        /* \"contracts/CertificateVerification.sol\":3867:3875  _pause() */\n      jump\t// in\n    tag_150:\n        /* \"contracts/CertificateVerification.sol\":3803:3883  function pause() public onlyRole(DEFAULT_ADMIN_ROLE) {... */\n      pop\n      jump\t// out\n        /* \"contracts/CertificateVerification.sol\":3403:3730  function verifyCertificate(string memory certificateId)... */\n    tag_60:\n        /* \"contracts/CertificateVerification.sol\":3507:3519  bool isValid */\n      0x00\n        /* \"contracts/CertificateVerification.sol\":3521:3551  Certificate memory certificate */\n      tag_152\n      tag_153\n      jump\t// in\n    tag_152:\n        /* \"contracts/CertificateVerification.sol\":3583:3595  certificates */\n      0x02\n        /* \"contracts/CertificateVerification.sol\":3596:3609  certificateId */\n      dup4\n        /* \"contracts/CertificateVerification.sol\":3583:3610  certificates[certificateId] */\n      mload(0x40)\n      tag_155\n      swap2\n      swap1\n      tag_90\n      jump\t// in\n    tag_155:\n      swap1\n      dup2\n      mstore\n      0x20\n      add\n      mload(0x40)\n      dup1\n      swap2\n      sub\n      swap1\n      keccak256\n        /* \"contracts/CertificateVerification.sol\":3569:3610  certificate = certificates[certificateId] */\n      mload(0x40)\n      dup1\n      0xe0\n      add\n      0x40\n      mstore\n      swap1\n      dup2\n      0x00\n      dup3\n      add\n      dup1\n      sload\n      tag_156\n      swap1\n      tag_157\n      jump\t// in\n    tag_156:\n      dup1\n      0x1f\n      add\n      0x20\n      dup1\n      swap2\n      div\n      mul\n      0x20\n      add\n      mload(0x40)\n      swap1\n      dup2\n      add\n      0x40\n      mstore\n      dup1\n      swap3\n      swap2\n      swap1\n      dup2\n      dup2\n      mstore\n      0x20\n      add\n      dup3\n      dup1\n      sload\n      tag_158\n      swap1\n      tag_157\n      jump\t// in\n    tag_158:\n      dup1\n      iszero\n      tag_159\n      jumpi\n      dup1\n      0x1f\n      lt\n      tag_160\n      jumpi\n      0x0100\n      dup1\n      dup4\n      sload\n      div\n      mul\n      dup4\n      mstore\n      swap2\n      0x20\n      add\n      swap2\n      jump(tag_159)\n    tag_160:\n      dup3\n      add\n      swap2\n      swap1\n      0x00\n      mstore\n      keccak256(0x00, 0x20)\n      swap1\n    tag_161:\n      dup2\n      sload\n      dup2\n      mstore\n      swap1\n      0x01\n      add\n      swap1\n      0x20\n      add\n      dup1\n      dup4\n      gt\n      tag_161\n      jumpi\n      dup3\n      swap1\n      sub\n      0x1f\n      and\n      dup3\n      add\n      swap2\n    tag_159:\n      pop\n      pop\n      pop\n      pop\n      pop\n      dup2\n      mstore\n      0x20\n      add\n      0x01\n      dup3\n      add\n      0x00\n      swap1\n      sload\n      swap1\n      0x0100\n      exp\n      swap1\n      div\n      0xffffffffffffffffffffffffffffffffffffffff\n      and\n      0xffffffffffffffffffffffffffffffffffffffff\n      and\n      0xffffffffffffffffffffffffffffffffffffffff\n      and\n      dup2\n      mstore\n      0x20\n      add\n      0x02\n      dup3\n      add\n      0x00\n      swap1\n      sload\n      swap1\n      0x0100\n      exp\n      swap1\n      div\n      0xffffffffffffffffffffffffffffffffffffffff\n      and\n      0xffffffffffffffffffffffffffffffffffffffff\n      and\n      0xffffffffffffffffffffffffffffffffffffffff\n      and\n      dup2\n      mstore\n      0x20\n      add\n      0x03\n      dup3\n      add\n      dup1\n      sload\n      tag_162\n      swap1\n      tag_157\n      jump\t// in\n    tag_162:\n      dup1\n      0x1f\n      add\n      0x20\n      dup1\n      swap2\n      div\n      mul\n      0x20\n      add\n      mload(0x40)\n      swap1\n      dup2\n      add\n      0x40\n      mstore\n      dup1\n      swap3\n      swap2\n      swap1\n      dup2\n      dup2\n      mstore\n      0x20\n      add\n      dup3\n      dup1\n      sload\n      tag_163\n      swap1\n      tag_157\n      jump\t// in\n    tag_163:\n      dup1\n      iszero\n      tag_164\n      jumpi\n      dup1\n      0x1f\n      lt\n      tag_165\n      jumpi\n      0x0100\n      dup1\n      dup4\n      sload\n      div\n      mul\n      dup4\n      mstore\n      swap2\n      0x20\n      add\n      swap2\n      jump(tag_164)\n    tag_165:\n      dup3\n      add\n      swap2\n      swap1\n      0x00\n      mstore\n      keccak256(0x00, 0x20)\n      swap1\n    tag_166:\n      dup2\n      sload\n      dup2\n      mstore\n      swap1\n      0x01\n      add\n      swap1\n      0x20\n      add\n      dup1\n      dup4\n      gt\n      tag_166\n      jumpi\n      dup3\n      swap1\n      sub\n      0x1f\n      and\n      dup3\n      add\n      swap2\n    tag_164:\n      pop\n      pop\n      pop\n      pop\n      pop\n      dup2\n      mstore\n      0x20\n      add\n      0x04\n      dup3\n      add\n      sload\n      dup2\n      mstore\n      0x20\n      add\n      0x05\n      dup3\n      add\n      0x00\n      swap1\n      sload\n      swap1\n      0x0100\n      exp\n      swap1\n      div\n      0xff\n      and\n      iszero\n      iszero\n      iszero\n      iszero\n      dup2\n      mstore\n      0x20\n      add\n      0x06\n      dup3\n      add\n      dup1\n      sload\n      tag_167\n      swap1\n      tag_157\n      jump\t// in\n    tag_167:\n      dup1\n      0x1f\n      add\n      0x20\n      dup1\n      swap2\n      div\n      mul\n      0x20\n      add\n      mload(0x40)\n      swap1\n      dup2\n      add\n      0x40\n      mstore\n      dup1\n      swap3\n      swap2\n      swap1\n      dup2\n      dup2\n      mstore\n      0x20\n      add\n      dup3\n      dup1\n      sload\n      tag_168\n      swap1\n      tag_157\n      jump\t// in\n    tag_168:\n      dup1\n      iszero\n      tag_169\n      jumpi\n      dup1\n      0x1f\n      lt\n      tag_170\n      jumpi\n      0x0100\n      dup1\n      dup4\n      sload\n      div\n      mul\n      dup4\n      mstore\n      swap2\n      0x20\n      add\n      swap2\n      jump(tag_169)\n    tag_170:\n      dup3\n      add\n      swap2\n      swap1\n      0x00\n      mstore\n      keccak256(0x00, 0x20)\n      swap1\n    tag_171:\n      dup2\n      sload\n      dup2\n      mstore\n      swap1\n      0x01\n      add\n      swap1\n      0x20\n      add\n      dup1\n      dup4\n      gt\n      tag_171\n      jumpi\n      dup3\n      swap1\n      sub\n      0x1f\n      and\n      dup3\n      add\n      swap2\n    tag_169:\n      pop\n      pop\n      pop\n      pop\n      pop\n      dup2\n      mstore\n      pop\n      pop\n      swap1\n      pop\n        /* \"contracts/CertificateVerification.sol\":3655:3656  0 */\n      0x00\n        /* \"contracts/CertificateVerification.sol\":3631:3642  certificate */\n      dup2\n        /* \"contracts/CertificateVerification.sol\":3631:3652  certificate.issueDate */\n      0x80\n      add\n      mload\n        /* \"contracts/CertificateVerification.sol\":3631:3656  certificate.issueDate > 0 */\n      gt\n        /* \"contracts/CertificateVerification.sol\":3631:3682  certificate.issueDate > 0 && !certificate.isRevoked */\n      dup1\n      iszero\n      tag_172\n      jumpi\n      pop\n        /* \"contracts/CertificateVerification.sol\":3661:3672  certificate */\n      dup1\n        /* \"contracts/CertificateVerification.sol\":3661:3682  certificate.isRevoked */\n      0xa0\n      add\n      mload\n        /* \"contracts/CertificateVerification.sol\":3660:3682  !certificate.isRevoked */\n      iszero\n        /* \"contracts/CertificateVerification.sol\":3631:3682  certificate.issueDate > 0 && !certificate.isRevoked */\n    tag_172:\n        /* \"contracts/CertificateVerification.sol\":3621:3682  isValid = certificate.issueDate > 0 && !certificate.isRevoked */\n      swap2\n      pop\n        /* \"contracts/CertificateVerification.sol\":3403:3730  function verifyCertificate(string memory certificateId)... */\n      swap2\n      pop\n      swap2\n      jump\t// out\n        /* \"contracts/CertificateVerification.sol\":713:763  mapping(string => Certificate) public certificates */\n    tag_65:\n      0x02\n      dup2\n      dup1\n      mload\n      0x20\n      dup2\n      add\n      dup3\n      add\n      dup1\n      mload\n      dup5\n      dup3\n      mstore\n      0x20\n      dup4\n      add\n      0x20\n      dup6\n      add\n      keccak256\n      dup2\n      dup4\n      mstore\n      dup1\n      swap6\n      pop\n      pop\n      pop\n      pop\n      pop\n      pop\n      0x00\n      swap2\n      pop\n      swap1\n      pop\n      dup1\n      0x00\n      add\n      dup1\n      sload\n      tag_173\n      swap1\n      tag_157\n      jump\t// in\n    tag_173:\n      dup1\n      0x1f\n      add\n      0x20\n      dup1\n      swap2\n      div\n      mul\n      0x20\n      add\n      mload(0x40)\n      swap1\n      dup2\n      add\n      0x40\n      mstore\n      dup1\n      swap3\n      swap2\n      swap1\n      dup2\n      dup2\n      mstore\n      0x20\n      add\n      dup3\n      dup1\n      sload\n      tag_174\n      swap1\n      tag_157\n      jump\t// in\n    tag_174:\n      dup1\n      iszero\n      tag_175\n      jumpi\n      dup1\n      0x1f\n      lt\n      tag_176\n      jumpi\n      0x0100\n      dup1\n      dup4\n      sload\n      div\n      mul\n      dup4\n      mstore\n      swap2\n      0x20\n      add\n      swap2\n      jump(tag_175)\n    tag_176:\n      dup3\n      add\n      swap2\n      swap1\n      0x00\n      mstore\n      keccak256(0x00, 0x20)\n      swap1\n    tag_177:\n      dup2\n      sload\n      dup2\n      mstore\n      swap1\n      0x01\n      add\n      swap1\n      0x20\n      add\n      dup1\n      dup4\n      gt\n      tag_177\n      jumpi\n      dup3\n      swap1\n      sub\n      0x1f\n      and\n      dup3\n      add\n      swap2\n    tag_175:\n      pop\n      pop\n      pop\n      pop\n      pop\n      swap1\n      dup1\n      0x01\n      add\n      0x00\n      swap1\n      sload\n      swap1\n      0x0100\n      exp\n      swap1\n      div\n      0xffffffffffffffffffffffffffffffffffffffff\n      and\n      swap1\n      dup1\n      0x02\n      add\n      0x00\n      swap1\n      sload\n      swap1\n      0x0100\n      exp\n      swap1\n      div\n      0xffffffffffffffffffffffffffffffffffffffff\n      and\n      swap1\n      dup1\n      0x03\n      add\n      dup1\n      sload\n      tag_178\n      swap1\n      tag_157\n      jump\t// in\n    tag_178:\n      dup1\n      0x1f\n      add\n      0x20\n      dup1\n      swap2\n      div\n      mul\n      0x20\n      add\n      mload(0x40)\n      swap1\n      dup2\n      add\n      0x40\n      mstore\n      dup1\n      swap3\n      swap2\n      swap1\n      dup2\n      dup2\n      mstore\n      0x20\n      add\n      dup3\n      dup1\n      sload\n      tag_179\n      swap1\n      tag_157\n      jump\t// in\n    tag_179:\n      dup1\n      iszero\n      tag_180\n      jumpi\n      dup1\n      0x1f\n      lt\n      tag_181\n      jumpi\n      0x0100\n      dup1\n      dup4\n      sload\n      div\n      mul\n      dup4\n      mstore\n      swap2\n      0x20\n      add\n      swap2\n      jump(tag_180)\n    tag_181:\n      dup3\n      add\n      swap2\n      swap1\n      0x00\n      mstore\n      keccak256(0x00, 0x20)\n      swap1\n    tag_182:\n      dup2\n      sload\n      dup2\n      mstore\n      swap1\n      0x01\n      add\n      swap1\n      0x20\n      add\n      dup1\n      dup4\n      gt\n      tag_182\n      jumpi\n      dup3\n      swap1\n      sub\n      0x1f\n      and\n      dup3\n      add\n      swap2\n    tag_180:\n      pop\n      pop\n      pop\n      pop\n      pop\n      swap1\n      dup1\n      0x04\n      add\n      sload\n      swap1\n      dup1\n      0x05\n      add\n      0x00\n      swap1\n      sload\n      swap1\n      0x0100\n      exp\n      swap1\n      div\n      0xff\n      and\n      swap1\n      dup1\n      0x06\n      add\n      dup1\n      sload\n      tag_183\n      swap1\n      tag_157\n      jump\t// in\n    tag_183:\n      dup1\n      0x1f\n      add\n      0x20\n      dup1\n      swap2\n      div\n      mul\n      0x20\n      add\n      mload(0x40)\n      swap1\n      dup2\n      add\n      0x40\n      mstore\n      dup1\n      swap3\n      swap2\n      swap1\n      dup2\n      dup2\n      mstore\n      0x20\n      add\n      dup3\n      dup1\n      sload\n      tag_184\n      swap1\n      tag_157\n      jump\t// in\n    tag_184:\n      dup1\n      iszero\n      tag_185\n      jumpi\n      dup1\n      0x1f\n      lt\n      tag_186\n      jumpi\n      0x0100\n      dup1\n      dup4\n      sload\n      div\n      mul\n      dup4\n      mstore\n      swap2\n      0x20\n      add\n      swap2\n      jump(tag_185)\n    tag_186:\n      dup3\n      add\n      swap2\n      swap1\n      0x00\n      mstore\n      keccak256(0x00, 0x20)\n      swap1\n    tag_187:\n      dup2\n      sload\n      dup2\n      mstore\n      swap1\n      0x01\n      add\n      swap1\n      0x20\n      add\n      dup1\n      dup4\n      gt\n      tag_187\n      jumpi\n      dup3\n      swap1\n      sub\n      0x1f\n      and\n      dup3\n      add\n      swap2\n    tag_185:\n      pop\n      pop\n      pop\n      pop\n      pop\n      swap1\n      pop\n      dup8\n      jump\t// out\n        /* \"@openzeppelin/contracts/access/AccessControl.sol\":3021:3166  function hasRole(bytes32 role, address account) public view virtual override returns (bool) {... */\n    tag_70:\n        /* \"@openzeppelin/contracts/access/AccessControl.sol\":3107:3111  bool */\n      0x00\n        /* \"@openzeppelin/contracts/access/AccessControl.sol\":3130:3136  _roles */\n      dup1\n        /* \"@openzeppelin/contracts/access/AccessControl.sol\":3130:3142  _roles[role] */\n      0x00\n        /* \"@openzeppelin/contracts/access/AccessControl.sol\":3137:3141  role */\n      dup5\n        /* \"@openzeppelin/contracts/access/AccessControl.sol\":3130:3142  _roles[role] */\n      dup2\n      mstore\n      0x20\n      add\n      swap1\n      dup2\n      mstore\n      0x20\n      add\n      0x00\n      keccak256\n        /* \"@openzeppelin/contracts/access/AccessControl.sol\":3130:3150  _roles[role].members */\n      0x00\n      add\n        /* \"@openzeppelin/contracts/access/AccessControl.sol\":3130:3159  _roles[role].members[account] */\n      0x00\n        /* \"@openzeppelin/contracts/access/AccessControl.sol\":3151:3158  account */\n      dup4\n        /* \"@openzeppelin/contracts/access/AccessControl.sol\":3130:3159  _roles[role].members[account] */\n      0xffffffffffffffffffffffffffffffffffffffff\n      and\n      0xffffffffffffffffffffffffffffffffffffffff\n      and\n      dup2\n      mstore\n      0x20\n      add\n      swap1\n      dup2\n      mstore\n      0x20\n      add\n      0x00\n      keccak256\n      0x00\n      swap1\n      sload\n      swap1\n      0x0100\n      exp\n      swap1\n      div\n      0xff\n      and\n        /* \"@openzeppelin/contracts/access/AccessControl.sol\":3123:3159  return _roles[role].members[account] */\n      swap1\n      pop\n        /* \"@openzeppelin/contracts/access/AccessControl.sol\":3021:3166  function hasRole(bytes32 role, address account) public view virtual override returns (bool) {... */\n      swap3\n      swap2\n      pop\n      pop\n      jump\t// out\n        /* \"@openzeppelin/contracts/access/AccessControl.sol\":2153:2202  bytes32 public constant DEFAULT_ADMIN_ROLE = 0x00 */\n    tag_73:\n        /* \"@openzeppelin/contracts/access/AccessControl.sol\":2198:2202  0x00 */\n      0x00\n        /* \"@openzeppelin/contracts/access/AccessControl.sol\":2153:2202  bytes32 public constant DEFAULT_ADMIN_ROLE = 0x00 */\n      dup1\n      shl\n      dup2\n      jump\t// out\n        /* \"@openzeppelin/contracts/access/AccessControl.sol\":5354:5501  function revokeRole(bytes32 role, address account) public virtual override onlyRole(getRoleAdmin(role)) {... */\n    tag_77:\n        /* \"@openzeppelin/contracts/access/AccessControl.sol\":5438:5456  getRoleAdmin(role) */\n      tag_189\n        /* \"@openzeppelin/contracts/access/AccessControl.sol\":5451:5455  role */\n      dup3\n        /* \"@openzeppelin/contracts/access/AccessControl.sol\":5438:5450  getRoleAdmin */\n      tag_34\n        /* \"@openzeppelin/contracts/access/AccessControl.sol\":5438:5456  getRoleAdmin(role) */\n      jump\t// in\n    tag_189:\n        /* \"@openzeppelin/contracts/access/AccessControl.sol\":2631:2647  _checkRole(role) */\n      tag_191\n        /* \"@openzeppelin/contracts/access/AccessControl.sol\":2642:2646  role */\n      dup2\n        /* \"@openzeppelin/contracts/access/AccessControl.sol\":2631:2641  _checkRole */\n      tag_84\n        /* \"@openzeppelin/contracts/access/AccessControl.sol\":2631:2647  _checkRole(role) */\n      jump\t// in\n    tag_191:\n        /* \"@openzeppelin/contracts/access/AccessControl.sol\":5468:5494  _revokeRole(role, account) */\n      tag_193\n        /* \"@openzeppelin/contracts/access/AccessControl.sol\":5480:5484  role */\n      dup4\n        /* \"@openzeppelin/contracts/access/AccessControl.sol\":5486:5493  account */\n      dup4\n        /* \"@openzeppelin/contracts/access/AccessControl.sol\":5468:5479  _revokeRole */\n      tag_115\n        /* \"@openzeppelin/contracts/access/AccessControl.sol\":5468:5494  _revokeRole(role, account) */\n      jump\t// in\n    tag_193:\n        /* \"@openzeppelin/contracts/access/AccessControl.sol\":5354:5501  function revokeRole(bytes32 role, address account) public virtual override onlyRole(getRoleAdmin(role)) {... */\n      pop\n      pop\n      pop\n      jump\t// out\n        /* \"@openzeppelin/contracts/utils/introspection/ERC165.sol\":829:984  function supportsInterface(bytes4 interfaceId) public view virtual override returns (bool) {... */\n    tag_81:\n        /* \"@openzeppelin/contracts/utils/introspection/ERC165.sol\":914:918  bool */\n      0x00\n        /* \"@openzeppelin/contracts/utils/introspection/ERC165.sol\":952:977  type(IERC165).interfaceId */\n      0x01ffc9a700000000000000000000000000000000000000000000000000000000\n        /* \"@openzeppelin/contracts/utils/introspection/ERC165.sol\":937:977  interfaceId == type(IERC165).interfaceId */\n      not(0xffffffffffffffffffffffffffffffffffffffffffffffffffffffff)\n      and\n        /* \"@openzeppelin/contracts/utils/introspection/ERC165.sol\":937:948  interfaceId */\n      dup3\n        /* \"@openzeppelin/contracts/utils/introspection/ERC165.sol\":937:977  interfaceId == type(IERC165).interfaceId */\n      not(0xffffffffffffffffffffffffffffffffffffffffffffffffffffffff)\n      and\n      eq\n        /* \"@openzeppelin/contracts/utils/introspection/ERC165.sol\":930:977  return interfaceId == type(IERC165).interfaceId */\n      swap1\n      pop\n        /* \"@openzeppelin/contracts/utils/introspection/ERC165.sol\":829:984  function supportsInterface(bytes4 interfaceId) public view virtual override returns (bool) {... */\n      swap2\n      swap1\n      pop\n      jump\t// out\n        /* \"@openzeppelin/contracts/access/AccessControl.sol\":3460:3563  function _checkRole(bytes32 role) internal view virtual {... */\n    tag_84:\n        /* \"@openzeppelin/contracts/access/AccessControl.sol\":3526:3556  _checkRole(role, _msgSender()) */\n      tag_196\n        /* \"@openzeppelin/contracts/access/AccessControl.sol\":3537:3541  role */\n      dup2\n        /* \"@openzeppelin/contracts/access/AccessControl.sol\":3543:3555  _msgSender() */\n      tag_197\n        /* \"@openzeppelin/contracts/access/AccessControl.sol\":3543:3553  _msgSender */\n      tag_110\n        /* \"@openzeppelin/contracts/access/AccessControl.sol\":3543:3555  _msgSender() */\n      jump\t// in\n    tag_197:\n        /* \"@openzeppelin/contracts/access/AccessControl.sol\":3526:3536  _checkRole */\n      tag_198\n        /* \"@openzeppelin/contracts/access/AccessControl.sol\":3526:3556  _checkRole(role, _msgSender()) */\n      jump\t// in\n    tag_196:\n        /* \"@openzeppelin/contracts/access/AccessControl.sol\":3460:3563  function _checkRole(bytes32 role) internal view virtual {... */\n      pop\n      jump\t// out\n        /* \"@openzeppelin/contracts/security/Pausable.sol\":1767:1873  function _requireNotPaused() internal view virtual {... */\n    tag_87:\n        /* \"@openzeppelin/contracts/security/Pausable.sol\":1837:1845  paused() */\n      tag_200\n        /* \"@openzeppelin/contracts/security/Pausable.sol\":1837:1843  paused */\n      tag_51\n        /* \"@openzeppelin/contracts/security/Pausable.sol\":1837:1845  paused() */\n      jump\t// in\n    tag_200:\n        /* \"@openzeppelin/contracts/security/Pausable.sol\":1836:1845  !paused() */\n      iszero\n        /* \"@openzeppelin/contracts/security/Pausable.sol\":1828:1866  require(!paused(), \"Pausable: paused\") */\n      tag_201\n      jumpi\n      mload(0x40)\n      0x08c379a000000000000000000000000000000000000000000000000000000000\n      dup2\n      mstore\n      0x04\n      add\n      tag_202\n      swap1\n      tag_203\n      jump\t// in\n    tag_202:\n      mload(0x40)\n      dup1\n      swap2\n      sub\n      swap1\n      revert\n    tag_201:\n        /* \"@openzeppelin/contracts/security/Pausable.sol\":1767:1873  function _requireNotPaused() internal view virtual {... */\n      jump\t// out\n        /* \"@openzeppelin/contracts/access/AccessControl.sol\":7587:7820  function _grantRole(bytes32 role, address account) internal virtual {... */\n    tag_107:\n        /* \"@openzeppelin/contracts/access/AccessControl.sol\":7670:7692  hasRole(role, account) */\n      tag_205\n        /* \"@openzeppelin/contracts/access/AccessControl.sol\":7678:7682  role */\n      dup3\n        /* \"@openzeppelin/contracts/access/AccessControl.sol\":7684:7691  account */\n      dup3\n        /* \"@openzeppelin/contracts/access/AccessControl.sol\":7670:7677  hasRole */\n      tag_70\n        /* \"@openzeppelin/contracts/access/AccessControl.sol\":7670:7692  hasRole(role, account) */\n      jump\t// in\n    tag_205:\n        /* \"@openzeppelin/contracts/access/AccessControl.sol\":7665:7814  if (!hasRole(role, account)) {... */\n      tag_206\n      jumpi\n        /* \"@openzeppelin/contracts/access/AccessControl.sol\":7740:7744  true */\n      0x01\n        /* \"@openzeppelin/contracts/access/AccessControl.sol\":7708:7714  _roles */\n      0x00\n        /* \"@openzeppelin/contracts/access/AccessControl.sol\":7708:7720  _roles[role] */\n      dup1\n        /* \"@openzeppelin/contracts/access/AccessControl.sol\":7715:7719  role */\n      dup5\n        /* \"@openzeppelin/contracts/access/AccessControl.sol\":7708:7720  _roles[role] */\n      dup2\n      mstore\n      0x20\n      add\n      swap1\n      dup2\n      mstore\n      0x20\n      add\n      0x00\n      keccak256\n        /* \"@openzeppelin/contracts/access/AccessControl.sol\":7708:7728  _roles[role].members */\n      0x00\n      add\n        /* \"@openzeppelin/contracts/access/AccessControl.sol\":7708:7737  _roles[role].members[account] */\n      0x00\n        /* \"@openzeppelin/contracts/access/AccessControl.sol\":7729:7736  account */\n      dup4\n        /* \"@openzeppelin/contracts/access/AccessControl.sol\":7708:7737  _roles[role].members[account] */\n      0xffffffffffffffffffffffffffffffffffffffff\n      and\n      0xffffffffffffffffffffffffffffffffffffffff\n      and\n      dup2\n      mstore\n      0x20\n      add\n      swap1\n      dup2\n      mstore\n      0x20\n      add\n      0x00\n      keccak256\n      0x00\n        /* \"@openzeppelin/contracts/access/AccessControl.sol\":7708:7744  _roles[role].members[account] = true */\n      0x0100\n      exp\n      dup2\n      sload\n      dup2\n      0xff\n      mul\n      not\n      and\n      swap1\n      dup4\n      iszero\n      iszero\n      mul\n      or\n      swap1\n      sstore\n      pop\n        /* \"@openzeppelin/contracts/access/AccessControl.sol\":7790:7802  _msgSender() */\n      tag_207\n        /* \"@openzeppelin/contracts/access/AccessControl.sol\":7790:7800  _msgSender */\n      tag_110\n        /* \"@openzeppelin/contracts/access/AccessControl.sol\":7790:7802  _msgSender() */\n      jump\t// in\n    tag_207:\n        /* \"@openzeppelin/contracts/access/AccessControl.sol\":7763:7803  RoleGranted(role, account, _msgSender()) */\n      0xffffffffffffffffffffffffffffffffffffffff\n      and\n        /* \"@openzeppelin/contracts/access/AccessControl.sol\":7781:7788  account */\n      dup2\n        /* \"@openzeppelin/contracts/access/AccessControl.sol\":7763:7803  RoleGranted(role, account, _msgSender()) */\n      0xffffffffffffffffffffffffffffffffffffffff\n      and\n        /* \"@openzeppelin/contracts/access/AccessControl.sol\":7775:7779  role */\n      dup4\n        /* \"@openzeppelin/contracts/access/AccessControl.sol\":7763:7803  RoleGranted(role, account, _msgSender()) */\n      0x2f8788117e7eff1d82e926ec794901d17c78024a50270940304540a733656f0d\n      mload(0x40)\n      mload(0x40)\n      dup1\n      swap2\n      sub\n      swap1\n      log4\n        /* \"@openzeppelin/contracts/access/AccessControl.sol\":7665:7814  if (!hasRole(role, account)) {... */\n    tag_206:\n        /* \"@openzeppelin/contracts/access/AccessControl.sol\":7587:7820  function _grantRole(bytes32 role, address account) internal virtual {... */\n      pop\n      pop\n      jump\t// out\n        /* \"@openzeppelin/contracts/utils/Context.sol\":640:736  function _msgSender() internal view virtual returns (address) {... */\n    tag_110:\n        /* \"@openzeppelin/contracts/utils/Context.sol\":693:700  address */\n      0x00\n        /* \"@openzeppelin/contracts/utils/Context.sol\":719:729  msg.sender */\n      caller\n        /* \"@openzeppelin/contracts/utils/Context.sol\":712:729  return msg.sender */\n      swap1\n      pop\n        /* \"@openzeppelin/contracts/utils/Context.sol\":640:736  function _msgSender() internal view virtual returns (address) {... */\n      swap1\n      jump\t// out\n        /* \"@openzeppelin/contracts/access/AccessControl.sol\":7991:8225  function _revokeRole(bytes32 role, address account) internal virtual {... */\n    tag_115:\n        /* \"@openzeppelin/contracts/access/AccessControl.sol\":8074:8096  hasRole(role, account) */\n      tag_210\n        /* \"@openzeppelin/contracts/access/AccessControl.sol\":8082:8086  role */\n      dup3\n        /* \"@openzeppelin/contracts/access/AccessControl.sol\":8088:8095  account */\n      dup3\n        /* \"@openzeppelin/contracts/access/AccessControl.sol\":8074:8081  hasRole */\n      tag_70\n        /* \"@openzeppelin/contracts/access/AccessControl.sol\":8074:8096  hasRole(role, account) */\n      jump\t// in\n    tag_210:\n        /* \"@openzeppelin/contracts/access/AccessControl.sol\":8070:8219  if (hasRole(role, account)) {... */\n      iszero\n      tag_211\n      jumpi\n        /* \"@openzeppelin/contracts/access/AccessControl.sol\":8144:8149  false */\n      0x00\n        /* \"@openzeppelin/contracts/access/AccessControl.sol\":8112:8118  _roles */\n      dup1\n        /* \"@openzeppelin/contracts/access/AccessControl.sol\":8112:8124  _roles[role] */\n      0x00\n        /* \"@openzeppelin/contracts/access/AccessControl.sol\":8119:8123  role */\n      dup5\n        /* \"@openzeppelin/contracts/access/AccessControl.sol\":8112:8124  _roles[role] */\n      dup2\n      mstore\n      0x20\n      add\n      swap1\n      dup2\n      mstore\n      0x20\n      add\n      0x00\n      keccak256\n        /* \"@openzeppelin/contracts/access/AccessControl.sol\":8112:8132  _roles[role].members */\n      0x00\n      add\n        /* \"@openzeppelin/contracts/access/AccessControl.sol\":8112:8141  _roles[role].members[account] */\n      0x00\n        /* \"@openzeppelin/contracts/access/AccessControl.sol\":8133:8140  account */\n      dup4\n        /* \"@openzeppelin/contracts/access/AccessControl.sol\":8112:8141  _roles[role].members[account] */\n      0xffffffffffffffffffffffffffffffffffffffff\n      and\n      0xffffffffffffffffffffffffffffffffffffffff\n      and\n      dup2\n      mstore\n      0x20\n      add\n      swap1\n      dup2\n      mstore\n      0x20\n      add\n      0x00\n      keccak256\n      0x00\n        /* \"@openzeppelin/contracts/access/AccessControl.sol\":8112:8149  _roles[role].members[account] = false */\n      0x0100\n      exp\n      dup2\n      sload\n      dup2\n      0xff\n      mul\n      not\n      and\n      swap1\n      dup4\n      iszero\n      iszero\n      mul\n      or\n      swap1\n      sstore\n      pop\n        /* \"@openzeppelin/contracts/access/AccessControl.sol\":8195:8207  _msgSender() */\n      tag_212\n        /* \"@openzeppelin/contracts/access/AccessControl.sol\":8195:8205  _msgSender */\n      tag_110\n        /* \"@openzeppelin/contracts/access/AccessControl.sol\":8195:8207  _msgSender() */\n      jump\t// in\n    tag_212:\n        /* \"@openzeppelin/contracts/access/AccessControl.sol\":8168:8208  RoleRevoked(role, account, _msgSender()) */\n      0xffffffffffffffffffffffffffffffffffffffff\n      and\n        /* \"@openzeppelin/contracts/access/AccessControl.sol\":8186:8193  account */\n      dup2\n        /* \"@openzeppelin/contracts/access/AccessControl.sol\":8168:8208  RoleRevoked(role, account, _msgSender()) */\n      0xffffffffffffffffffffffffffffffffffffffff\n      and\n        /* \"@openzeppelin/contracts/access/AccessControl.sol\":8180:8184  role */\n      dup4\n        /* \"@openzeppelin/contracts/access/AccessControl.sol\":8168:8208  RoleRevoked(role, account, _msgSender()) */\n      0xf6391f5c32d9c69d2a47ea670b442974b53935d1edc7fd64eb21e047a839171b\n      mload(0x40)\n      mload(0x40)\n      dup1\n      swap2\n      sub\n      swap1\n      log4\n        /* \"@openzeppelin/contracts/access/AccessControl.sol\":8070:8219  if (hasRole(role, account)) {... */\n    tag_211:\n        /* \"@openzeppelin/contracts/access/AccessControl.sol\":7991:8225  function _revokeRole(bytes32 role, address account) internal virtual {... */\n      pop\n      pop\n      jump\t// out\n        /* \"@openzeppelin/contracts/security/Pausable.sol\":2433:2550  function _unpause() internal virtual whenPaused {... */\n    tag_145:\n        /* \"@openzeppelin/contracts/security/Pausable.sol\":1486:1502  _requirePaused() */\n      tag_214\n        /* \"@openzeppelin/contracts/security/Pausable.sol\":1486:1500  _requirePaused */\n      tag_215\n        /* \"@openzeppelin/contracts/security/Pausable.sol\":1486:1502  _requirePaused() */\n      jump\t// in\n    tag_214:\n        /* \"@openzeppelin/contracts/security/Pausable.sol\":2501:2506  false */\n      0x00\n        /* \"@openzeppelin/contracts/security/Pausable.sol\":2491:2498  _paused */\n      0x01\n      0x00\n        /* \"@openzeppelin/contracts/security/Pausable.sol\":2491:2506  _paused = false */\n      0x0100\n      exp\n      dup2\n      sload\n      dup2\n      0xff\n      mul\n      not\n      and\n      swap1\n      dup4\n      iszero\n      iszero\n      mul\n      or\n      swap1\n      sstore\n      pop\n        /* \"@openzeppelin/contracts/security/Pausable.sol\":2521:2543  Unpaused(_msgSender()) */\n      0x5db9ee0a495bf2e6ff9c91a7834c1ba4fdd244a5e8aa4e537bd38aeae4b073aa\n        /* \"@openzeppelin/contracts/security/Pausable.sol\":2530:2542  _msgSender() */\n      tag_217\n        /* \"@openzeppelin/contracts/security/Pausable.sol\":2530:2540  _msgSender */\n      tag_110\n        /* \"@openzeppelin/contracts/security/Pausable.sol\":2530:2542  _msgSender() */\n      jump\t// in\n    tag_217:\n        /* \"@openzeppelin/contracts/security/Pausable.sol\":2521:2543  Unpaused(_msgSender()) */\n      mload(0x40)\n      tag_218\n      swap2\n      swap1\n      tag_219\n      jump\t// in\n    tag_218:\n      mload(0x40)\n      dup1\n      swap2\n      sub\n      swap1\n      log1\n        /* \"@openzeppelin/contracts/security/Pausable.sol\":2433:2550  function _unpause() internal virtual whenPaused {... */\n      jump\t// out\n        /* \"@openzeppelin/contracts/security/Pausable.sol\":2186:2301  function _pause() internal virtual whenNotPaused {... */\n    tag_151:\n        /* \"@openzeppelin/contracts/security/Pausable.sol\":1239:1258  _requireNotPaused() */\n      tag_221\n        /* \"@openzeppelin/contracts/security/Pausable.sol\":1239:1256  _requireNotPaused */\n      tag_87\n        /* \"@openzeppelin/contracts/security/Pausable.sol\":1239:1258  _requireNotPaused() */\n      jump\t// in\n    tag_221:\n        /* \"@openzeppelin/contracts/security/Pausable.sol\":2255:2259  true */\n      0x01\n        /* \"@openzeppelin/contracts/security/Pausable.sol\":2245:2252  _paused */\n      dup1\n      0x00\n        /* \"@openzeppelin/contracts/security/Pausable.sol\":2245:2259  _paused = true */\n      0x0100\n      exp\n      dup2\n      sload\n      dup2\n      0xff\n      mul\n      not\n      and\n      swap1\n      dup4\n      iszero\n      iszero\n      mul\n      or\n      swap1\n      sstore\n      pop\n        /* \"@openzeppelin/contracts/security/Pausable.sol\":2274:2294  Paused(_msgSender()) */\n      0x62e78cea01bee320cd4e420270b5ea74000d11b0c9f74754ebdbfc544b05a258\n        /* \"@openzeppelin/contracts/security/Pausable.sol\":2281:2293  _msgSender() */\n      tag_223\n        /* \"@openzeppelin/contracts/security/Pausable.sol\":2281:2291  _msgSender */\n      tag_110\n        /* \"@openzeppelin/contracts/security/Pausable.sol\":2281:2293  _msgSender() */\n      jump\t// in\n    tag_223:\n        /* \"@openzeppelin/contracts/security/Pausable.sol\":2274:2294  Paused(_msgSender()) */\n      mload(0x40)\n      tag_224\n      swap2\n      swap1\n      tag_219\n      jump\t// in\n    tag_224:\n      mload(0x40)\n      dup1\n      swap2\n      sub\n      swap1\n      log1\n        /* \"@openzeppelin/contracts/security/Pausable.sol\":2186:2301  function _pause() internal virtual whenNotPaused {... */\n      jump\t// out\n        /* \"@openzeppelin/contracts/access/AccessControl.sol\":3844:4323  function _checkRole(bytes32 role, address account) internal view virtual {... */\n    tag_198:\n        /* \"@openzeppelin/contracts/access/AccessControl.sol\":3932:3954  hasRole(role, account) */\n      tag_226\n        /* \"@openzeppelin/contracts/access/AccessControl.sol\":3940:3944  role */\n      dup3\n        /* \"@openzeppelin/contracts/access/AccessControl.sol\":3946:3953  account */\n      dup3\n        /* \"@openzeppelin/contracts/access/AccessControl.sol\":3932:3939  hasRole */\n      tag_70\n        /* \"@openzeppelin/contracts/access/AccessControl.sol\":3932:3954  hasRole(role, account) */\n      jump\t// in\n    tag_226:\n        /* \"@openzeppelin/contracts/access/AccessControl.sol\":3927:4317  if (!hasRole(role, account)) {... */\n      tag_227\n      jumpi\n        /* \"@openzeppelin/contracts/access/AccessControl.sol\":4115:4143  Strings.toHexString(account) */\n      tag_228\n        /* \"@openzeppelin/contracts/access/AccessControl.sol\":4135:4142  account */\n      dup2\n        /* \"@openzeppelin/contracts/access/AccessControl.sol\":4115:4134  Strings.toHexString */\n      tag_229\n        /* \"@openzeppelin/contracts/access/AccessControl.sol\":4115:4143  Strings.toHexString(account) */\n      jump\t// in\n    tag_228:\n        /* \"@openzeppelin/contracts/access/AccessControl.sol\":4214:4252  Strings.toHexString(uint256(role), 32) */\n      tag_230\n        /* \"@openzeppelin/contracts/access/AccessControl.sol\":4242:4246  role */\n      dup4\n        /* \"@openzeppelin/contracts/access/AccessControl.sol\":4234:4247  uint256(role) */\n      0x00\n      shr\n        /* \"@openzeppelin/contracts/access/AccessControl.sol\":4249:4251  32 */\n      0x20\n        /* \"@openzeppelin/contracts/access/AccessControl.sol\":4214:4233  Strings.toHexString */\n      tag_231\n        /* \"@openzeppelin/contracts/access/AccessControl.sol\":4214:4252  Strings.toHexString(uint256(role), 32) */\n      jump\t// in\n    tag_230:\n        /* \"@openzeppelin/contracts/access/AccessControl.sol\":4022:4274  abi.encodePacked(... */\n      add(0x20, mload(0x40))\n      tag_232\n      swap3\n      swap2\n      swap1\n      tag_233\n      jump\t// in\n    tag_232:\n      mload(0x40)\n      0x20\n      dup2\n      dup4\n      sub\n      sub\n      dup2\n      mstore\n      swap1\n      0x40\n      mstore\n        /* \"@openzeppelin/contracts/access/AccessControl.sol\":3970:4306  revert(... */\n      mload(0x40)\n      0x08c379a000000000000000000000000000000000000000000000000000000000\n      dup2\n      mstore\n      0x04\n      add\n      tag_234\n      swap2\n      swap1\n      tag_100\n      jump\t// in\n    tag_234:\n      mload(0x40)\n      dup1\n      swap2\n      sub\n      swap1\n      revert\n        /* \"@openzeppelin/contracts/access/AccessControl.sol\":3927:4317  if (!hasRole(role, account)) {... */\n    tag_227:\n        /* \"@openzeppelin/contracts/access/AccessControl.sol\":3844:4323  function _checkRole(bytes32 role, address account) internal view virtual {... */\n      pop\n      pop\n      jump\t// out\n        /* \"@openzeppelin/contracts/security/Pausable.sol\":1945:2051  function _requirePaused() internal view virtual {... */\n    tag_215:\n        /* \"@openzeppelin/contracts/security/Pausable.sol\":2011:2019  paused() */\n      tag_236\n        /* \"@openzeppelin/contracts/security/Pausable.sol\":2011:2017  paused */\n      tag_51\n        /* \"@openzeppelin/contracts/security/Pausable.sol\":2011:2019  paused() */\n      jump\t// in\n    tag_236:\n        /* \"@openzeppelin/contracts/security/Pausable.sol\":2003:2044  require(paused(), \"Pausable: not paused\") */\n      tag_237\n      jumpi\n      mload(0x40)\n      0x08c379a000000000000000000000000000000000000000000000000000000000\n      dup2\n      mstore\n      0x04\n      add\n      tag_238\n      swap1\n      tag_239\n      jump\t// in\n    tag_238:\n      mload(0x40)\n      dup1\n      swap2\n      sub\n      swap1\n      revert\n    tag_237:\n        /* \"@openzeppelin/contracts/security/Pausable.sol\":1945:2051  function _requirePaused() internal view virtual {... */\n      jump\t// out\n        /* \"@openzeppelin/contracts/utils/Strings.sol\":2407:2556  function toHexString(address addr) internal pure returns (string memory) {... */\n    tag_229:\n        /* \"@openzeppelin/contracts/utils/Strings.sol\":2465:2478  string memory */\n      0x60\n        /* \"@openzeppelin/contracts/utils/Strings.sol\":2497:2549  toHexString(uint256(uint160(addr)), _ADDRESS_LENGTH) */\n      tag_241\n        /* \"@openzeppelin/contracts/utils/Strings.sol\":2525:2529  addr */\n      dup3\n        /* \"@openzeppelin/contracts/utils/Strings.sol\":2509:2531  uint256(uint160(addr)) */\n      0xffffffffffffffffffffffffffffffffffffffff\n      and\n        /* \"@openzeppelin/contracts/utils/Strings.sol\":343:345  20 */\n      0x14\n        /* \"@openzeppelin/contracts/utils/Strings.sol\":2497:2549  toHexString(uint256(uint160(addr)), _ADDRESS_LENGTH) */\n      0xff\n      and\n        /* \"@openzeppelin/contracts/utils/Strings.sol\":2497:2508  toHexString */\n      tag_231\n        /* \"@openzeppelin/contracts/utils/Strings.sol\":2497:2549  toHexString(uint256(uint160(addr)), _ADDRESS_LENGTH) */\n      jump\t// in\n    tag_241:\n        /* \"@openzeppelin/contracts/utils/Strings.sol\":2490:2549  return toHexString(uint256(uint160(addr)), _ADDRESS_LENGTH) */\n      swap1\n      pop\n        /* \"@openzeppelin/contracts/utils/Strings.sol\":2407:2556  function toHexString(address addr) internal pure returns (string memory) {... */\n      swap2\n      swap1\n      pop\n      jump\t// out\n        /* \"@openzeppelin/contracts/utils/Strings.sol\":1818:2255  function toHexString(uint256 value, uint256 length) internal pure returns (string memory) {... */\n    tag_231:\n        /* \"@openzeppelin/contracts/utils/Strings.sol\":1893:1906  string memory */\n      0x60\n        /* \"@openzeppelin/contracts/utils/Strings.sol\":1918:1937  bytes memory buffer */\n      0x00\n        /* \"@openzeppelin/contracts/utils/Strings.sol\":1963:1964  2 */\n      0x02\n        /* \"@openzeppelin/contracts/utils/Strings.sol\":1954:1960  length */\n      dup4\n        /* \"@openzeppelin/contracts/utils/Strings.sol\":1950:1951  2 */\n      0x02\n        /* \"@openzeppelin/contracts/utils/Strings.sol\":1950:1960  2 * length */\n      tag_243\n      swap2\n      swap1\n      tag_244\n      jump\t// in\n    tag_243:\n        /* \"@openzeppelin/contracts/utils/Strings.sol\":1950:1964  2 * length + 2 */\n      tag_245\n      swap2\n      swap1\n      tag_246\n      jump\t// in\n    tag_245:\n        /* \"@openzeppelin/contracts/utils/Strings.sol\":1940:1965  new bytes(2 * length + 2) */\n      0xffffffffffffffff\n      dup2\n      gt\n      iszero\n      tag_247\n      jumpi\n      tag_248\n      tag_249\n      jump\t// in\n    tag_248:\n    tag_247:\n      mload(0x40)\n      swap1\n      dup1\n      dup3\n      mstore\n      dup1\n      0x1f\n      add\n      not(0x1f)\n      and\n      0x20\n      add\n      dup3\n      add\n      0x40\n      mstore\n      dup1\n      iszero\n      tag_250\n      jumpi\n      dup2\n      0x20\n      add\n      0x01\n      dup3\n      mul\n      dup1\n      calldatasize\n      dup4\n      calldatacopy\n      dup1\n      dup3\n      add\n      swap2\n      pop\n      pop\n      swap1\n      pop\n    tag_250:\n      pop\n        /* \"@openzeppelin/contracts/utils/Strings.sol\":1918:1965  bytes memory buffer = new bytes(2 * length + 2) */\n      swap1\n      pop\n        /* \"@openzeppelin/contracts/utils/Strings.sol\":1975:1990  buffer[0] = \"0\" */\n      0x3000000000000000000000000000000000000000000000000000000000000000\n        /* \"@openzeppelin/contracts/utils/Strings.sol\":1975:1981  buffer */\n      dup2\n        /* \"@openzeppelin/contracts/utils/Strings.sol\":1982:1983  0 */\n      0x00\n        /* \"@openzeppelin/contracts/utils/Strings.sol\":1975:1984  buffer[0] */\n      dup2\n      mload\n      dup2\n      lt\n      tag_251\n      jumpi\n      tag_252\n      tag_253\n      jump\t// in\n    tag_252:\n    tag_251:\n      0x20\n      add\n      add\n        /* \"@openzeppelin/contracts/utils/Strings.sol\":1975:1990  buffer[0] = \"0\" */\n      swap1\n      not(0xffffffffffffffffffffffffffffffffffffffffffffffffffffffffffffff)\n      and\n      swap1\n      dup2\n      0x00\n      byte\n      swap1\n      mstore8\n      pop\n        /* \"@openzeppelin/contracts/utils/Strings.sol\":2000:2015  buffer[1] = \"x\" */\n      0x7800000000000000000000000000000000000000000000000000000000000000\n        /* \"@openzeppelin/contracts/utils/Strings.sol\":2000:2006  buffer */\n      dup2\n        /* \"@openzeppelin/contracts/utils/Strings.sol\":2007:2008  1 */\n      0x01\n        /* \"@openzeppelin/contracts/utils/Strings.sol\":2000:2009  buffer[1] */\n      dup2\n      mload\n      dup2\n      lt\n      tag_254\n      jumpi\n      tag_255\n      tag_253\n      jump\t// in\n    tag_255:\n    tag_254:\n      0x20\n      add\n      add\n        /* \"@openzeppelin/contracts/utils/Strings.sol\":2000:2015  buffer[1] = \"x\" */\n      swap1\n      not(0xffffffffffffffffffffffffffffffffffffffffffffffffffffffffffffff)\n      and\n      swap1\n      dup2\n      0x00\n      byte\n      swap1\n      mstore8\n      pop\n        /* \"@openzeppelin/contracts/utils/Strings.sol\":2030:2039  uint256 i */\n      0x00\n        /* \"@openzeppelin/contracts/utils/Strings.sol\":2055:2056  1 */\n      0x01\n        /* \"@openzeppelin/contracts/utils/Strings.sol\":2046:2052  length */\n      dup5\n        /* \"@openzeppelin/contracts/utils/Strings.sol\":2042:2043  2 */\n      0x02\n        /* \"@openzeppelin/contracts/utils/Strings.sol\":2042:2052  2 * length */\n      tag_259\n      swap2\n      swap1\n      tag_244\n      jump\t// in\n    tag_259:\n        /* \"@openzeppelin/contracts/utils/Strings.sol\":2042:2056  2 * length + 1 */\n      tag_260\n      swap2\n      swap1\n      tag_246\n      jump\t// in\n    tag_260:\n        /* \"@openzeppelin/contracts/utils/Strings.sol\":2030:2056  uint256 i = 2 * length + 1 */\n      swap1\n      pop\n        /* \"@openzeppelin/contracts/utils/Strings.sol\":2025:2153  for (uint256 i = 2 * length + 1; i > 1; --i) {... */\n    tag_256:\n        /* \"@openzeppelin/contracts/utils/Strings.sol\":2062:2063  1 */\n      0x01\n        /* \"@openzeppelin/contracts/utils/Strings.sol\":2058:2059  i */\n      dup2\n        /* \"@openzeppelin/contracts/utils/Strings.sol\":2058:2063  i > 1 */\n      gt\n        /* \"@openzeppelin/contracts/utils/Strings.sol\":2025:2153  for (uint256 i = 2 * length + 1; i > 1; --i) {... */\n      iszero\n      tag_257\n      jumpi\n        /* \"@openzeppelin/contracts/utils/Strings.sol\":2096:2104  _SYMBOLS */\n      0x3031323334353637383961626364656600000000000000000000000000000000\n        /* \"@openzeppelin/contracts/utils/Strings.sol\":2113:2116  0xf */\n      0x0f\n        /* \"@openzeppelin/contracts/utils/Strings.sol\":2105:2110  value */\n      dup7\n        /* \"@openzeppelin/contracts/utils/Strings.sol\":2105:2116  value & 0xf */\n      and\n        /* \"@openzeppelin/contracts/utils/Strings.sol\":2096:2117  _SYMBOLS[value & 0xf] */\n      0x10\n      dup2\n      lt\n      tag_261\n      jumpi\n      tag_262\n      tag_253\n      jump\t// in\n    tag_262:\n    tag_261:\n      byte\n      0xf8\n      shl\n        /* \"@openzeppelin/contracts/utils/Strings.sol\":2084:2090  buffer */\n      dup3\n        /* \"@openzeppelin/contracts/utils/Strings.sol\":2091:2092  i */\n      dup3\n        /* \"@openzeppelin/contracts/utils/Strings.sol\":2084:2093  buffer[i] */\n      dup2\n      mload\n      dup2\n      lt\n      tag_263\n      jumpi\n      tag_264\n      tag_253\n      jump\t// in\n    tag_264:\n    tag_263:\n      0x20\n      add\n      add\n        /* \"@openzeppelin/contracts/utils/Strings.sol\":2084:2117  buffer[i] = _SYMBOLS[value & 0xf] */\n      swap1\n      not(0xffffffffffffffffffffffffffffffffffffffffffffffffffffffffffffff)\n      and\n      swap1\n      dup2\n      0x00\n      byte\n      swap1\n      mstore8\n      pop\n        /* \"@openzeppelin/contracts/utils/Strings.sol\":2141:2142  4 */\n      0x04\n        /* \"@openzeppelin/contracts/utils/Strings.sol\":2131:2142  value >>= 4 */\n      dup6\n      swap1\n      shr\n      swap5\n      pop\n        /* \"@openzeppelin/contracts/utils/Strings.sol\":2065:2068  --i */\n      dup1\n      tag_265\n      swap1\n      tag_266\n      jump\t// in\n    tag_265:\n      swap1\n      pop\n        /* \"@openzeppelin/contracts/utils/Strings.sol\":2025:2153  for (uint256 i = 2 * length + 1; i > 1; --i) {... */\n      jump(tag_256)\n    tag_257:\n      pop\n        /* \"@openzeppelin/contracts/utils/Strings.sol\":2179:2180  0 */\n      0x00\n        /* \"@openzeppelin/contracts/utils/Strings.sol\":2170:2175  value */\n      dup5\n        /* \"@openzeppelin/contracts/utils/Strings.sol\":2170:2180  value == 0 */\n      eq\n        /* \"@openzeppelin/contracts/utils/Strings.sol\":2162:2217  require(value == 0, \"Strings: hex length insufficient\") */\n      tag_267\n      jumpi\n      mload(0x40)\n      0x08c379a000000000000000000000000000000000000000000000000000000000\n      dup2\n      mstore\n      0x04\n      add\n      tag_268\n      swap1\n      tag_269\n      jump\t// in\n    tag_268:\n      mload(0x40)\n      dup1\n      swap2\n      sub\n      swap1\n      revert\n    tag_267:\n        /* \"@openzeppelin/contracts/utils/Strings.sol\":2241:2247  buffer */\n      dup1\n        /* \"@openzeppelin/contracts/utils/Strings.sol\":2227:2248  return string(buffer) */\n      swap2\n      pop\n      pop\n        /* \"@openzeppelin/contracts/utils/Strings.sol\":1818:2255  function toHexString(uint256 value, uint256 length) internal pure returns (string memory) {... */\n      swap3\n      swap2\n      pop\n      pop\n      jump\t// out\n    tag_153:\n      mload(0x40)\n      dup1\n      0xe0\n      add\n      0x40\n      mstore\n      dup1\n      0x60\n      dup2\n      mstore\n      0x20\n      add\n      and(0xffffffffffffffffffffffffffffffffffffffff, 0x00)\n      dup2\n      mstore\n      0x20\n      add\n      and(0xffffffffffffffffffffffffffffffffffffffff, 0x00)\n      dup2\n      mstore\n      0x20\n      add\n      0x60\n      dup2\n      mstore\n      0x20\n      add\n      0x00\n      dup2\n      mstore\n      0x20\n      add\n      iszero(iszero(0x00))\n      dup2\n      mstore\n      0x20\n      add\n      0x60\n      dup2\n      mstore\n      pop\n      swap1\n      jump\t// out\n        /* \"#utility.yul\":7:82   */\n    tag_270:\n        /* \"#utility.yul\":40:46   */\n      0x00\n        /* \"#utility.yul\":73:75   */\n      0x40\n        /* \"#utility.yul\":67:76   */\n      mload\n        /* \"#utility.yul\":57:76   */\n      swap1\n      pop\n        /* \"#utility.yul\":7:82   */\n      swap1\n      jump\t// out\n        /* \"#utility.yul\":88:205   */\n    tag_271:\n        /* \"#utility.yul\":197:198   */\n      0x00\n        /* \"#utility.yul\":194:195   */\n      dup1\n        /* \"#utility.yul\":187:199   */\n      revert\n        /* \"#utility.yul\":211:328   */\n    tag_272:\n        /* \"#utility.yul\":320:321   */\n      0x00\n        /* \"#utility.yul\":317:318   */\n      dup1\n        /* \"#utility.yul\":310:322   */\n      revert\n        /* \"#utility.yul\":334:483   */\n    tag_273:\n        /* \"#utility.yul\":370:377   */\n      0x00\n        /* \"#utility.yul\":410:476   */\n      0xffffffff00000000000000000000000000000000000000000000000000000000\n        /* \"#utility.yul\":403:408   */\n      dup3\n        /* \"#utility.yul\":399:477   */\n      and\n        /* \"#utility.yul\":388:477   */\n      swap1\n      pop\n        /* \"#utility.yul\":334:483   */\n      swap2\n      swap1\n      pop\n      jump\t// out\n        /* \"#utility.yul\":489:609   */\n    tag_274:\n        /* \"#utility.yul\":561:584   */\n      tag_357\n        /* \"#utility.yul\":578:583   */\n      dup2\n        /* \"#utility.yul\":561:584   */\n      tag_273\n      jump\t// in\n    tag_357:\n        /* \"#utility.yul\":554:559   */\n      dup2\n        /* \"#utility.yul\":551:585   */\n      eq\n        /* \"#utility.yul\":541:603   */\n      tag_358\n      jumpi\n        /* \"#utility.yul\":599:600   */\n      0x00\n        /* \"#utility.yul\":596:597   */\n      dup1\n        /* \"#utility.yul\":589:601   */\n      revert\n        /* \"#utility.yul\":541:603   */\n    tag_358:\n        /* \"#utility.yul\":489:609   */\n      pop\n      jump\t// out\n        /* \"#utility.yul\":615:752   */\n    tag_275:\n        /* \"#utility.yul\":660:665   */\n      0x00\n        /* \"#utility.yul\":698:704   */\n      dup2\n        /* \"#utility.yul\":685:705   */\n      calldataload\n        /* \"#utility.yul\":676:705   */\n      swap1\n      pop\n        /* \"#utility.yul\":714:746   */\n      tag_360\n        /* \"#utility.yul\":740:745   */\n      dup2\n        /* \"#utility.yul\":714:746   */\n      tag_274\n      jump\t// in\n    tag_360:\n        /* \"#utility.yul\":615:752   */\n      swap3\n      swap2\n      pop\n      pop\n      jump\t// out\n        /* \"#utility.yul\":758:1085   */\n    tag_23:\n        /* \"#utility.yul\":816:822   */\n      0x00\n        /* \"#utility.yul\":865:867   */\n      0x20\n        /* \"#utility.yul\":853:862   */\n      dup3\n        /* \"#utility.yul\":844:851   */\n      dup5\n        /* \"#utility.yul\":840:863   */\n      sub\n        /* \"#utility.yul\":836:868   */\n      slt\n        /* \"#utility.yul\":833:952   */\n      iszero\n      tag_362\n      jumpi\n        /* \"#utility.yul\":871:950   */\n      tag_363\n      tag_271\n      jump\t// in\n    tag_363:\n        /* \"#utility.yul\":833:952   */\n    tag_362:\n        /* \"#utility.yul\":991:992   */\n      0x00\n        /* \"#utility.yul\":1016:1068   */\n      tag_364\n        /* \"#utility.yul\":1060:1067   */\n      dup5\n        /* \"#utility.yul\":1051:1057   */\n      dup3\n        /* \"#utility.yul\":1040:1049   */\n      dup6\n        /* \"#utility.yul\":1036:1058   */\n      add\n        /* \"#utility.yul\":1016:1068   */\n      tag_275\n      jump\t// in\n    tag_364:\n        /* \"#utility.yul\":1006:1068   */\n      swap2\n      pop\n        /* \"#utility.yul\":962:1078   */\n      pop\n        /* \"#utility.yul\":758:1085   */\n      swap3\n      swap2\n      pop\n      pop\n      jump\t// out\n        /* \"#utility.yul\":1091:1181   */\n    tag_276:\n        /* \"#utility.yul\":1125:1132   */\n      0x00\n        /* \"#utility.yul\":1168:1173   */\n      dup2\n        /* \"#utility.yul\":1161:1174   */\n      iszero\n        /* \"#utility.yul\":1154:1175   */\n      iszero\n        /* \"#utility.yul\":1143:1175   */\n      swap1\n      pop\n        /* \"#utility.yul\":1091:1181   */\n      swap2\n      swap1\n      pop\n      jump\t// out\n        /* \"#utility.yul\":1187:1296   */\n    tag_277:\n        /* \"#utility.yul\":1268:1289   */\n      tag_367\n        /* \"#utility.yul\":1283:1288   */\n      dup2\n        /* \"#utility.yul\":1268:1289   */\n      tag_276\n      jump\t// in\n    tag_367:\n        /* \"#utility.yul\":1263:1266   */\n      dup3\n        /* \"#utility.yul\":1256:1290   */\n      mstore\n        /* \"#utility.yul\":1187:1296   */\n      pop\n      pop\n      jump\t// out\n        /* \"#utility.yul\":1302:1512   */\n    tag_26:\n        /* \"#utility.yul\":1389:1393   */\n      0x00\n        /* \"#utility.yul\":1427:1429   */\n      0x20\n        /* \"#utility.yul\":1416:1425   */\n      dup3\n        /* \"#utility.yul\":1412:1430   */\n      add\n        /* \"#utility.yul\":1404:1430   */\n      swap1\n      pop\n        /* \"#utility.yul\":1440:1505   */\n      tag_369\n        /* \"#utility.yul\":1502:1503   */\n      0x00\n        /* \"#utility.yul\":1491:1500   */\n      dup4\n        /* \"#utility.yul\":1487:1504   */\n      add\n        /* \"#utility.yul\":1478:1484   */\n      dup5\n        /* \"#utility.yul\":1440:1505   */\n      tag_277\n      jump\t// in\n    tag_369:\n        /* \"#utility.yul\":1302:1512   */\n      swap3\n      swap2\n      pop\n      pop\n      jump\t// out\n        /* \"#utility.yul\":1518:1635   */\n    tag_278:\n        /* \"#utility.yul\":1627:1628   */\n      0x00\n        /* \"#utility.yul\":1624:1625   */\n      dup1\n        /* \"#utility.yul\":1617:1629   */\n      revert\n        /* \"#utility.yul\":1641:1758   */\n    tag_279:\n        /* \"#utility.yul\":1750:1751   */\n      0x00\n        /* \"#utility.yul\":1747:1748   */\n      dup1\n        /* \"#utility.yul\":1740:1752   */\n      revert\n        /* \"#utility.yul\":1764:1866   */\n    tag_280:\n        /* \"#utility.yul\":1805:1811   */\n      0x00\n        /* \"#utility.yul\":1856:1858   */\n      0x1f\n        /* \"#utility.yul\":1852:1859   */\n      not\n        /* \"#utility.yul\":1847:1849   */\n      0x1f\n        /* \"#utility.yul\":1840:1845   */\n      dup4\n        /* \"#utility.yul\":1836:1850   */\n      add\n        /* \"#utility.yul\":1832:1860   */\n      and\n        /* \"#utility.yul\":1822:1860   */\n      swap1\n      pop\n        /* \"#utility.yul\":1764:1866   */\n      swap2\n      swap1\n      pop\n      jump\t// out\n        /* \"#utility.yul\":1872:2052   */\n    tag_249:\n        /* \"#utility.yul\":1920:1997   */\n      0x4e487b7100000000000000000000000000000000000000000000000000000000\n        /* \"#utility.yul\":1917:1918   */\n      0x00\n        /* \"#utility.yul\":1910:1998   */\n      mstore\n        /* \"#utility.yul\":2017:2021   */\n      0x41\n        /* \"#utility.yul\":2014:2015   */\n      0x04\n        /* \"#utility.yul\":2007:2022   */\n      mstore\n        /* \"#utility.yul\":2041:2045   */\n      0x24\n        /* \"#utility.yul\":2038:2039   */\n      0x00\n        /* \"#utility.yul\":2031:2046   */\n      revert\n        /* \"#utility.yul\":2058:2339   */\n    tag_281:\n        /* \"#utility.yul\":2141:2168   */\n      tag_375\n        /* \"#utility.yul\":2163:2167   */\n      dup3\n        /* \"#utility.yul\":2141:2168   */\n      tag_280\n      jump\t// in\n    tag_375:\n        /* \"#utility.yul\":2133:2139   */\n      dup2\n        /* \"#utility.yul\":2129:2169   */\n      add\n        /* \"#utility.yul\":2271:2277   */\n      dup2\n        /* \"#utility.yul\":2259:2269   */\n      dup2\n        /* \"#utility.yul\":2256:2278   */\n      lt\n        /* \"#utility.yul\":2235:2253   */\n      0xffffffffffffffff\n        /* \"#utility.yul\":2223:2233   */\n      dup3\n        /* \"#utility.yul\":2220:2254   */\n      gt\n        /* \"#utility.yul\":2217:2279   */\n      or\n        /* \"#utility.yul\":2214:2302   */\n      iszero\n      tag_376\n      jumpi\n        /* \"#utility.yul\":2282:2300   */\n      tag_377\n      tag_249\n      jump\t// in\n    tag_377:\n        /* \"#utility.yul\":2214:2302   */\n    tag_376:\n        /* \"#utility.yul\":2322:2332   */\n      dup1\n        /* \"#utility.yul\":2318:2320   */\n      0x40\n        /* \"#utility.yul\":2311:2333   */\n      mstore\n        /* \"#utility.yul\":2101:2339   */\n      pop\n        /* \"#utility.yul\":2058:2339   */\n      pop\n      pop\n      jump\t// out\n        /* \"#utility.yul\":2345:2474   */\n    tag_282:\n        /* \"#utility.yul\":2379:2385   */\n      0x00\n        /* \"#utility.yul\":2406:2426   */\n      tag_379\n      tag_270\n      jump\t// in\n    tag_379:\n        /* \"#utility.yul\":2396:2426   */\n      swap1\n      pop\n        /* \"#utility.yul\":2435:2468   */\n      tag_380\n        /* \"#utility.yul\":2463:2467   */\n      dup3\n        /* \"#utility.yul\":2455:2461   */\n      dup3\n        /* \"#utility.yul\":2435:2468   */\n      tag_281\n      jump\t// in\n    tag_380:\n        /* \"#utility.yul\":2345:2474   */\n      swap2\n      swap1\n      pop\n      jump\t// out\n        /* \"#utility.yul\":2480:2788   */\n    tag_283:\n        /* \"#utility.yul\":2542:2546   */\n      0x00\n        /* \"#utility.yul\":2632:2650   */\n      0xffffffffffffffff\n        /* \"#utility.yul\":2624:2630   */\n      dup3\n        /* \"#utility.yul\":2621:2651   */\n      gt\n        /* \"#utility.yul\":2618:2674   */\n      iszero\n      tag_382\n      jumpi\n        /* \"#utility.yul\":2654:2672   */\n      tag_383\n      tag_249\n      jump\t// in\n    tag_383:\n        /* \"#utility.yul\":2618:2674   */\n    tag_382:\n        /* \"#utility.yul\":2692:2721   */\n      tag_384\n        /* \"#utility.yul\":2714:2720   */\n      dup3\n        /* \"#utility.yul\":2692:2721   */\n      tag_280\n      jump\t// in\n    tag_384:\n        /* \"#utility.yul\":2684:2721   */\n      swap1\n      pop\n        /* \"#utility.yul\":2776:2780   */\n      0x20\n        /* \"#utility.yul\":2770:2774   */\n      dup2\n        /* \"#utility.yul\":2766:2781   */\n      add\n        /* \"#utility.yul\":2758:2781   */\n      swap1\n      pop\n        /* \"#utility.yul\":2480:2788   */\n      swap2\n      swap1\n      pop\n      jump\t// out\n        /* \"#utility.yul\":2794:2942   */\n    tag_284:\n        /* \"#utility.yul\":2892:2898   */\n      dup3\n        /* \"#utility.yul\":2887:2890   */\n      dup2\n        /* \"#utility.yul\":2882:2885   */\n      dup4\n        /* \"#utility.yul\":2869:2899   */\n      calldatacopy\n        /* \"#utility.yul\":2933:2934   */\n      0x00\n        /* \"#utility.yul\":2924:2930   */\n      dup4\n        /* \"#utility.yul\":2919:2922   */\n      dup4\n        /* \"#utility.yul\":2915:2931   */\n      add\n        /* \"#utility.yul\":2908:2935   */\n      mstore\n        /* \"#utility.yul\":2794:2942   */\n      pop\n      pop\n      pop\n      jump\t// out\n        /* \"#utility.yul\":2948:3373   */\n    tag_285:\n        /* \"#utility.yul\":3026:3031   */\n      0x00\n        /* \"#utility.yul\":3051:3117   */\n      tag_387\n        /* \"#utility.yul\":3067:3116   */\n      tag_388\n        /* \"#utility.yul\":3109:3115   */\n      dup5\n        /* \"#utility.yul\":3067:3116   */\n      tag_283\n      jump\t// in\n    tag_388:\n        /* \"#utility.yul\":3051:3117   */\n      tag_282\n      jump\t// in\n    tag_387:\n        /* \"#utility.yul\":3042:3117   */\n      swap1\n      pop\n        /* \"#utility.yul\":3140:3146   */\n      dup3\n        /* \"#utility.yul\":3133:3138   */\n      dup2\n        /* \"#utility.yul\":3126:3147   */\n      mstore\n        /* \"#utility.yul\":3178:3182   */\n      0x20\n        /* \"#utility.yul\":3171:3176   */\n      dup2\n        /* \"#utility.yul\":3167:3183   */\n      add\n        /* \"#utility.yul\":3216:3219   */\n      dup5\n        /* \"#utility.yul\":3207:3213   */\n      dup5\n        /* \"#utility.yul\":3202:3205   */\n      dup5\n        /* \"#utility.yul\":3198:3214   */\n      add\n        /* \"#utility.yul\":3195:3220   */\n      gt\n        /* \"#utility.yul\":3192:3304   */\n      iszero\n      tag_389\n      jumpi\n        /* \"#utility.yul\":3223:3302   */\n      tag_390\n      tag_279\n      jump\t// in\n    tag_390:\n        /* \"#utility.yul\":3192:3304   */\n    tag_389:\n        /* \"#utility.yul\":3313:3367   */\n      tag_391\n        /* \"#utility.yul\":3360:3366   */\n      dup5\n        /* \"#utility.yul\":3355:3358   */\n      dup3\n        /* \"#utility.yul\":3350:3353   */\n      dup6\n        /* \"#utility.yul\":3313:3367   */\n      tag_284\n      jump\t// in\n    tag_391:\n        /* \"#utility.yul\":3032:3373   */\n      pop\n        /* \"#utility.yul\":2948:3373   */\n      swap4\n      swap3\n      pop\n      pop\n      pop\n      jump\t// out\n        /* \"#utility.yul\":3393:3733   */\n    tag_286:\n        /* \"#utility.yul\":3449:3454   */\n      0x00\n        /* \"#utility.yul\":3498:3501   */\n      dup3\n        /* \"#utility.yul\":3491:3495   */\n      0x1f\n        /* \"#utility.yul\":3483:3489   */\n      dup4\n        /* \"#utility.yul\":3479:3496   */\n      add\n        /* \"#utility.yul\":3475:3502   */\n      slt\n        /* \"#utility.yul\":3465:3587   */\n      tag_393\n      jumpi\n        /* \"#utility.yul\":3506:3585   */\n      tag_394\n      tag_278\n      jump\t// in\n    tag_394:\n        /* \"#utility.yul\":3465:3587   */\n    tag_393:\n        /* \"#utility.yul\":3623:3629   */\n      dup2\n        /* \"#utility.yul\":3610:3630   */\n      calldataload\n        /* \"#utility.yul\":3648:3727   */\n      tag_395\n        /* \"#utility.yul\":3723:3726   */\n      dup5\n        /* \"#utility.yul\":3715:3721   */\n      dup3\n        /* \"#utility.yul\":3708:3712   */\n      0x20\n        /* \"#utility.yul\":3700:3706   */\n      dup7\n        /* \"#utility.yul\":3696:3713   */\n      add\n        /* \"#utility.yul\":3648:3727   */\n      tag_285\n      jump\t// in\n    tag_395:\n        /* \"#utility.yul\":3639:3727   */\n      swap2\n      pop\n        /* \"#utility.yul\":3455:3733   */\n      pop\n        /* \"#utility.yul\":3393:3733   */\n      swap3\n      swap2\n      pop\n      pop\n      jump\t// out\n        /* \"#utility.yul\":3739:4248   */\n    tag_29:\n        /* \"#utility.yul\":3808:3814   */\n      0x00\n        /* \"#utility.yul\":3857:3859   */\n      0x20\n        /* \"#utility.yul\":3845:3854   */\n      dup3\n        /* \"#utility.yul\":3836:3843   */\n      dup5\n        /* \"#utility.yul\":3832:3855   */\n      sub\n        /* \"#utility.yul\":3828:3860   */\n      slt\n        /* \"#utility.yul\":3825:3944   */\n      iszero\n      tag_397\n      jumpi\n        /* \"#utility.yul\":3863:3942   */\n      tag_398\n      tag_271\n      jump\t// in\n    tag_398:\n        /* \"#utility.yul\":3825:3944   */\n    tag_397:\n        /* \"#utility.yul\":4011:4012   */\n      0x00\n        /* \"#utility.yul\":4000:4009   */\n      dup3\n        /* \"#utility.yul\":3996:4013   */\n      add\n        /* \"#utility.yul\":3983:4014   */\n      calldataload\n        /* \"#utility.yul\":4041:4059   */\n      0xffffffffffffffff\n        /* \"#utility.yul\":4033:4039   */\n      dup2\n        /* \"#utility.yul\":4030:4060   */\n      gt\n        /* \"#utility.yul\":4027:4144   */\n      iszero\n      tag_399\n      jumpi\n        /* \"#utility.yul\":4063:4142   */\n      tag_400\n      tag_272\n      jump\t// in\n    tag_400:\n        /* \"#utility.yul\":4027:4144   */\n    tag_399:\n        /* \"#utility.yul\":4168:4231   */\n      tag_401\n        /* \"#utility.yul\":4223:4230   */\n      dup5\n        /* \"#utility.yul\":4214:4220   */\n      dup3\n        /* \"#utility.yul\":4203:4212   */\n      dup6\n        /* \"#utility.yul\":4199:4221   */\n      add\n        /* \"#utility.yul\":4168:4231   */\n      tag_286\n      jump\t// in\n    tag_401:\n        /* \"#utility.yul\":4158:4231   */\n      swap2\n      pop\n        /* \"#utility.yul\":3954:4241   */\n      pop\n        /* \"#utility.yul\":3739:4248   */\n      swap3\n      swap2\n      pop\n      pop\n      jump\t// out\n        /* \"#utility.yul\":4254:4331   */\n    tag_287:\n        /* \"#utility.yul\":4291:4298   */\n      0x00\n        /* \"#utility.yul\":4320:4325   */\n      dup2\n        /* \"#utility.yul\":4309:4325   */\n      swap1\n      pop\n        /* \"#utility.yul\":4254:4331   */\n      swap2\n      swap1\n      pop\n      jump\t// out\n        /* \"#utility.yul\":4337:4459   */\n    tag_288:\n        /* \"#utility.yul\":4410:4434   */\n      tag_404\n        /* \"#utility.yul\":4428:4433   */\n      dup2\n        /* \"#utility.yul\":4410:4434   */\n      tag_287\n      jump\t// in\n    tag_404:\n        /* \"#utility.yul\":4403:4408   */\n      dup2\n        /* \"#utility.yul\":4400:4435   */\n      eq\n        /* \"#utility.yul\":4390:4453   */\n      tag_405\n      jumpi\n        /* \"#utility.yul\":4449:4450   */\n      0x00\n        /* \"#utility.yul\":4446:4447   */\n      dup1\n        /* \"#utility.yul\":4439:4451   */\n      revert\n        /* \"#utility.yul\":4390:4453   */\n    tag_405:\n        /* \"#utility.yul\":4337:4459   */\n      pop\n      jump\t// out\n        /* \"#utility.yul\":4465:4604   */\n    tag_289:\n        /* \"#utility.yul\":4511:4516   */\n      0x00\n        /* \"#utility.yul\":4549:4555   */\n      dup2\n        /* \"#utility.yul\":4536:4556   */\n      calldataload\n        /* \"#utility.yul\":4527:4556   */\n      swap1\n      pop\n        /* \"#utility.yul\":4565:4598   */\n      tag_407\n        /* \"#utility.yul\":4592:4597   */\n      dup2\n        /* \"#utility.yul\":4565:4598   */\n      tag_288\n      jump\t// in\n    tag_407:\n        /* \"#utility.yul\":4465:4604   */\n      swap3\n      swap2\n      pop\n      pop\n      jump\t// out\n        /* \"#utility.yul\":4610:4939   */\n    tag_33:\n        /* \"#utility.yul\":4669:4675   */\n      0x00\n        /* \"#utility.yul\":4718:4720   */\n      0x20\n        /* \"#utility.yul\":4706:4715   */\n      dup3\n        /* \"#utility.yul\":4697:4704   */\n      dup5\n        /* \"#utility.yul\":4693:4716   */\n      sub\n        /* \"#utility.yul\":4689:4721   */\n      slt\n        /* \"#utility.yul\":4686:4805   */\n      iszero\n      tag_409\n      jumpi\n        /* \"#utility.yul\":4724:4803   */\n      tag_410\n      tag_271\n      jump\t// in\n    tag_410:\n        /* \"#utility.yul\":4686:4805   */\n    tag_409:\n        /* \"#utility.yul\":4844:4845   */\n      0x00\n        /* \"#utility.yul\":4869:4922   */\n      tag_411\n        /* \"#utility.yul\":4914:4921   */\n      dup5\n        /* \"#utility.yul\":4905:4911   */\n      dup3\n        /* \"#utility.yul\":4894:4903   */\n      dup6\n        /* \"#utility.yul\":4890:4912   */\n      add\n        /* \"#utility.yul\":4869:4922   */\n      tag_289\n      jump\t// in\n    tag_411:\n        /* \"#utility.yul\":4859:4922   */\n      swap2\n      pop\n        /* \"#utility.yul\":4815:4932   */\n      pop\n        /* \"#utility.yul\":4610:4939   */\n      swap3\n      swap2\n      pop\n      pop\n      jump\t// out\n        /* \"#utility.yul\":4945:5063   */\n    tag_290:\n        /* \"#utility.yul\":5032:5056   */\n      tag_413\n        /* \"#utility.yul\":5050:5055   */\n      dup2\n        /* \"#utility.yul\":5032:5056   */\n      tag_287\n      jump\t// in\n    tag_413:\n        /* \"#utility.yul\":5027:5030   */\n      dup3\n        /* \"#utility.yul\":5020:5057   */\n      mstore\n        /* \"#utility.yul\":4945:5063   */\n      pop\n      pop\n      jump\t// out\n        /* \"#utility.yul\":5069:5291   */\n    tag_36:\n        /* \"#utility.yul\":5162:5166   */\n      0x00\n        /* \"#utility.yul\":5200:5202   */\n      0x20\n        /* \"#utility.yul\":5189:5198   */\n      dup3\n        /* \"#utility.yul\":5185:5203   */\n      add\n        /* \"#utility.yul\":5177:5203   */\n      swap1\n      pop\n        /* \"#utility.yul\":5213:5284   */\n      tag_415\n        /* \"#utility.yul\":5281:5282   */\n      0x00\n        /* \"#utility.yul\":5270:5279   */\n      dup4\n        /* \"#utility.yul\":5266:5283   */\n      add\n        /* \"#utility.yul\":5257:5263   */\n      dup5\n        /* \"#utility.yul\":5213:5284   */\n      tag_290\n      jump\t// in\n    tag_415:\n        /* \"#utility.yul\":5069:5291   */\n      swap3\n      swap2\n      pop\n      pop\n      jump\t// out\n        /* \"#utility.yul\":5297:5423   */\n    tag_291:\n        /* \"#utility.yul\":5334:5341   */\n      0x00\n        /* \"#utility.yul\":5374:5416   */\n      0xffffffffffffffffffffffffffffffffffffffff\n        /* \"#utility.yul\":5367:5372   */\n      dup3\n        /* \"#utility.yul\":5363:5417   */\n      and\n        /* \"#utility.yul\":5352:5417   */\n      swap1\n      pop\n        /* \"#utility.yul\":5297:5423   */\n      swap2\n      swap1\n      pop\n      jump\t// out\n        /* \"#utility.yul\":5429:5525   */\n    tag_292:\n        /* \"#utility.yul\":5466:5473   */\n      0x00\n        /* \"#utility.yul\":5495:5519   */\n      tag_418\n        /* \"#utility.yul\":5513:5518   */\n      dup3\n        /* \"#utility.yul\":5495:5519   */\n      tag_291\n      jump\t// in\n    tag_418:\n        /* \"#utility.yul\":5484:5519   */\n      swap1\n      pop\n        /* \"#utility.yul\":5429:5525   */\n      swap2\n      swap1\n      pop\n      jump\t// out\n        /* \"#utility.yul\":5531:5653   */\n    tag_293:\n        /* \"#utility.yul\":5604:5628   */\n      tag_420\n        /* \"#utility.yul\":5622:5627   */\n      dup2\n        /* \"#utility.yul\":5604:5628   */\n      tag_292\n      jump\t// in\n    tag_420:\n        /* \"#utility.yul\":5597:5602   */\n      dup2\n        /* \"#utility.yul\":5594:5629   */\n      eq\n        /* \"#utility.yul\":5584:5647   */\n      tag_421\n      jumpi\n        /* \"#utility.yul\":5643:5644   */\n      0x00\n        /* \"#utility.yul\":5640:5641   */\n      dup1\n        /* \"#utility.yul\":5633:5645   */\n      revert\n        /* \"#utility.yul\":5584:5647   */\n    tag_421:\n        /* \"#utility.yul\":5531:5653   */\n      pop\n      jump\t// out\n        /* \"#utility.yul\":5659:5798   */\n    tag_294:\n        /* \"#utility.yul\":5705:5710   */\n      0x00\n        /* \"#utility.yul\":5743:5749   */\n      dup2\n        /* \"#utility.yul\":5730:5750   */\n      calldataload\n        /* \"#utility.yul\":5721:5750   */\n      swap1\n      pop\n        /* \"#utility.yul\":5759:5792   */\n      tag_423\n        /* \"#utility.yul\":5786:5791   */\n      dup2\n        /* \"#utility.yul\":5759:5792   */\n      tag_293\n      jump\t// in\n    tag_423:\n        /* \"#utility.yul\":5659:5798   */\n      swap3\n      swap2\n      pop\n      pop\n      jump\t// out\n        /* \"#utility.yul\":5804:6278   */\n    tag_39:\n        /* \"#utility.yul\":5872:5878   */\n      0x00\n        /* \"#utility.yul\":5880:5886   */\n      dup1\n        /* \"#utility.yul\":5929:5931   */\n      0x40\n        /* \"#utility.yul\":5917:5926   */\n      dup4\n        /* \"#utility.yul\":5908:5915   */\n      dup6\n        /* \"#utility.yul\":5904:5927   */\n      sub\n        /* \"#utility.yul\":5900:5932   */\n      slt\n        /* \"#utility.yul\":5897:6016   */\n      iszero\n      tag_425\n      jumpi\n        /* \"#utility.yul\":5935:6014   */\n      tag_426\n      tag_271\n      jump\t// in\n    tag_426:\n        /* \"#utility.yul\":5897:6016   */\n    tag_425:\n        /* \"#utility.yul\":6055:6056   */\n      0x00\n        /* \"#utility.yul\":6080:6133   */\n      tag_427\n        /* \"#utility.yul\":6125:6132   */\n      dup6\n        /* \"#utility.yul\":6116:6122   */\n      dup3\n        /* \"#utility.yul\":6105:6114   */\n      dup7\n        /* \"#utility.yul\":6101:6123   */\n      add\n        /* \"#utility.yul\":6080:6133   */\n      tag_289\n      jump\t// in\n    tag_427:\n        /* \"#utility.yul\":6070:6133   */\n      swap3\n      pop\n        /* \"#utility.yul\":6026:6143   */\n      pop\n        /* \"#utility.yul\":6182:6184   */\n      0x20\n        /* \"#utility.yul\":6208:6261   */\n      tag_428\n        /* \"#utility.yul\":6253:6260   */\n      dup6\n        /* \"#utility.yul\":6244:6250   */\n      dup3\n        /* \"#utility.yul\":6233:6242   */\n      dup7\n        /* \"#utility.yul\":6229:6251   */\n      add\n        /* \"#utility.yul\":6208:6261   */\n      tag_294\n      jump\t// in\n    tag_428:\n        /* \"#utility.yul\":6198:6261   */\n      swap2\n      pop\n        /* \"#utility.yul\":6153:6271   */\n      pop\n        /* \"#utility.yul\":5804:6278   */\n      swap3\n      pop\n      swap3\n      swap1\n      pop\n      jump\t// out\n        /* \"#utility.yul\":6284:7589   */\n    tag_46:\n        /* \"#utility.yul\":6400:6406   */\n      0x00\n        /* \"#utility.yul\":6408:6414   */\n      dup1\n        /* \"#utility.yul\":6416:6422   */\n      0x00\n        /* \"#utility.yul\":6424:6430   */\n      dup1\n        /* \"#utility.yul\":6473:6476   */\n      0x80\n        /* \"#utility.yul\":6461:6470   */\n      dup6\n        /* \"#utility.yul\":6452:6459   */\n      dup8\n        /* \"#utility.yul\":6448:6471   */\n      sub\n        /* \"#utility.yul\":6444:6477   */\n      slt\n        /* \"#utility.yul\":6441:6561   */\n      iszero\n      tag_430\n      jumpi\n        /* \"#utility.yul\":6480:6559   */\n      tag_431\n      tag_271\n      jump\t// in\n    tag_431:\n        /* \"#utility.yul\":6441:6561   */\n    tag_430:\n        /* \"#utility.yul\":6628:6629   */\n      0x00\n        /* \"#utility.yul\":6617:6626   */\n      dup6\n        /* \"#utility.yul\":6613:6630   */\n      add\n        /* \"#utility.yul\":6600:6631   */\n      calldataload\n        /* \"#utility.yul\":6658:6676   */\n      0xffffffffffffffff\n        /* \"#utility.yul\":6650:6656   */\n      dup2\n        /* \"#utility.yul\":6647:6677   */\n      gt\n        /* \"#utility.yul\":6644:6761   */\n      iszero\n      tag_432\n      jumpi\n        /* \"#utility.yul\":6680:6759   */\n      tag_433\n      tag_272\n      jump\t// in\n    tag_433:\n        /* \"#utility.yul\":6644:6761   */\n    tag_432:\n        /* \"#utility.yul\":6785:6848   */\n      tag_434\n        /* \"#utility.yul\":6840:6847   */\n      dup8\n        /* \"#utility.yul\":6831:6837   */\n      dup3\n        /* \"#utility.yul\":6820:6829   */\n      dup9\n        /* \"#utility.yul\":6816:6838   */\n      add\n        /* \"#utility.yul\":6785:6848   */\n      tag_286\n      jump\t// in\n    tag_434:\n        /* \"#utility.yul\":6775:6848   */\n      swap5\n      pop\n        /* \"#utility.yul\":6571:6858   */\n      pop\n        /* \"#utility.yul\":6897:6899   */\n      0x20\n        /* \"#utility.yul\":6923:6976   */\n      tag_435\n        /* \"#utility.yul\":6968:6975   */\n      dup8\n        /* \"#utility.yul\":6959:6965   */\n      dup3\n        /* \"#utility.yul\":6948:6957   */\n      dup9\n        /* \"#utility.yul\":6944:6966   */\n      add\n        /* \"#utility.yul\":6923:6976   */\n      tag_294\n      jump\t// in\n    tag_435:\n        /* \"#utility.yul\":6913:6976   */\n      swap4\n      pop\n        /* \"#utility.yul\":6868:6986   */\n      pop\n        /* \"#utility.yul\":7053:7055   */\n      0x40\n        /* \"#utility.yul\":7042:7051   */\n      dup6\n        /* \"#utility.yul\":7038:7056   */\n      add\n        /* \"#utility.yul\":7025:7057   */\n      calldataload\n        /* \"#utility.yul\":7084:7102   */\n      0xffffffffffffffff\n        /* \"#utility.yul\":7076:7082   */\n      dup2\n        /* \"#utility.yul\":7073:7103   */\n      gt\n        /* \"#utility.yul\":7070:7187   */\n      iszero\n      tag_436\n      jumpi\n        /* \"#utility.yul\":7106:7185   */\n      tag_437\n      tag_272\n      jump\t// in\n    tag_437:\n        /* \"#utility.yul\":7070:7187   */\n    tag_436:\n        /* \"#utility.yul\":7211:7274   */\n      tag_438\n        /* \"#utility.yul\":7266:7273   */\n      dup8\n        /* \"#utility.yul\":7257:7263   */\n      dup3\n        /* \"#utility.yul\":7246:7255   */\n      dup9\n        /* \"#utility.yul\":7242:7264   */\n      add\n        /* \"#utility.yul\":7211:7274   */\n      tag_286\n      jump\t// in\n    tag_438:\n        /* \"#utility.yul\":7201:7274   */\n      swap3\n      pop\n        /* \"#utility.yul\":6996:7284   */\n      pop\n        /* \"#utility.yul\":7351:7353   */\n      0x60\n        /* \"#utility.yul\":7340:7349   */\n      dup6\n        /* \"#utility.yul\":7336:7354   */\n      add\n        /* \"#utility.yul\":7323:7355   */\n      calldataload\n        /* \"#utility.yul\":7382:7400   */\n      0xffffffffffffffff\n        /* \"#utility.yul\":7374:7380   */\n      dup2\n        /* \"#utility.yul\":7371:7401   */\n      gt\n        /* \"#utility.yul\":7368:7485   */\n      iszero\n      tag_439\n      jumpi\n        /* \"#utility.yul\":7404:7483   */\n      tag_440\n      tag_272\n      jump\t// in\n    tag_440:\n        /* \"#utility.yul\":7368:7485   */\n    tag_439:\n        /* \"#utility.yul\":7509:7572   */\n      tag_441\n        /* \"#utility.yul\":7564:7571   */\n      dup8\n        /* \"#utility.yul\":7555:7561   */\n      dup3\n        /* \"#utility.yul\":7544:7553   */\n      dup9\n        /* \"#utility.yul\":7540:7562   */\n      add\n        /* \"#utility.yul\":7509:7572   */\n      tag_286\n      jump\t// in\n    tag_441:\n        /* \"#utility.yul\":7499:7572   */\n      swap2\n      pop\n        /* \"#utility.yul\":7294:7582   */\n      pop\n        /* \"#utility.yul\":6284:7589   */\n      swap3\n      swap6\n      swap2\n      swap5\n      pop\n      swap3\n      pop\n      jump\t// out\n        /* \"#utility.yul\":7595:7694   */\n    tag_295:\n        /* \"#utility.yul\":7647:7653   */\n      0x00\n        /* \"#utility.yul\":7681:7686   */\n      dup2\n        /* \"#utility.yul\":7675:7687   */\n      mload\n        /* \"#utility.yul\":7665:7687   */\n      swap1\n      pop\n        /* \"#utility.yul\":7595:7694   */\n      swap2\n      swap1\n      pop\n      jump\t// out\n        /* \"#utility.yul\":7700:7859   */\n    tag_296:\n        /* \"#utility.yul\":7774:7785   */\n      0x00\n        /* \"#utility.yul\":7808:7814   */\n      dup3\n        /* \"#utility.yul\":7803:7806   */\n      dup3\n        /* \"#utility.yul\":7796:7815   */\n      mstore\n        /* \"#utility.yul\":7848:7852   */\n      0x20\n        /* \"#utility.yul\":7843:7846   */\n      dup3\n        /* \"#utility.yul\":7839:7853   */\n      add\n        /* \"#utility.yul\":7824:7853   */\n      swap1\n      pop\n        /* \"#utility.yul\":7700:7859   */\n      swap3\n      swap2\n      pop\n      pop\n      jump\t// out\n        /* \"#utility.yul\":7865:8004   */\n    tag_297:\n        /* \"#utility.yul\":7954:7960   */\n      dup3\n        /* \"#utility.yul\":7949:7952   */\n      dup2\n        /* \"#utility.yul\":7944:7947   */\n      dup4\n        /* \"#utility.yul\":7938:7961   */\n      mcopy\n        /* \"#utility.yul\":7995:7996   */\n      0x00\n        /* \"#utility.yul\":7986:7992   */\n      dup4\n        /* \"#utility.yul\":7981:7984   */\n      dup4\n        /* \"#utility.yul\":7977:7993   */\n      add\n        /* \"#utility.yul\":7970:7997   */\n      mstore\n        /* \"#utility.yul\":7865:8004   */\n      pop\n      pop\n      pop\n      jump\t// out\n        /* \"#utility.yul\":8010:8367   */\n    tag_298:\n        /* \"#utility.yul\":8088:8091   */\n      0x00\n        /* \"#utility.yul\":8116:8155   */\n      tag_446\n        /* \"#utility.yul\":8149:8154   */\n      dup3\n        /* \"#utility.yul\":8116:8155   */\n      tag_295\n      jump\t// in\n    tag_446:\n        /* \"#utility.yul\":8171:8232   */\n      tag_447\n        /* \"#utility.yul\":8225:8231   */\n      dup2\n        /* \"#utility.yul\":8220:8223   */\n      dup6\n        /* \"#utility.yul\":8171:8232   */\n      tag_296\n      jump\t// in\n    tag_447:\n        /* \"#utility.yul\":8164:8232   */\n      swap4\n      pop\n        /* \"#utility.yul\":8241:8306   */\n      tag_448\n        /* \"#utility.yul\":8299:8305   */\n      dup2\n        /* \"#utility.yul\":8294:8297   */\n      dup6\n        /* \"#utility.yul\":8287:8291   */\n      0x20\n        /* \"#utility.yul\":8280:8285   */\n      dup7\n        /* \"#utility.yul\":8276:8292   */\n      add\n        /* \"#utility.yul\":8241:8306   */\n      tag_297\n      jump\t// in\n    tag_448:\n        /* \"#utility.yul\":8331:8360   */\n      tag_449\n        /* \"#utility.yul\":8353:8359   */\n      dup2\n        /* \"#utility.yul\":8331:8360   */\n      tag_280\n      jump\t// in\n    tag_449:\n        /* \"#utility.yul\":8326:8329   */\n      dup5\n        /* \"#utility.yul\":8322:8361   */\n      add\n        /* \"#utility.yul\":8315:8361   */\n      swap2\n      pop\n        /* \"#utility.yul\":8092:8367   */\n      pop\n        /* \"#utility.yul\":8010:8367   */\n      swap3\n      swap2\n      pop\n      pop\n      jump\t// out\n        /* \"#utility.yul\":8373:8481   */\n    tag_299:\n        /* \"#utility.yul\":8450:8474   */\n      tag_451\n        /* \"#utility.yul\":8468:8473   */\n      dup2\n        /* \"#utility.yul\":8450:8474   */\n      tag_292\n      jump\t// in\n    tag_451:\n        /* \"#utility.yul\":8445:8448   */\n      dup3\n        /* \"#utility.yul\":8438:8475   */\n      mstore\n        /* \"#utility.yul\":8373:8481   */\n      pop\n      pop\n      jump\t// out\n        /* \"#utility.yul\":8487:8564   */\n    tag_300:\n        /* \"#utility.yul\":8524:8531   */\n      0x00\n        /* \"#utility.yul\":8553:8558   */\n      dup2\n        /* \"#utility.yul\":8542:8558   */\n      swap1\n      pop\n        /* \"#utility.yul\":8487:8564   */\n      swap2\n      swap1\n      pop\n      jump\t// out\n        /* \"#utility.yul\":8570:8678   */\n    tag_301:\n        /* \"#utility.yul\":8647:8671   */\n      tag_454\n        /* \"#utility.yul\":8665:8670   */\n      dup2\n        /* \"#utility.yul\":8647:8671   */\n      tag_300\n      jump\t// in\n    tag_454:\n        /* \"#utility.yul\":8642:8645   */\n      dup3\n        /* \"#utility.yul\":8635:8672   */\n      mstore\n        /* \"#utility.yul\":8570:8678   */\n      pop\n      pop\n      jump\t// out\n        /* \"#utility.yul\":8684:8783   */\n    tag_302:\n        /* \"#utility.yul\":8755:8776   */\n      tag_456\n        /* \"#utility.yul\":8770:8775   */\n      dup2\n        /* \"#utility.yul\":8755:8776   */\n      tag_276\n      jump\t// in\n    tag_456:\n        /* \"#utility.yul\":8750:8753   */\n      dup3\n        /* \"#utility.yul\":8743:8777   */\n      mstore\n        /* \"#utility.yul\":8684:8783   */\n      pop\n      pop\n      jump\t// out\n        /* \"#utility.yul\":8885:10544   */\n    tag_303:\n        /* \"#utility.yul\":9012:9015   */\n      0x00\n        /* \"#utility.yul\":9048:9052   */\n      0xe0\n        /* \"#utility.yul\":9043:9046   */\n      dup4\n        /* \"#utility.yul\":9039:9053   */\n      add\n        /* \"#utility.yul\":9144:9148   */\n      0x00\n        /* \"#utility.yul\":9137:9142   */\n      dup4\n        /* \"#utility.yul\":9133:9149   */\n      add\n        /* \"#utility.yul\":9127:9150   */\n      mload\n        /* \"#utility.yul\":9197:9200   */\n      dup5\n        /* \"#utility.yul\":9191:9195   */\n      dup3\n        /* \"#utility.yul\":9187:9201   */\n      sub\n        /* \"#utility.yul\":9180:9184   */\n      0x00\n        /* \"#utility.yul\":9175:9178   */\n      dup7\n        /* \"#utility.yul\":9171:9185   */\n      add\n        /* \"#utility.yul\":9164:9202   */\n      mstore\n        /* \"#utility.yul\":9223:9296   */\n      tag_458\n        /* \"#utility.yul\":9291:9295   */\n      dup3\n        /* \"#utility.yul\":9277:9289   */\n      dup3\n        /* \"#utility.yul\":9223:9296   */\n      tag_298\n      jump\t// in\n    tag_458:\n        /* \"#utility.yul\":9215:9296   */\n      swap2\n      pop\n        /* \"#utility.yul\":9063:9307   */\n      pop\n        /* \"#utility.yul\":9391:9395   */\n      0x20\n        /* \"#utility.yul\":9384:9389   */\n      dup4\n        /* \"#utility.yul\":9380:9396   */\n      add\n        /* \"#utility.yul\":9374:9397   */\n      mload\n        /* \"#utility.yul\":9410:9473   */\n      tag_459\n        /* \"#utility.yul\":9467:9471   */\n      0x20\n        /* \"#utility.yul\":9462:9465   */\n      dup7\n        /* \"#utility.yul\":9458:9472   */\n      add\n        /* \"#utility.yul\":9444:9456   */\n      dup3\n        /* \"#utility.yul\":9410:9473   */\n      tag_299\n      jump\t// in\n    tag_459:\n        /* \"#utility.yul\":9317:9483   */\n      pop\n        /* \"#utility.yul\":9575:9579   */\n      0x40\n        /* \"#utility.yul\":9568:9573   */\n      dup4\n        /* \"#utility.yul\":9564:9580   */\n      add\n        /* \"#utility.yul\":9558:9581   */\n      mload\n        /* \"#utility.yul\":9594:9657   */\n      tag_460\n        /* \"#utility.yul\":9651:9655   */\n      0x40\n        /* \"#utility.yul\":9646:9649   */\n      dup7\n        /* \"#utility.yul\":9642:9656   */\n      add\n        /* \"#utility.yul\":9628:9640   */\n      dup3\n        /* \"#utility.yul\":9594:9657   */\n      tag_299\n      jump\t// in\n    tag_460:\n        /* \"#utility.yul\":9493:9667   */\n      pop\n        /* \"#utility.yul\":9753:9757   */\n      0x60\n        /* \"#utility.yul\":9746:9751   */\n      dup4\n        /* \"#utility.yul\":9742:9758   */\n      add\n        /* \"#utility.yul\":9736:9759   */\n      mload\n        /* \"#utility.yul\":9806:9809   */\n      dup5\n        /* \"#utility.yul\":9800:9804   */\n      dup3\n        /* \"#utility.yul\":9796:9810   */\n      sub\n        /* \"#utility.yul\":9789:9793   */\n      0x60\n        /* \"#utility.yul\":9784:9787   */\n      dup7\n        /* \"#utility.yul\":9780:9794   */\n      add\n        /* \"#utility.yul\":9773:9811   */\n      mstore\n        /* \"#utility.yul\":9832:9905   */\n      tag_461\n        /* \"#utility.yul\":9900:9904   */\n      dup3\n        /* \"#utility.yul\":9886:9898   */\n      dup3\n        /* \"#utility.yul\":9832:9905   */\n      tag_298\n      jump\t// in\n    tag_461:\n        /* \"#utility.yul\":9824:9905   */\n      swap2\n      pop\n        /* \"#utility.yul\":9677:9916   */\n      pop\n        /* \"#utility.yul\":10003:10007   */\n      0x80\n        /* \"#utility.yul\":9996:10001   */\n      dup4\n        /* \"#utility.yul\":9992:10008   */\n      add\n        /* \"#utility.yul\":9986:10009   */\n      mload\n        /* \"#utility.yul\":10022:10085   */\n      tag_462\n        /* \"#utility.yul\":10079:10083   */\n      0x80\n        /* \"#utility.yul\":10074:10077   */\n      dup7\n        /* \"#utility.yul\":10070:10084   */\n      add\n        /* \"#utility.yul\":10056:10068   */\n      dup3\n        /* \"#utility.yul\":10022:10085   */\n      tag_301\n      jump\t// in\n    tag_462:\n        /* \"#utility.yul\":9926:10095   */\n      pop\n        /* \"#utility.yul\":10182:10186   */\n      0xa0\n        /* \"#utility.yul\":10175:10180   */\n      dup4\n        /* \"#utility.yul\":10171:10187   */\n      add\n        /* \"#utility.yul\":10165:10188   */\n      mload\n        /* \"#utility.yul\":10201:10258   */\n      tag_463\n        /* \"#utility.yul\":10252:10256   */\n      0xa0\n        /* \"#utility.yul\":10247:10250   */\n      dup7\n        /* \"#utility.yul\":10243:10257   */\n      add\n        /* \"#utility.yul\":10229:10241   */\n      dup3\n        /* \"#utility.yul\":10201:10258   */\n      tag_302\n      jump\t// in\n    tag_463:\n        /* \"#utility.yul\":10105:10268   */\n      pop\n        /* \"#utility.yul\":10354:10358   */\n      0xc0\n        /* \"#utility.yul\":10347:10352   */\n      dup4\n        /* \"#utility.yul\":10343:10359   */\n      add\n        /* \"#utility.yul\":10337:10360   */\n      mload\n        /* \"#utility.yul\":10407:10410   */\n      dup5\n        /* \"#utility.yul\":10401:10405   */\n      dup3\n        /* \"#utility.yul\":10397:10411   */\n      sub\n        /* \"#utility.yul\":10390:10394   */\n      0xc0\n        /* \"#utility.yul\":10385:10388   */\n      dup7\n        /* \"#utility.yul\":10381:10395   */\n      add\n        /* \"#utility.yul\":10374:10412   */\n      mstore\n        /* \"#utility.yul\":10433:10506   */\n      tag_464\n        /* \"#utility.yul\":10501:10505   */\n      dup3\n        /* \"#utility.yul\":10487:10499   */\n      dup3\n        /* \"#utility.yul\":10433:10506   */\n      tag_298\n      jump\t// in\n    tag_464:\n        /* \"#utility.yul\":10425:10506   */\n      swap2\n      pop\n        /* \"#utility.yul\":10278:10517   */\n      pop\n        /* \"#utility.yul\":10534:10538   */\n      dup1\n        /* \"#utility.yul\":10527:10538   */\n      swap2\n      pop\n        /* \"#utility.yul\":9017:10544   */\n      pop\n        /* \"#utility.yul\":8885:10544   */\n      swap3\n      swap2\n      pop\n      pop\n      jump\t// out\n        /* \"#utility.yul\":10550:11037   */\n    tag_62:\n        /* \"#utility.yul\":10723:10727   */\n      0x00\n        /* \"#utility.yul\":10761:10763   */\n      0x40\n        /* \"#utility.yul\":10750:10759   */\n      dup3\n        /* \"#utility.yul\":10746:10764   */\n      add\n        /* \"#utility.yul\":10738:10764   */\n      swap1\n      pop\n        /* \"#utility.yul\":10774:10839   */\n      tag_466\n        /* \"#utility.yul\":10836:10837   */\n      0x00\n        /* \"#utility.yul\":10825:10834   */\n      dup4\n        /* \"#utility.yul\":10821:10838   */\n      add\n        /* \"#utility.yul\":10812:10818   */\n      dup6\n        /* \"#utility.yul\":10774:10839   */\n      tag_277\n      jump\t// in\n    tag_466:\n        /* \"#utility.yul\":10886:10895   */\n      dup2\n        /* \"#utility.yul\":10880:10884   */\n      dup2\n        /* \"#utility.yul\":10876:10896   */\n      sub\n        /* \"#utility.yul\":10871:10873   */\n      0x20\n        /* \"#utility.yul\":10860:10869   */\n      dup4\n        /* \"#utility.yul\":10856:10874   */\n      add\n        /* \"#utility.yul\":10849:10897   */\n      mstore\n        /* \"#utility.yul\":10914:11030   */\n      tag_467\n        /* \"#utility.yul\":11025:11029   */\n      dup2\n        /* \"#utility.yul\":11016:11022   */\n      dup5\n        /* \"#utility.yul\":10914:11030   */\n      tag_303\n      jump\t// in\n    tag_467:\n        /* \"#utility.yul\":10906:11030   */\n      swap1\n      pop\n        /* \"#utility.yul\":10550:11037   */\n      swap4\n      swap3\n      pop\n      pop\n      pop\n      jump\t// out\n        /* \"#utility.yul\":11043:11212   */\n    tag_304:\n        /* \"#utility.yul\":11127:11138   */\n      0x00\n        /* \"#utility.yul\":11161:11167   */\n      dup3\n        /* \"#utility.yul\":11156:11159   */\n      dup3\n        /* \"#utility.yul\":11149:11168   */\n      mstore\n        /* \"#utility.yul\":11201:11205   */\n      0x20\n        /* \"#utility.yul\":11196:11199   */\n      dup3\n        /* \"#utility.yul\":11192:11206   */\n      add\n        /* \"#utility.yul\":11177:11206   */\n      swap1\n      pop\n        /* \"#utility.yul\":11043:11212   */\n      swap3\n      swap2\n      pop\n      pop\n      jump\t// out\n        /* \"#utility.yul\":11218:11595   */\n    tag_305:\n        /* \"#utility.yul\":11306:11309   */\n      0x00\n        /* \"#utility.yul\":11334:11373   */\n      tag_470\n        /* \"#utility.yul\":11367:11372   */\n      dup3\n        /* \"#utility.yul\":11334:11373   */\n      tag_295\n      jump\t// in\n    tag_470:\n        /* \"#utility.yul\":11389:11460   */\n      tag_471\n        /* \"#utility.yul\":11453:11459   */\n      dup2\n        /* \"#utility.yul\":11448:11451   */\n      dup6\n        /* \"#utility.yul\":11389:11460   */\n      tag_304\n      jump\t// in\n    tag_471:\n        /* \"#utility.yul\":11382:11460   */\n      swap4\n      pop\n        /* \"#utility.yul\":11469:11534   */\n      tag_472\n        /* \"#utility.yul\":11527:11533   */\n      dup2\n        /* \"#utility.yul\":11522:11525   */\n      dup6\n        /* \"#utility.yul\":11515:11519   */\n      0x20\n        /* \"#utility.yul\":11508:11513   */\n      dup7\n        /* \"#utility.yul\":11504:11520   */\n      add\n        /* \"#utility.yul\":11469:11534   */\n      tag_297\n      jump\t// in\n    tag_472:\n        /* \"#utility.yul\":11559:11588   */\n      tag_473\n        /* \"#utility.yul\":11581:11587   */\n      dup2\n        /* \"#utility.yul\":11559:11588   */\n      tag_280\n      jump\t// in\n    tag_473:\n        /* \"#utility.yul\":11554:11557   */\n      dup5\n        /* \"#utility.yul\":11550:11589   */\n      add\n        /* \"#utility.yul\":11543:11589   */\n      swap2\n      pop\n        /* \"#utility.yul\":11310:11595   */\n      pop\n        /* \"#utility.yul\":11218:11595   */\n      swap3\n      swap2\n      pop\n      pop\n      jump\t// out\n        /* \"#utility.yul\":11601:11719   */\n    tag_306:\n        /* \"#utility.yul\":11688:11712   */\n      tag_475\n        /* \"#utility.yul\":11706:11711   */\n      dup2\n        /* \"#utility.yul\":11688:11712   */\n      tag_292\n      jump\t// in\n    tag_475:\n        /* \"#utility.yul\":11683:11686   */\n      dup3\n        /* \"#utility.yul\":11676:11713   */\n      mstore\n        /* \"#utility.yul\":11601:11719   */\n      pop\n      pop\n      jump\t// out\n        /* \"#utility.yul\":11725:11843   */\n    tag_307:\n        /* \"#utility.yul\":11812:11836   */\n      tag_477\n        /* \"#utility.yul\":11830:11835   */\n      dup2\n        /* \"#utility.yul\":11812:11836   */\n      tag_300\n      jump\t// in\n    tag_477:\n        /* \"#utility.yul\":11807:11810   */\n      dup3\n        /* \"#utility.yul\":11800:11837   */\n      mstore\n        /* \"#utility.yul\":11725:11843   */\n      pop\n      pop\n      jump\t// out\n        /* \"#utility.yul\":11849:12996   */\n    tag_67:\n        /* \"#utility.yul\":12164:12168   */\n      0x00\n        /* \"#utility.yul\":12202:12205   */\n      0xe0\n        /* \"#utility.yul\":12191:12200   */\n      dup3\n        /* \"#utility.yul\":12187:12206   */\n      add\n        /* \"#utility.yul\":12179:12206   */\n      swap1\n      pop\n        /* \"#utility.yul\":12252:12261   */\n      dup2\n        /* \"#utility.yul\":12246:12250   */\n      dup2\n        /* \"#utility.yul\":12242:12262   */\n      sub\n        /* \"#utility.yul\":12238:12239   */\n      0x00\n        /* \"#utility.yul\":12227:12236   */\n      dup4\n        /* \"#utility.yul\":12223:12240   */\n      add\n        /* \"#utility.yul\":12216:12263   */\n      mstore\n        /* \"#utility.yul\":12280:12358   */\n      tag_479\n        /* \"#utility.yul\":12353:12357   */\n      dup2\n        /* \"#utility.yul\":12344:12350   */\n      dup11\n        /* \"#utility.yul\":12280:12358   */\n      tag_305\n      jump\t// in\n    tag_479:\n        /* \"#utility.yul\":12272:12358   */\n      swap1\n      pop\n        /* \"#utility.yul\":12368:12440   */\n      tag_480\n        /* \"#utility.yul\":12436:12438   */\n      0x20\n        /* \"#utility.yul\":12425:12434   */\n      dup4\n        /* \"#utility.yul\":12421:12439   */\n      add\n        /* \"#utility.yul\":12412:12418   */\n      dup10\n        /* \"#utility.yul\":12368:12440   */\n      tag_306\n      jump\t// in\n    tag_480:\n        /* \"#utility.yul\":12450:12522   */\n      tag_481\n        /* \"#utility.yul\":12518:12520   */\n      0x40\n        /* \"#utility.yul\":12507:12516   */\n      dup4\n        /* \"#utility.yul\":12503:12521   */\n      add\n        /* \"#utility.yul\":12494:12500   */\n      dup9\n        /* \"#utility.yul\":12450:12522   */\n      tag_306\n      jump\t// in\n    tag_481:\n        /* \"#utility.yul\":12569:12578   */\n      dup2\n        /* \"#utility.yul\":12563:12567   */\n      dup2\n        /* \"#utility.yul\":12559:12579   */\n      sub\n        /* \"#utility.yul\":12554:12556   */\n      0x60\n        /* \"#utility.yul\":12543:12552   */\n      dup4\n        /* \"#utility.yul\":12539:12557   */\n      add\n        /* \"#utility.yul\":12532:12580   */\n      mstore\n        /* \"#utility.yul\":12597:12675   */\n      tag_482\n        /* \"#utility.yul\":12670:12674   */\n      dup2\n        /* \"#utility.yul\":12661:12667   */\n      dup8\n        /* \"#utility.yul\":12597:12675   */\n      tag_305\n      jump\t// in\n    tag_482:\n        /* \"#utility.yul\":12589:12675   */\n      swap1\n      pop\n        /* \"#utility.yul\":12685:12758   */\n      tag_483\n        /* \"#utility.yul\":12753:12756   */\n      0x80\n        /* \"#utility.yul\":12742:12751   */\n      dup4\n        /* \"#utility.yul\":12738:12757   */\n      add\n        /* \"#utility.yul\":12729:12735   */\n      dup7\n        /* \"#utility.yul\":12685:12758   */\n      tag_307\n      jump\t// in\n    tag_483:\n        /* \"#utility.yul\":12768:12835   */\n      tag_484\n        /* \"#utility.yul\":12830:12833   */\n      0xa0\n        /* \"#utility.yul\":12819:12828   */\n      dup4\n        /* \"#utility.yul\":12815:12834   */\n      add\n        /* \"#utility.yul\":12806:12812   */\n      dup6\n        /* \"#utility.yul\":12768:12835   */\n      tag_277\n      jump\t// in\n    tag_484:\n        /* \"#utility.yul\":12883:12892   */\n      dup2\n        /* \"#utility.yul\":12877:12881   */\n      dup2\n        /* \"#utility.yul\":12873:12893   */\n      sub\n        /* \"#utility.yul\":12867:12870   */\n      0xc0\n        /* \"#utility.yul\":12856:12865   */\n      dup4\n        /* \"#utility.yul\":12852:12871   */\n      add\n        /* \"#utility.yul\":12845:12894   */\n      mstore\n        /* \"#utility.yul\":12911:12989   */\n      tag_485\n        /* \"#utility.yul\":12984:12988   */\n      dup2\n        /* \"#utility.yul\":12975:12981   */\n      dup5\n        /* \"#utility.yul\":12911:12989   */\n      tag_305\n      jump\t// in\n    tag_485:\n        /* \"#utility.yul\":12903:12989   */\n      swap1\n      pop\n        /* \"#utility.yul\":11849:12996   */\n      swap9\n      swap8\n      pop\n      pop\n      pop\n      pop\n      pop\n      pop\n      pop\n      pop\n      jump\t// out\n        /* \"#utility.yul\":13002:13150   */\n    tag_308:\n        /* \"#utility.yul\":13104:13115   */\n      0x00\n        /* \"#utility.yul\":13141:13144   */\n      dup2\n        /* \"#utility.yul\":13126:13144   */\n      swap1\n      pop\n        /* \"#utility.yul\":13002:13150   */\n      swap3\n      swap2\n      pop\n      pop\n      jump\t// out\n        /* \"#utility.yul\":13156:13546   */\n    tag_309:\n        /* \"#utility.yul\":13262:13265   */\n      0x00\n        /* \"#utility.yul\":13290:13329   */\n      tag_488\n        /* \"#utility.yul\":13323:13328   */\n      dup3\n        /* \"#utility.yul\":13290:13329   */\n      tag_295\n      jump\t// in\n    tag_488:\n        /* \"#utility.yul\":13345:13434   */\n      tag_489\n        /* \"#utility.yul\":13427:13433   */\n      dup2\n        /* \"#utility.yul\":13422:13425   */\n      dup6\n        /* \"#utility.yul\":13345:13434   */\n      tag_308\n      jump\t// in\n    tag_489:\n        /* \"#utility.yul\":13338:13434   */\n      swap4\n      pop\n        /* \"#utility.yul\":13443:13508   */\n      tag_490\n        /* \"#utility.yul\":13501:13507   */\n      dup2\n        /* \"#utility.yul\":13496:13499   */\n      dup6\n        /* \"#utility.yul\":13489:13493   */\n      0x20\n        /* \"#utility.yul\":13482:13487   */\n      dup7\n        /* \"#utility.yul\":13478:13494   */\n      add\n        /* \"#utility.yul\":13443:13508   */\n      tag_297\n      jump\t// in\n    tag_490:\n        /* \"#utility.yul\":13533:13539   */\n      dup1\n        /* \"#utility.yul\":13528:13531   */\n      dup5\n        /* \"#utility.yul\":13524:13540   */\n      add\n        /* \"#utility.yul\":13517:13540   */\n      swap2\n      pop\n        /* \"#utility.yul\":13266:13546   */\n      pop\n        /* \"#utility.yul\":13156:13546   */\n      swap3\n      swap2\n      pop\n      pop\n      jump\t// out\n        /* \"#utility.yul\":13552:13827   */\n    tag_90:\n        /* \"#utility.yul\":13684:13687   */\n      0x00\n        /* \"#utility.yul\":13706:13801   */\n      tag_492\n        /* \"#utility.yul\":13797:13800   */\n      dup3\n        /* \"#utility.yul\":13788:13794   */\n      dup5\n        /* \"#utility.yul\":13706:13801   */\n      tag_309\n      jump\t// in\n    tag_492:\n        /* \"#utility.yul\":13699:13801   */\n      swap2\n      pop\n        /* \"#utility.yul\":13818:13821   */\n      dup2\n        /* \"#utility.yul\":13811:13821   */\n      swap1\n      pop\n        /* \"#utility.yul\":13552:13827   */\n      swap3\n      swap2\n      pop\n      pop\n      jump\t// out\n        /* \"#utility.yul\":13833:14009   */\n    tag_310:\n        /* \"#utility.yul\":13973:14001   */\n      0x436572746966696361746520646f6573206e6f74206578697374000000000000\n        /* \"#utility.yul\":13969:13970   */\n      0x00\n        /* \"#utility.yul\":13961:13967   */\n      dup3\n        /* \"#utility.yul\":13957:13971   */\n      add\n        /* \"#utility.yul\":13950:14002   */\n      mstore\n        /* \"#utility.yul\":13833:14009   */\n      pop\n      jump\t// out\n        /* \"#utility.yul\":14015:14381   */\n    tag_311:\n        /* \"#utility.yul\":14157:14160   */\n      0x00\n        /* \"#utility.yul\":14178:14245   */\n      tag_495\n        /* \"#utility.yul\":14242:14244   */\n      0x1a\n        /* \"#utility.yul\":14237:14240   */\n      dup4\n        /* \"#utility.yul\":14178:14245   */\n      tag_304\n      jump\t// in\n    tag_495:\n        /* \"#utility.yul\":14171:14245   */\n      swap2\n      pop\n        /* \"#utility.yul\":14254:14347   */\n      tag_496\n        /* \"#utility.yul\":14343:14346   */\n      dup3\n        /* \"#utility.yul\":14254:14347   */\n      tag_310\n      jump\t// in\n    tag_496:\n        /* \"#utility.yul\":14372:14374   */\n      0x20\n        /* \"#utility.yul\":14367:14370   */\n      dup3\n        /* \"#utility.yul\":14363:14375   */\n      add\n        /* \"#utility.yul\":14356:14375   */\n      swap1\n      pop\n        /* \"#utility.yul\":14015:14381   */\n      swap2\n      swap1\n      pop\n      jump\t// out\n        /* \"#utility.yul\":14387:14806   */\n    tag_93:\n        /* \"#utility.yul\":14553:14557   */\n      0x00\n        /* \"#utility.yul\":14591:14593   */\n      0x20\n        /* \"#utility.yul\":14580:14589   */\n      dup3\n        /* \"#utility.yul\":14576:14594   */\n      add\n        /* \"#utility.yul\":14568:14594   */\n      swap1\n      pop\n        /* \"#utility.yul\":14640:14649   */\n      dup2\n        /* \"#utility.yul\":14634:14638   */\n      dup2\n        /* \"#utility.yul\":14630:14650   */\n      sub\n        /* \"#utility.yul\":14626:14627   */\n      0x00\n        /* \"#utility.yul\":14615:14624   */\n      dup4\n        /* \"#utility.yul\":14611:14628   */\n      add\n        /* \"#utility.yul\":14604:14651   */\n      mstore\n        /* \"#utility.yul\":14668:14799   */\n      tag_498\n        /* \"#utility.yul\":14794:14798   */\n      dup2\n        /* \"#utility.yul\":14668:14799   */\n      tag_311\n      jump\t// in\n    tag_498:\n        /* \"#utility.yul\":14660:14799   */\n      swap1\n      pop\n        /* \"#utility.yul\":14387:14806   */\n      swap2\n      swap1\n      pop\n      jump\t// out\n        /* \"#utility.yul\":14812:14992   */\n    tag_312:\n        /* \"#utility.yul\":14952:14984   */\n      0x436572746966696361746520697320616c7265616479207265766f6b65640000\n        /* \"#utility.yul\":14948:14949   */\n      0x00\n        /* \"#utility.yul\":14940:14946   */\n      dup3\n        /* \"#utility.yul\":14936:14950   */\n      add\n        /* \"#utility.yul\":14929:14985   */\n      mstore\n        /* \"#utility.yul\":14812:14992   */\n      pop\n      jump\t// out\n        /* \"#utility.yul\":14998:15364   */\n    tag_313:\n        /* \"#utility.yul\":15140:15143   */\n      0x00\n        /* \"#utility.yul\":15161:15228   */\n      tag_501\n        /* \"#utility.yul\":15225:15227   */\n      0x1e\n        /* \"#utility.yul\":15220:15223   */\n      dup4\n        /* \"#utility.yul\":15161:15228   */\n      tag_304\n      jump\t// in\n    tag_501:\n        /* \"#utility.yul\":15154:15228   */\n      swap2\n      pop\n        /* \"#utility.yul\":15237:15330   */\n      tag_502\n        /* \"#utility.yul\":15326:15329   */\n      dup3\n        /* \"#utility.yul\":15237:15330   */\n      tag_312\n      jump\t// in\n    tag_502:\n        /* \"#utility.yul\":15355:15357   */\n      0x20\n        /* \"#utility.yul\":15350:15353   */\n      dup3\n        /* \"#utility.yul\":15346:15358   */\n      add\n        /* \"#utility.yul\":15339:15358   */\n      swap1\n      pop\n        /* \"#utility.yul\":14998:15364   */\n      swap2\n      swap1\n      pop\n      jump\t// out\n        /* \"#utility.yul\":15370:15789   */\n    tag_97:\n        /* \"#utility.yul\":15536:15540   */\n      0x00\n        /* \"#utility.yul\":15574:15576   */\n      0x20\n        /* \"#utility.yul\":15563:15572   */\n      dup3\n        /* \"#utility.yul\":15559:15577   */\n      add\n        /* \"#utility.yul\":15551:15577   */\n      swap1\n      pop\n        /* \"#utility.yul\":15623:15632   */\n      dup2\n        /* \"#utility.yul\":15617:15621   */\n      dup2\n        /* \"#utility.yul\":15613:15633   */\n      sub\n        /* \"#utility.yul\":15609:15610   */\n      0x00\n        /* \"#utility.yul\":15598:15607   */\n      dup4\n        /* \"#utility.yul\":15594:15611   */\n      add\n        /* \"#utility.yul\":15587:15634   */\n      mstore\n        /* \"#utility.yul\":15651:15782   */\n      tag_504\n        /* \"#utility.yul\":15777:15781   */\n      dup2\n        /* \"#utility.yul\":15651:15782   */\n      tag_313\n      jump\t// in\n    tag_504:\n        /* \"#utility.yul\":15643:15782   */\n      swap1\n      pop\n        /* \"#utility.yul\":15370:15789   */\n      swap2\n      swap1\n      pop\n      jump\t// out\n        /* \"#utility.yul\":15795:16108   */\n    tag_100:\n        /* \"#utility.yul\":15908:15912   */\n      0x00\n        /* \"#utility.yul\":15946:15948   */\n      0x20\n        /* \"#utility.yul\":15935:15944   */\n      dup3\n        /* \"#utility.yul\":15931:15949   */\n      add\n        /* \"#utility.yul\":15923:15949   */\n      swap1\n      pop\n        /* \"#utility.yul\":15995:16004   */\n      dup2\n        /* \"#utility.yul\":15989:15993   */\n      dup2\n        /* \"#utility.yul\":15985:16005   */\n      sub\n        /* \"#utility.yul\":15981:15982   */\n      0x00\n        /* \"#utility.yul\":15970:15979   */\n      dup4\n        /* \"#utility.yul\":15966:15983   */\n      add\n        /* \"#utility.yul\":15959:16006   */\n      mstore\n        /* \"#utility.yul\":16023:16101   */\n      tag_506\n        /* \"#utility.yul\":16096:16100   */\n      dup2\n        /* \"#utility.yul\":16087:16093   */\n      dup5\n        /* \"#utility.yul\":16023:16101   */\n      tag_305\n      jump\t// in\n    tag_506:\n        /* \"#utility.yul\":16015:16101   */\n      swap1\n      pop\n        /* \"#utility.yul\":15795:16108   */\n      swap3\n      swap2\n      pop\n      pop\n      jump\t// out\n        /* \"#utility.yul\":16114:16348   */\n    tag_314:\n        /* \"#utility.yul\":16254:16288   */\n      0x416363657373436f6e74726f6c3a2063616e206f6e6c792072656e6f756e6365\n        /* \"#utility.yul\":16250:16251   */\n      0x00\n        /* \"#utility.yul\":16242:16248   */\n      dup3\n        /* \"#utility.yul\":16238:16252   */\n      add\n        /* \"#utility.yul\":16231:16289   */\n      mstore\n        /* \"#utility.yul\":16323:16340   */\n      0x20726f6c657320666f722073656c660000000000000000000000000000000000\n        /* \"#utility.yul\":16318:16320   */\n      0x20\n        /* \"#utility.yul\":16310:16316   */\n      dup3\n        /* \"#utility.yul\":16306:16321   */\n      add\n        /* \"#utility.yul\":16299:16341   */\n      mstore\n        /* \"#utility.yul\":16114:16348   */\n      pop\n      jump\t// out\n        /* \"#utility.yul\":16354:16720   */\n    tag_315:\n        /* \"#utility.yul\":16496:16499   */\n      0x00\n        /* \"#utility.yul\":16517:16584   */\n      tag_509\n        /* \"#utility.yul\":16581:16583   */\n      0x2f\n        /* \"#utility.yul\":16576:16579   */\n      dup4\n        /* \"#utility.yul\":16517:16584   */\n      tag_304\n      jump\t// in\n    tag_509:\n        /* \"#utility.yul\":16510:16584   */\n      swap2\n      pop\n        /* \"#utility.yul\":16593:16686   */\n      tag_510\n        /* \"#utility.yul\":16682:16685   */\n      dup3\n        /* \"#utility.yul\":16593:16686   */\n      tag_314\n      jump\t// in\n    tag_510:\n        /* \"#utility.yul\":16711:16713   */\n      0x40\n        /* \"#utility.yul\":16706:16709   */\n      dup3\n        /* \"#utility.yul\":16702:16714   */\n      add\n        /* \"#utility.yul\":16695:16714   */\n      swap1\n      pop\n        /* \"#utility.yul\":16354:16720   */\n      swap2\n      swap1\n      pop\n      jump\t// out\n        /* \"#utility.yul\":16726:17145   */\n    tag_113:\n        /* \"#utility.yul\":16892:16896   */\n      0x00\n        /* \"#utility.yul\":16930:16932   */\n      0x20\n        /* \"#utility.yul\":16919:16928   */\n      dup3\n        /* \"#utility.yul\":16915:16933   */\n      add\n        /* \"#utility.yul\":16907:16933   */\n      swap1\n      pop\n        /* \"#utility.yul\":16979:16988   */\n      dup2\n        /* \"#utility.yul\":16973:16977   */\n      dup2\n        /* \"#utility.yul\":16969:16989   */\n      sub\n        /* \"#utility.yul\":16965:16966   */\n      0x00\n        /* \"#utility.yul\":16954:16963   */\n      dup4\n        /* \"#utility.yul\":16950:16967   */\n      add\n        /* \"#utility.yul\":16943:16990   */\n      mstore\n        /* \"#utility.yul\":17007:17138   */\n      tag_512\n        /* \"#utility.yul\":17133:17137   */\n      dup2\n        /* \"#utility.yul\":17007:17138   */\n      tag_315\n      jump\t// in\n    tag_512:\n        /* \"#utility.yul\":16999:17138   */\n      swap1\n      pop\n        /* \"#utility.yul\":16726:17145   */\n      swap2\n      swap1\n      pop\n      jump\t// out\n        /* \"#utility.yul\":17151:17331   */\n    tag_316:\n        /* \"#utility.yul\":17291:17323   */\n      0x43657274696669636174652049442063616e6e6f7420626520656d7074790000\n        /* \"#utility.yul\":17287:17288   */\n      0x00\n        /* \"#utility.yul\":17279:17285   */\n      dup3\n        /* \"#utility.yul\":17275:17289   */\n      add\n        /* \"#utility.yul\":17268:17324   */\n      mstore\n        /* \"#utility.yul\":17151:17331   */\n      pop\n      jump\t// out\n        /* \"#utility.yul\":17337:17703   */\n    tag_317:\n        /* \"#utility.yul\":17479:17482   */\n      0x00\n        /* \"#utility.yul\":17500:17567   */\n      tag_515\n        /* \"#utility.yul\":17564:17566   */\n      0x1e\n        /* \"#utility.yul\":17559:17562   */\n      dup4\n        /* \"#utility.yul\":17500:17567   */\n      tag_304\n      jump\t// in\n    tag_515:\n        /* \"#utility.yul\":17493:17567   */\n      swap2\n      pop\n        /* \"#utility.yul\":17576:17669   */\n      tag_516\n        /* \"#utility.yul\":17665:17668   */\n      dup3\n        /* \"#utility.yul\":17576:17669   */\n      tag_316\n      jump\t// in\n    tag_516:\n        /* \"#utility.yul\":17694:17696   */\n      0x20\n        /* \"#utility.yul\":17689:17692   */\n      dup3\n        /* \"#utility.yul\":17685:17697   */\n      add\n        /* \"#utility.yul\":17678:17697   */\n      swap1\n      pop\n        /* \"#utility.yul\":17337:17703   */\n      swap2\n      swap1\n      pop\n      jump\t// out\n        /* \"#utility.yul\":17709:18128   */\n    tag_123:\n        /* \"#utility.yul\":17875:17879   */\n      0x00\n        /* \"#utility.yul\":17913:17915   */\n      0x20\n        /* \"#utility.yul\":17902:17911   */\n      dup3\n        /* \"#utility.yul\":17898:17916   */\n      add\n        /* \"#utility.yul\":17890:17916   */\n      swap1\n      pop\n        /* \"#utility.yul\":17962:17971   */\n      dup2\n        /* \"#utility.yul\":17956:17960   */\n      dup2\n        /* \"#utility.yul\":17952:17972   */\n      sub\n        /* \"#utility.yul\":17948:17949   */\n      0x00\n        /* \"#utility.yul\":17937:17946   */\n      dup4\n        /* \"#utility.yul\":17933:17950   */\n      add\n        /* \"#utility.yul\":17926:17973   */\n      mstore\n        /* \"#utility.yul\":17990:18121   */\n      tag_518\n        /* \"#utility.yul\":18116:18120   */\n      dup2\n        /* \"#utility.yul\":17990:18121   */\n      tag_317\n      jump\t// in\n    tag_518:\n        /* \"#utility.yul\":17982:18121   */\n      swap1\n      pop\n        /* \"#utility.yul\":17709:18128   */\n      swap2\n      swap1\n      pop\n      jump\t// out\n        /* \"#utility.yul\":18134:18307   */\n    tag_318:\n        /* \"#utility.yul\":18274:18299   */\n      0x496e76616c69642073747564656e742061646472657373000000000000000000\n        /* \"#utility.yul\":18270:18271   */\n      0x00\n        /* \"#utility.yul\":18262:18268   */\n      dup3\n        /* \"#utility.yul\":18258:18272   */\n      add\n        /* \"#utility.yul\":18251:18300   */\n      mstore\n        /* \"#utility.yul\":18134:18307   */\n      pop\n      jump\t// out\n        /* \"#utility.yul\":18313:18679   */\n    tag_319:\n        /* \"#utility.yul\":18455:18458   */\n      0x00\n        /* \"#utility.yul\":18476:18543   */\n      tag_521\n        /* \"#utility.yul\":18540:18542   */\n      0x17\n        /* \"#utility.yul\":18535:18538   */\n      dup4\n        /* \"#utility.yul\":18476:18543   */\n      tag_304\n      jump\t// in\n    tag_521:\n        /* \"#utility.yul\":18469:18543   */\n      swap2\n      pop\n        /* \"#utility.yul\":18552:18645   */\n      tag_522\n        /* \"#utility.yul\":18641:18644   */\n      dup3\n        /* \"#utility.yul\":18552:18645   */\n      tag_318\n      jump\t// in\n    tag_522:\n        /* \"#utility.yul\":18670:18672   */\n      0x20\n        /* \"#utility.yul\":18665:18668   */\n      dup3\n        /* \"#utility.yul\":18661:18673   */\n      add\n        /* \"#utility.yul\":18654:18673   */\n      swap1\n      pop\n        /* \"#utility.yul\":18313:18679   */\n      swap2\n      swap1\n      pop\n      jump\t// out\n        /* \"#utility.yul\":18685:19104   */\n    tag_126:\n        /* \"#utility.yul\":18851:18855   */\n      0x00\n        /* \"#utility.yul\":18889:18891   */\n      0x20\n        /* \"#utility.yul\":18878:18887   */\n      dup3\n        /* \"#utility.yul\":18874:18892   */\n      add\n        /* \"#utility.yul\":18866:18892   */\n      swap1\n      pop\n        /* \"#utility.yul\":18938:18947   */\n      dup2\n        /* \"#utility.yul\":18932:18936   */\n      dup2\n        /* \"#utility.yul\":18928:18948   */\n      sub\n        /* \"#utility.yul\":18924:18925   */\n      0x00\n        /* \"#utility.yul\":18913:18922   */\n      dup4\n        /* \"#utility.yul\":18909:18926   */\n      add\n        /* \"#utility.yul\":18902:18949   */\n      mstore\n        /* \"#utility.yul\":18966:19097   */\n      tag_524\n        /* \"#utility.yul\":19092:19096   */\n      dup2\n        /* \"#utility.yul\":18966:19097   */\n      tag_319\n      jump\t// in\n    tag_524:\n        /* \"#utility.yul\":18958:19097   */\n      swap1\n      pop\n        /* \"#utility.yul\":18685:19104   */\n      swap2\n      swap1\n      pop\n      jump\t// out\n        /* \"#utility.yul\":19110:19285   */\n    tag_320:\n        /* \"#utility.yul\":19250:19277   */\n      0x4950465320686173682063616e6e6f7420626520656d70747900000000000000\n        /* \"#utility.yul\":19246:19247   */\n      0x00\n        /* \"#utility.yul\":19238:19244   */\n      dup3\n        /* \"#utility.yul\":19234:19248   */\n      add\n        /* \"#utility.yul\":19227:19278   */\n      mstore\n        /* \"#utility.yul\":19110:19285   */\n      pop\n      jump\t// out\n        /* \"#utility.yul\":19291:19657   */\n    tag_321:\n        /* \"#utility.yul\":19433:19436   */\n      0x00\n        /* \"#utility.yul\":19454:19521   */\n      tag_527\n        /* \"#utility.yul\":19518:19520   */\n      0x19\n        /* \"#utility.yul\":19513:19516   */\n      dup4\n        /* \"#utility.yul\":19454:19521   */\n      tag_304\n      jump\t// in\n    tag_527:\n        /* \"#utility.yul\":19447:19521   */\n      swap2\n      pop\n        /* \"#utility.yul\":19530:19623   */\n      tag_528\n        /* \"#utility.yul\":19619:19622   */\n      dup3\n        /* \"#utility.yul\":19530:19623   */\n      tag_320\n      jump\t// in\n    tag_528:\n        /* \"#utility.yul\":19648:19650   */\n      0x20\n        /* \"#utility.yul\":19643:19646   */\n      dup3\n        /* \"#utility.yul\":19639:19651   */\n      add\n        /* \"#utility.yul\":19632:19651   */\n      swap1\n      pop\n        /* \"#utility.yul\":19291:19657   */\n      swap2\n      swap1\n      pop\n      jump\t// out\n        /* \"#utility.yul\":19663:20082   */\n    tag_129:\n        /* \"#utility.yul\":19829:19833   */\n      0x00\n        /* \"#utility.yul\":19867:19869   */\n      0x20\n        /* \"#utility.yul\":19856:19865   */\n      dup3\n        /* \"#utility.yul\":19852:19870   */\n      add\n        /* \"#utility.yul\":19844:19870   */\n      swap1\n      pop\n        /* \"#utility.yul\":19916:19925   */\n      dup2\n        /* \"#utility.yul\":19910:19914   */\n      dup2\n        /* \"#utility.yul\":19906:19926   */\n      sub\n        /* \"#utility.yul\":19902:19903   */\n      0x00\n        /* \"#utility.yul\":19891:19900   */\n      dup4\n        /* \"#utility.yul\":19887:19904   */\n      add\n        /* \"#utility.yul\":19880:19927   */\n      mstore\n        /* \"#utility.yul\":19944:20075   */\n      tag_530\n        /* \"#utility.yul\":20070:20074   */\n      dup2\n        /* \"#utility.yul\":19944:20075   */\n      tag_321\n      jump\t// in\n    tag_530:\n        /* \"#utility.yul\":19936:20075   */\n      swap1\n      pop\n        /* \"#utility.yul\":19663:20082   */\n      swap2\n      swap1\n      pop\n      jump\t// out\n        /* \"#utility.yul\":20088:20267   */\n    tag_322:\n        /* \"#utility.yul\":20228:20259   */\n      0x436572746966696361746520494420616c726561647920657869737473000000\n        /* \"#utility.yul\":20224:20225   */\n      0x00\n        /* \"#utility.yul\":20216:20222   */\n      dup3\n        /* \"#utility.yul\":20212:20226   */\n      add\n        /* \"#utility.yul\":20205:20260   */\n      mstore\n        /* \"#utility.yul\":20088:20267   */\n      pop\n      jump\t// out\n        /* \"#utility.yul\":20273:20639   */\n    tag_323:\n        /* \"#utility.yul\":20415:20418   */\n      0x00\n        /* \"#utility.yul\":20436:20503   */\n      tag_533\n        /* \"#utility.yul\":20500:20502   */\n      0x1d\n        /* \"#utility.yul\":20495:20498   */\n      dup4\n        /* \"#utility.yul\":20436:20503   */\n      tag_304\n      jump\t// in\n    tag_533:\n        /* \"#utility.yul\":20429:20503   */\n      swap2\n      pop\n        /* \"#utility.yul\":20512:20605   */\n      tag_534\n        /* \"#utility.yul\":20601:20604   */\n      dup3\n        /* \"#utility.yul\":20512:20605   */\n      tag_322\n      jump\t// in\n    tag_534:\n        /* \"#utility.yul\":20630:20632   */\n      0x20\n        /* \"#utility.yul\":20625:20628   */\n      dup3\n        /* \"#utility.yul\":20621:20633   */\n      add\n        /* \"#utility.yul\":20614:20633   */\n      swap1\n      pop\n        /* \"#utility.yul\":20273:20639   */\n      swap2\n      swap1\n      pop\n      jump\t// out\n        /* \"#utility.yul\":20645:21064   */\n    tag_133:\n        /* \"#utility.yul\":20811:20815   */\n      0x00\n        /* \"#utility.yul\":20849:20851   */\n      0x20\n        /* \"#utility.yul\":20838:20847   */\n      dup3\n        /* \"#utility.yul\":20834:20852   */\n      add\n        /* \"#utility.yul\":20826:20852   */\n      swap1\n      pop\n        /* \"#utility.yul\":20898:20907   */\n      dup2\n        /* \"#utility.yul\":20892:20896   */\n      dup2\n        /* \"#utility.yul\":20888:20908   */\n      sub\n        /* \"#utility.yul\":20884:20885   */\n      0x00\n        /* \"#utility.yul\":20873:20882   */\n      dup4\n        /* \"#utility.yul\":20869:20886   */\n      add\n        /* \"#utility.yul\":20862:20909   */\n      mstore\n        /* \"#utility.yul\":20926:21057   */\n      tag_536\n        /* \"#utility.yul\":21052:21056   */\n      dup2\n        /* \"#utility.yul\":20926:21057   */\n      tag_323\n      jump\t// in\n    tag_536:\n        /* \"#utility.yul\":20918:21057   */\n      swap1\n      pop\n        /* \"#utility.yul\":20645:21064   */\n      swap2\n      swap1\n      pop\n      jump\t// out\n        /* \"#utility.yul\":21070:21250   */\n    tag_324:\n        /* \"#utility.yul\":21118:21195   */\n      0x4e487b7100000000000000000000000000000000000000000000000000000000\n        /* \"#utility.yul\":21115:21116   */\n      0x00\n        /* \"#utility.yul\":21108:21196   */\n      mstore\n        /* \"#utility.yul\":21215:21219   */\n      0x22\n        /* \"#utility.yul\":21212:21213   */\n      0x04\n        /* \"#utility.yul\":21205:21220   */\n      mstore\n        /* \"#utility.yul\":21239:21243   */\n      0x24\n        /* \"#utility.yul\":21236:21237   */\n      0x00\n        /* \"#utility.yul\":21229:21244   */\n      revert\n        /* \"#utility.yul\":21256:21576   */\n    tag_157:\n        /* \"#utility.yul\":21300:21306   */\n      0x00\n        /* \"#utility.yul\":21337:21338   */\n      0x02\n        /* \"#utility.yul\":21331:21335   */\n      dup3\n        /* \"#utility.yul\":21327:21339   */\n      div\n        /* \"#utility.yul\":21317:21339   */\n      swap1\n      pop\n        /* \"#utility.yul\":21384:21385   */\n      0x01\n        /* \"#utility.yul\":21378:21382   */\n      dup3\n        /* \"#utility.yul\":21374:21386   */\n      and\n        /* \"#utility.yul\":21405:21423   */\n      dup1\n        /* \"#utility.yul\":21395:21476   */\n      tag_539\n      jumpi\n        /* \"#utility.yul\":21461:21465   */\n      0x7f\n        /* \"#utility.yul\":21453:21459   */\n      dup3\n        /* \"#utility.yul\":21449:21466   */\n      and\n        /* \"#utility.yul\":21439:21466   */\n      swap2\n      pop\n        /* \"#utility.yul\":21395:21476   */\n    tag_539:\n        /* \"#utility.yul\":21523:21525   */\n      0x20\n        /* \"#utility.yul\":21515:21521   */\n      dup3\n        /* \"#utility.yul\":21512:21526   */\n      lt\n        /* \"#utility.yul\":21492:21510   */\n      dup2\n        /* \"#utility.yul\":21489:21527   */\n      sub\n        /* \"#utility.yul\":21486:21570   */\n      tag_540\n      jumpi\n        /* \"#utility.yul\":21542:21560   */\n      tag_541\n      tag_324\n      jump\t// in\n    tag_541:\n        /* \"#utility.yul\":21486:21570   */\n    tag_540:\n        /* \"#utility.yul\":21307:21576   */\n      pop\n        /* \"#utility.yul\":21256:21576   */\n      swap2\n      swap1\n      pop\n      jump\t// out\n        /* \"#utility.yul\":21582:21723   */\n    tag_325:\n        /* \"#utility.yul\":21631:21635   */\n      0x00\n        /* \"#utility.yul\":21654:21657   */\n      dup2\n        /* \"#utility.yul\":21646:21657   */\n      swap1\n      pop\n        /* \"#utility.yul\":21677:21680   */\n      dup2\n        /* \"#utility.yul\":21674:21675   */\n      0x00\n        /* \"#utility.yul\":21667:21681   */\n      mstore\n        /* \"#utility.yul\":21711:21715   */\n      0x20\n        /* \"#utility.yul\":21708:21709   */\n      0x00\n        /* \"#utility.yul\":21698:21716   */\n      keccak256\n        /* \"#utility.yul\":21690:21716   */\n      swap1\n      pop\n        /* \"#utility.yul\":21582:21723   */\n      swap2\n      swap1\n      pop\n      jump\t// out\n        /* \"#utility.yul\":21729:21822   */\n    tag_326:\n        /* \"#utility.yul\":21766:21772   */\n      0x00\n        /* \"#utility.yul\":21813:21815   */\n      0x20\n        /* \"#utility.yul\":21808:21810   */\n      0x1f\n        /* \"#utility.yul\":21801:21806   */\n      dup4\n        /* \"#utility.yul\":21797:21811   */\n      add\n        /* \"#utility.yul\":21793:21816   */\n      div\n        /* \"#utility.yul\":21783:21816   */\n      swap1\n      pop\n        /* \"#utility.yul\":21729:21822   */\n      swap2\n      swap1\n      pop\n      jump\t// out\n        /* \"#utility.yul\":21828:21935   */\n    tag_327:\n        /* \"#utility.yul\":21872:21880   */\n      0x00\n        /* \"#utility.yul\":21922:21927   */\n      dup3\n        /* \"#utility.yul\":21916:21920   */\n      dup3\n        /* \"#utility.yul\":21912:21928   */\n      shl\n        /* \"#utility.yul\":21891:21928   */\n      swap1\n      pop\n        /* \"#utility.yul\":21828:21935   */\n      swap3\n      swap2\n      pop\n      pop\n      jump\t// out\n        /* \"#utility.yul\":21941:22334   */\n    tag_328:\n        /* \"#utility.yul\":22010:22016   */\n      0x00\n        /* \"#utility.yul\":22060:22061   */\n      0x08\n        /* \"#utility.yul\":22048:22058   */\n      dup4\n        /* \"#utility.yul\":22044:22062   */\n      mul\n        /* \"#utility.yul\":22083:22180   */\n      tag_546\n        /* \"#utility.yul\":22113:22179   */\n      0xffffffffffffffffffffffffffffffffffffffffffffffffffffffffffffffff\n        /* \"#utility.yul\":22102:22111   */\n      dup3\n        /* \"#utility.yul\":22083:22180   */\n      tag_327\n      jump\t// in\n    tag_546:\n        /* \"#utility.yul\":22201:22240   */\n      tag_547\n        /* \"#utility.yul\":22231:22239   */\n      dup7\n        /* \"#utility.yul\":22220:22229   */\n      dup4\n        /* \"#utility.yul\":22201:22240   */\n      tag_327\n      jump\t// in\n    tag_547:\n        /* \"#utility.yul\":22189:22240   */\n      swap6\n      pop\n        /* \"#utility.yul\":22273:22277   */\n      dup1\n        /* \"#utility.yul\":22269:22278   */\n      not\n        /* \"#utility.yul\":22262:22267   */\n      dup5\n        /* \"#utility.yul\":22258:22279   */\n      and\n        /* \"#utility.yul\":22249:22279   */\n      swap4\n      pop\n        /* \"#utility.yul\":22322:22326   */\n      dup1\n        /* \"#utility.yul\":22312:22320   */\n      dup7\n        /* \"#utility.yul\":22308:22327   */\n      and\n        /* \"#utility.yul\":22301:22306   */\n      dup5\n        /* \"#utility.yul\":22298:22328   */\n      or\n        /* \"#utility.yul\":22288:22328   */\n      swap3\n      pop\n        /* \"#utility.yul\":22017:22334   */\n      pop\n      pop\n        /* \"#utility.yul\":21941:22334   */\n      swap4\n      swap3\n      pop\n      pop\n      pop\n      jump\t// out\n        /* \"#utility.yul\":22340:22400   */\n    tag_329:\n        /* \"#utility.yul\":22368:22371   */\n      0x00\n        /* \"#utility.yul\":22389:22394   */\n      dup2\n        /* \"#utility.yul\":22382:22394   */\n      swap1\n      pop\n        /* \"#utility.yul\":22340:22400   */\n      swap2\n      swap1\n      pop\n      jump\t// out\n        /* \"#utility.yul\":22406:22548   */\n    tag_330:\n        /* \"#utility.yul\":22456:22465   */\n      0x00\n        /* \"#utility.yul\":22489:22542   */\n      tag_550\n        /* \"#utility.yul\":22507:22541   */\n      tag_551\n        /* \"#utility.yul\":22516:22540   */\n      tag_552\n        /* \"#utility.yul\":22534:22539   */\n      dup5\n        /* \"#utility.yul\":22516:22540   */\n      tag_300\n      jump\t// in\n    tag_552:\n        /* \"#utility.yul\":22507:22541   */\n      tag_329\n      jump\t// in\n    tag_551:\n        /* \"#utility.yul\":22489:22542   */\n      tag_300\n      jump\t// in\n    tag_550:\n        /* \"#utility.yul\":22476:22542   */\n      swap1\n      pop\n        /* \"#utility.yul\":22406:22548   */\n      swap2\n      swap1\n      pop\n      jump\t// out\n        /* \"#utility.yul\":22554:22629   */\n    tag_331:\n        /* \"#utility.yul\":22597:22600   */\n      0x00\n        /* \"#utility.yul\":22618:22623   */\n      dup2\n        /* \"#utility.yul\":22611:22623   */\n      swap1\n      pop\n        /* \"#utility.yul\":22554:22629   */\n      swap2\n      swap1\n      pop\n      jump\t// out\n        /* \"#utility.yul\":22635:22904   */\n    tag_332:\n        /* \"#utility.yul\":22745:22784   */\n      tag_555\n        /* \"#utility.yul\":22776:22783   */\n      dup4\n        /* \"#utility.yul\":22745:22784   */\n      tag_330\n      jump\t// in\n    tag_555:\n        /* \"#utility.yul\":22806:22897   */\n      tag_556\n        /* \"#utility.yul\":22855:22896   */\n      tag_557\n        /* \"#utility.yul\":22879:22895   */\n      dup3\n        /* \"#utility.yul\":22855:22896   */\n      tag_331\n      jump\t// in\n    tag_557:\n        /* \"#utility.yul\":22847:22853   */\n      dup5\n        /* \"#utility.yul\":22840:22844   */\n      dup5\n        /* \"#utility.yul\":22834:22845   */\n      sload\n        /* \"#utility.yul\":22806:22897   */\n      tag_328\n      jump\t// in\n    tag_556:\n        /* \"#utility.yul\":22800:22804   */\n      dup3\n        /* \"#utility.yul\":22793:22898   */\n      sstore\n        /* \"#utility.yul\":22711:22904   */\n      pop\n        /* \"#utility.yul\":22635:22904   */\n      pop\n      pop\n      pop\n      jump\t// out\n        /* \"#utility.yul\":22910:22983   */\n    tag_333:\n        /* \"#utility.yul\":22955:22958   */\n      0x00\n        /* \"#utility.yul\":22910:22983   */\n      swap1\n      jump\t// out\n        /* \"#utility.yul\":22989:23178   */\n    tag_334:\n        /* \"#utility.yul\":23066:23098   */\n      tag_560\n      tag_333\n      jump\t// in\n    tag_560:\n        /* \"#utility.yul\":23107:23172   */\n      tag_561\n        /* \"#utility.yul\":23165:23171   */\n      dup2\n        /* \"#utility.yul\":23157:23163   */\n      dup5\n        /* \"#utility.yul\":23151:23155   */\n      dup5\n        /* \"#utility.yul\":23107:23172   */\n      tag_332\n      jump\t// in\n    tag_561:\n        /* \"#utility.yul\":23042:23178   */\n      pop\n        /* \"#utility.yul\":22989:23178   */\n      pop\n      pop\n      jump\t// out\n        /* \"#utility.yul\":23184:23370   */\n    tag_335:\n        /* \"#utility.yul\":23244:23364   */\n    tag_563:\n        /* \"#utility.yul\":23261:23264   */\n      dup2\n        /* \"#utility.yul\":23254:23259   */\n      dup2\n        /* \"#utility.yul\":23251:23265   */\n      lt\n        /* \"#utility.yul\":23244:23364   */\n      iszero\n      tag_565\n      jumpi\n        /* \"#utility.yul\":23315:23354   */\n      tag_566\n        /* \"#utility.yul\":23352:23353   */\n      0x00\n        /* \"#utility.yul\":23345:23350   */\n      dup3\n        /* \"#utility.yul\":23315:23354   */\n      tag_334\n      jump\t// in\n    tag_566:\n        /* \"#utility.yul\":23288:23289   */\n      0x01\n        /* \"#utility.yul\":23281:23286   */\n      dup2\n        /* \"#utility.yul\":23277:23290   */\n      add\n        /* \"#utility.yul\":23268:23290   */\n      swap1\n      pop\n        /* \"#utility.yul\":23244:23364   */\n      jump(tag_563)\n    tag_565:\n        /* \"#utility.yul\":23184:23370   */\n      pop\n      pop\n      jump\t// out\n        /* \"#utility.yul\":23376:23919   */\n    tag_336:\n        /* \"#utility.yul\":23477:23479   */\n      0x1f\n        /* \"#utility.yul\":23472:23475   */\n      dup3\n        /* \"#utility.yul\":23469:23480   */\n      gt\n        /* \"#utility.yul\":23466:23912   */\n      iszero\n      tag_568\n      jumpi\n        /* \"#utility.yul\":23511:23549   */\n      tag_569\n        /* \"#utility.yul\":23543:23548   */\n      dup2\n        /* \"#utility.yul\":23511:23549   */\n      tag_325\n      jump\t// in\n    tag_569:\n        /* \"#utility.yul\":23595:23624   */\n      tag_570\n        /* \"#utility.yul\":23613:23623   */\n      dup5\n        /* \"#utility.yul\":23595:23624   */\n      tag_326\n      jump\t// in\n    tag_570:\n        /* \"#utility.yul\":23585:23593   */\n      dup2\n        /* \"#utility.yul\":23581:23625   */\n      add\n        /* \"#utility.yul\":23778:23780   */\n      0x20\n        /* \"#utility.yul\":23766:23776   */\n      dup6\n        /* \"#utility.yul\":23763:23781   */\n      lt\n        /* \"#utility.yul\":23760:23809   */\n      iszero\n      tag_571\n      jumpi\n        /* \"#utility.yul\":23799:23807   */\n      dup2\n        /* \"#utility.yul\":23784:23807   */\n      swap1\n      pop\n        /* \"#utility.yul\":23760:23809   */\n    tag_571:\n        /* \"#utility.yul\":23822:23902   */\n      tag_572\n        /* \"#utility.yul\":23878:23900   */\n      tag_573\n        /* \"#utility.yul\":23896:23899   */\n      dup6\n        /* \"#utility.yul\":23878:23900   */\n      tag_326\n      jump\t// in\n    tag_573:\n        /* \"#utility.yul\":23868:23876   */\n      dup4\n        /* \"#utility.yul\":23864:23901   */\n      add\n        /* \"#utility.yul\":23851:23862   */\n      dup3\n        /* \"#utility.yul\":23822:23902   */\n      tag_335\n      jump\t// in\n    tag_572:\n        /* \"#utility.yul\":23481:23912   */\n      pop\n      pop\n        /* \"#utility.yul\":23466:23912   */\n    tag_568:\n        /* \"#utility.yul\":23376:23919   */\n      pop\n      pop\n      pop\n      jump\t// out\n        /* \"#utility.yul\":23925:24042   */\n    tag_337:\n        /* \"#utility.yul\":23979:23987   */\n      0x00\n        /* \"#utility.yul\":24029:24034   */\n      dup3\n        /* \"#utility.yul\":24023:24027   */\n      dup3\n        /* \"#utility.yul\":24019:24035   */\n      shr\n        /* \"#utility.yul\":23998:24035   */\n      swap1\n      pop\n        /* \"#utility.yul\":23925:24042   */\n      swap3\n      swap2\n      pop\n      pop\n      jump\t// out\n        /* \"#utility.yul\":24048:24217   */\n    tag_338:\n        /* \"#utility.yul\":24092:24098   */\n      0x00\n        /* \"#utility.yul\":24125:24176   */\n      tag_576\n        /* \"#utility.yul\":24173:24174   */\n      0x00\n        /* \"#utility.yul\":24169:24175   */\n      not\n        /* \"#utility.yul\":24161:24166   */\n      dup5\n        /* \"#utility.yul\":24158:24159   */\n      0x08\n        /* \"#utility.yul\":24154:24167   */\n      mul\n        /* \"#utility.yul\":24125:24176   */\n      tag_337\n      jump\t// in\n    tag_576:\n        /* \"#utility.yul\":24121:24177   */\n      not\n        /* \"#utility.yul\":24206:24210   */\n      dup1\n        /* \"#utility.yul\":24200:24204   */\n      dup4\n        /* \"#utility.yul\":24196:24211   */\n      and\n        /* \"#utility.yul\":24186:24211   */\n      swap2\n      pop\n        /* \"#utility.yul\":24099:24217   */\n      pop\n        /* \"#utility.yul\":24048:24217   */\n      swap3\n      swap2\n      pop\n      pop\n      jump\t// out\n        /* \"#utility.yul\":24222:24517   */\n    tag_339:\n        /* \"#utility.yul\":24298:24302   */\n      0x00\n        /* \"#utility.yul\":24444:24473   */\n      tag_578\n        /* \"#utility.yul\":24469:24472   */\n      dup4\n        /* \"#utility.yul\":24463:24467   */\n      dup4\n        /* \"#utility.yul\":24444:24473   */\n      tag_338\n      jump\t// in\n    tag_578:\n        /* \"#utility.yul\":24436:24473   */\n      swap2\n      pop\n        /* \"#utility.yul\":24506:24509   */\n      dup3\n        /* \"#utility.yul\":24503:24504   */\n      0x02\n        /* \"#utility.yul\":24499:24510   */\n      mul\n        /* \"#utility.yul\":24493:24497   */\n      dup3\n        /* \"#utility.yul\":24490:24511   */\n      or\n        /* \"#utility.yul\":24482:24511   */\n      swap1\n      pop\n        /* \"#utility.yul\":24222:24517   */\n      swap3\n      swap2\n      pop\n      pop\n      jump\t// out\n        /* \"#utility.yul\":24522:25917   */\n    tag_136:\n        /* \"#utility.yul\":24639:24676   */\n      tag_580\n        /* \"#utility.yul\":24672:24675   */\n      dup3\n        /* \"#utility.yul\":24639:24676   */\n      tag_295\n      jump\t// in\n    tag_580:\n        /* \"#utility.yul\":24741:24759   */\n      0xffffffffffffffff\n        /* \"#utility.yul\":24733:24739   */\n      dup2\n        /* \"#utility.yul\":24730:24760   */\n      gt\n        /* \"#utility.yul\":24727:24783   */\n      iszero\n      tag_581\n      jumpi\n        /* \"#utility.yul\":24763:24781   */\n      tag_582\n      tag_249\n      jump\t// in\n    tag_582:\n        /* \"#utility.yul\":24727:24783   */\n    tag_581:\n        /* \"#utility.yul\":24807:24845   */\n      tag_583\n        /* \"#utility.yul\":24839:24843   */\n      dup3\n        /* \"#utility.yul\":24833:24844   */\n      sload\n        /* \"#utility.yul\":24807:24845   */\n      tag_157\n      jump\t// in\n    tag_583:\n        /* \"#utility.yul\":24892:24959   */\n      tag_584\n        /* \"#utility.yul\":24952:24958   */\n      dup3\n        /* \"#utility.yul\":24944:24950   */\n      dup3\n        /* \"#utility.yul\":24938:24942   */\n      dup6\n        /* \"#utility.yul\":24892:24959   */\n      tag_336\n      jump\t// in\n    tag_584:\n        /* \"#utility.yul\":24986:24987   */\n      0x00\n        /* \"#utility.yul\":25010:25014   */\n      0x20\n        /* \"#utility.yul\":24997:25014   */\n      swap1\n      pop\n        /* \"#utility.yul\":25042:25044   */\n      0x1f\n        /* \"#utility.yul\":25034:25040   */\n      dup4\n        /* \"#utility.yul\":25031:25045   */\n      gt\n        /* \"#utility.yul\":25059:25060   */\n      0x01\n        /* \"#utility.yul\":25054:25672   */\n      dup2\n      eq\n      tag_586\n      jumpi\n        /* \"#utility.yul\":25716:25717   */\n      0x00\n        /* \"#utility.yul\":25733:25739   */\n      dup5\n        /* \"#utility.yul\":25730:25807   */\n      iszero\n      tag_587\n      jumpi\n        /* \"#utility.yul\":25782:25791   */\n      dup3\n        /* \"#utility.yul\":25777:25780   */\n      dup8\n        /* \"#utility.yul\":25773:25792   */\n      add\n        /* \"#utility.yul\":25767:25793   */\n      mload\n        /* \"#utility.yul\":25758:25793   */\n      swap1\n      pop\n        /* \"#utility.yul\":25730:25807   */\n    tag_587:\n        /* \"#utility.yul\":25833:25900   */\n      tag_588\n        /* \"#utility.yul\":25893:25899   */\n      dup6\n        /* \"#utility.yul\":25886:25891   */\n      dup3\n        /* \"#utility.yul\":25833:25900   */\n      tag_339\n      jump\t// in\n    tag_588:\n        /* \"#utility.yul\":25827:25831   */\n      dup7\n        /* \"#utility.yul\":25820:25901   */\n      sstore\n        /* \"#utility.yul\":25689:25911   */\n      pop\n        /* \"#utility.yul\":25024:25911   */\n      jump(tag_585)\n        /* \"#utility.yul\":25054:25672   */\n    tag_586:\n        /* \"#utility.yul\":25106:25110   */\n      0x1f\n        /* \"#utility.yul\":25102:25111   */\n      not\n        /* \"#utility.yul\":25094:25100   */\n      dup5\n        /* \"#utility.yul\":25090:25112   */\n      and\n        /* \"#utility.yul\":25140:25177   */\n      tag_589\n        /* \"#utility.yul\":25172:25176   */\n      dup7\n        /* \"#utility.yul\":25140:25177   */\n      tag_325\n      jump\t// in\n    tag_589:\n        /* \"#utility.yul\":25199:25200   */\n      0x00\n        /* \"#utility.yul\":25213:25421   */\n    tag_590:\n        /* \"#utility.yul\":25227:25234   */\n      dup3\n        /* \"#utility.yul\":25224:25225   */\n      dup2\n        /* \"#utility.yul\":25221:25235   */\n      lt\n        /* \"#utility.yul\":25213:25421   */\n      iszero\n      tag_592\n      jumpi\n        /* \"#utility.yul\":25306:25315   */\n      dup5\n        /* \"#utility.yul\":25301:25304   */\n      dup10\n        /* \"#utility.yul\":25297:25316   */\n      add\n        /* \"#utility.yul\":25291:25317   */\n      mload\n        /* \"#utility.yul\":25283:25289   */\n      dup3\n        /* \"#utility.yul\":25276:25318   */\n      sstore\n        /* \"#utility.yul\":25357:25358   */\n      0x01\n        /* \"#utility.yul\":25349:25355   */\n      dup3\n        /* \"#utility.yul\":25345:25359   */\n      add\n        /* \"#utility.yul\":25335:25359   */\n      swap2\n      pop\n        /* \"#utility.yul\":25404:25406   */\n      0x20\n        /* \"#utility.yul\":25393:25402   */\n      dup6\n        /* \"#utility.yul\":25389:25407   */\n      add\n        /* \"#utility.yul\":25376:25407   */\n      swap5\n      pop\n        /* \"#utility.yul\":25250:25254   */\n      0x20\n        /* \"#utility.yul\":25247:25248   */\n      dup2\n        /* \"#utility.yul\":25243:25255   */\n      add\n        /* \"#utility.yul\":25238:25255   */\n      swap1\n      pop\n        /* \"#utility.yul\":25213:25421   */\n      jump(tag_590)\n    tag_592:\n        /* \"#utility.yul\":25449:25455   */\n      dup7\n        /* \"#utility.yul\":25440:25447   */\n      dup4\n        /* \"#utility.yul\":25437:25456   */\n      lt\n        /* \"#utility.yul\":25434:25613   */\n      iszero\n      tag_593\n      jumpi\n        /* \"#utility.yul\":25507:25516   */\n      dup5\n        /* \"#utility.yul\":25502:25505   */\n      dup10\n        /* \"#utility.yul\":25498:25517   */\n      add\n        /* \"#utility.yul\":25492:25518   */\n      mload\n        /* \"#utility.yul\":25550:25598   */\n      tag_594\n        /* \"#utility.yul\":25592:25596   */\n      0x1f\n        /* \"#utility.yul\":25584:25590   */\n      dup10\n        /* \"#utility.yul\":25580:25597   */\n      and\n        /* \"#utility.yul\":25569:25578   */\n      dup3\n        /* \"#utility.yul\":25550:25598   */\n      tag_338\n      jump\t// in\n    tag_594:\n        /* \"#utility.yul\":25542:25548   */\n      dup4\n        /* \"#utility.yul\":25535:25599   */\n      sstore\n        /* \"#utility.yul\":25457:25613   */\n      pop\n        /* \"#utility.yul\":25434:25613   */\n    tag_593:\n        /* \"#utility.yul\":25659:25660   */\n      0x01\n        /* \"#utility.yul\":25655:25656   */\n      0x02\n        /* \"#utility.yul\":25647:25653   */\n      dup9\n        /* \"#utility.yul\":25643:25657   */\n      mul\n        /* \"#utility.yul\":25639:25661   */\n      add\n        /* \"#utility.yul\":25633:25637   */\n      dup9\n        /* \"#utility.yul\":25626:25662   */\n      sstore\n        /* \"#utility.yul\":25061:25672   */\n      pop\n      pop\n      pop\n        /* \"#utility.yul\":25024:25911   */\n    tag_585:\n      pop\n        /* \"#utility.yul\":24614:25917   */\n      pop\n      pop\n      pop\n        /* \"#utility.yul\":24522:25917   */\n      pop\n      pop\n      jump\t// out\n        /* \"#utility.yul\":25923:26547   */\n    tag_140:\n        /* \"#utility.yul\":26112:26116   */\n      0x00\n        /* \"#utility.yul\":26150:26152   */\n      0x60\n        /* \"#utility.yul\":26139:26148   */\n      dup3\n        /* \"#utility.yul\":26135:26153   */\n      add\n        /* \"#utility.yul\":26127:26153   */\n      swap1\n      pop\n        /* \"#utility.yul\":26199:26208   */\n      dup2\n        /* \"#utility.yul\":26193:26197   */\n      dup2\n        /* \"#utility.yul\":26189:26209   */\n      sub\n        /* \"#utility.yul\":26185:26186   */\n      0x00\n        /* \"#utility.yul\":26174:26183   */\n      dup4\n        /* \"#utility.yul\":26170:26187   */\n      add\n        /* \"#utility.yul\":26163:26210   */\n      mstore\n        /* \"#utility.yul\":26227:26305   */\n      tag_596\n        /* \"#utility.yul\":26300:26304   */\n      dup2\n        /* \"#utility.yul\":26291:26297   */\n      dup7\n        /* \"#utility.yul\":26227:26305   */\n      tag_305\n      jump\t// in\n    tag_596:\n        /* \"#utility.yul\":26219:26305   */\n      swap1\n      pop\n        /* \"#utility.yul\":26352:26361   */\n      dup2\n        /* \"#utility.yul\":26346:26350   */\n      dup2\n        /* \"#utility.yul\":26342:26362   */\n      sub\n        /* \"#utility.yul\":26337:26339   */\n      0x20\n        /* \"#utility.yul\":26326:26335   */\n      dup4\n        /* \"#utility.yul\":26322:26340   */\n      add\n        /* \"#utility.yul\":26315:26363   */\n      mstore\n        /* \"#utility.yul\":26380:26458   */\n      tag_597\n        /* \"#utility.yul\":26453:26457   */\n      dup2\n        /* \"#utility.yul\":26444:26450   */\n      dup6\n        /* \"#utility.yul\":26380:26458   */\n      tag_305\n      jump\t// in\n    tag_597:\n        /* \"#utility.yul\":26372:26458   */\n      swap1\n      pop\n        /* \"#utility.yul\":26468:26540   */\n      tag_598\n        /* \"#utility.yul\":26536:26538   */\n      0x40\n        /* \"#utility.yul\":26525:26534   */\n      dup4\n        /* \"#utility.yul\":26521:26539   */\n      add\n        /* \"#utility.yul\":26512:26518   */\n      dup5\n        /* \"#utility.yul\":26468:26540   */\n      tag_307\n      jump\t// in\n    tag_598:\n        /* \"#utility.yul\":25923:26547   */\n      swap5\n      swap4\n      pop\n      pop\n      pop\n      pop\n      jump\t// out\n        /* \"#utility.yul\":26553:26719   */\n    tag_340:\n        /* \"#utility.yul\":26693:26711   */\n      0x5061757361626c653a2070617573656400000000000000000000000000000000\n        /* \"#utility.yul\":26689:26690   */\n      0x00\n        /* \"#utility.yul\":26681:26687   */\n      dup3\n        /* \"#utility.yul\":26677:26691   */\n      add\n        /* \"#utility.yul\":26670:26712   */\n      mstore\n        /* \"#utility.yul\":26553:26719   */\n      pop\n      jump\t// out\n        /* \"#utility.yul\":26725:27091   */\n    tag_341:\n        /* \"#utility.yul\":26867:26870   */\n      0x00\n        /* \"#utility.yul\":26888:26955   */\n      tag_601\n        /* \"#utility.yul\":26952:26954   */\n      0x10\n        /* \"#utility.yul\":26947:26950   */\n      dup4\n        /* \"#utility.yul\":26888:26955   */\n      tag_304\n      jump\t// in\n    tag_601:\n        /* \"#utility.yul\":26881:26955   */\n      swap2\n      pop\n        /* \"#utility.yul\":26964:27057   */\n      tag_602\n        /* \"#utility.yul\":27053:27056   */\n      dup3\n        /* \"#utility.yul\":26964:27057   */\n      tag_340\n      jump\t// in\n    tag_602:\n        /* \"#utility.yul\":27082:27084   */\n      0x20\n        /* \"#utility.yul\":27077:27080   */\n      dup3\n        /* \"#utility.yul\":27073:27085   */\n      add\n        /* \"#utility.yul\":27066:27085   */\n      swap1\n      pop\n        /* \"#utility.yul\":26725:27091   */\n      swap2\n      swap1\n      pop\n      jump\t// out\n        /* \"#utility.yul\":27097:27516   */\n    tag_203:\n        /* \"#utility.yul\":27263:27267   */\n      0x00\n        /* \"#utility.yul\":27301:27303   */\n      0x20\n        /* \"#utility.yul\":27290:27299   */\n      dup3\n        /* \"#utility.yul\":27286:27304   */\n      add\n        /* \"#utility.yul\":27278:27304   */\n      swap1\n      pop\n        /* \"#utility.yul\":27350:27359   */\n      dup2\n        /* \"#utility.yul\":27344:27348   */\n      dup2\n        /* \"#utility.yul\":27340:27360   */\n      sub\n        /* \"#utility.yul\":27336:27337   */\n      0x00\n        /* \"#utility.yul\":27325:27334   */\n      dup4\n        /* \"#utility.yul\":27321:27338   */\n      add\n        /* \"#utility.yul\":27314:27361   */\n      mstore\n        /* \"#utility.yul\":27378:27509   */\n      tag_604\n        /* \"#utility.yul\":27504:27508   */\n      dup2\n        /* \"#utility.yul\":27378:27509   */\n      tag_341\n      jump\t// in\n    tag_604:\n        /* \"#utility.yul\":27370:27509   */\n      swap1\n      pop\n        /* \"#utility.yul\":27097:27516   */\n      swap2\n      swap1\n      pop\n      jump\t// out\n        /* \"#utility.yul\":27522:27744   */\n    tag_219:\n        /* \"#utility.yul\":27615:27619   */\n      0x00\n        /* \"#utility.yul\":27653:27655   */\n      0x20\n        /* \"#utility.yul\":27642:27651   */\n      dup3\n        /* \"#utility.yul\":27638:27656   */\n      add\n        /* \"#utility.yul\":27630:27656   */\n      swap1\n      pop\n        /* \"#utility.yul\":27666:27737   */\n      tag_606\n        /* \"#utility.yul\":27734:27735   */\n      0x00\n        /* \"#utility.yul\":27723:27732   */\n      dup4\n        /* \"#utility.yul\":27719:27736   */\n      add\n        /* \"#utility.yul\":27710:27716   */\n      dup5\n        /* \"#utility.yul\":27666:27737   */\n      tag_306\n      jump\t// in\n    tag_606:\n        /* \"#utility.yul\":27522:27744   */\n      swap3\n      swap2\n      pop\n      pop\n      jump\t// out\n        /* \"#utility.yul\":27750:27923   */\n    tag_342:\n        /* \"#utility.yul\":27890:27915   */\n      0x416363657373436f6e74726f6c3a206163636f756e7420000000000000000000\n        /* \"#utility.yul\":27886:27887   */\n      0x00\n        /* \"#utility.yul\":27878:27884   */\n      dup3\n        /* \"#utility.yul\":27874:27888   */\n      add\n        /* \"#utility.yul\":27867:27916   */\n      mstore\n        /* \"#utility.yul\":27750:27923   */\n      pop\n      jump\t// out\n        /* \"#utility.yul\":27929:28331   */\n    tag_343:\n        /* \"#utility.yul\":28089:28092   */\n      0x00\n        /* \"#utility.yul\":28110:28195   */\n      tag_609\n        /* \"#utility.yul\":28192:28194   */\n      0x17\n        /* \"#utility.yul\":28187:28190   */\n      dup4\n        /* \"#utility.yul\":28110:28195   */\n      tag_308\n      jump\t// in\n    tag_609:\n        /* \"#utility.yul\":28103:28195   */\n      swap2\n      pop\n        /* \"#utility.yul\":28204:28297   */\n      tag_610\n        /* \"#utility.yul\":28293:28296   */\n      dup3\n        /* \"#utility.yul\":28204:28297   */\n      tag_342\n      jump\t// in\n    tag_610:\n        /* \"#utility.yul\":28322:28324   */\n      0x17\n        /* \"#utility.yul\":28317:28320   */\n      dup3\n        /* \"#utility.yul\":28313:28325   */\n      add\n        /* \"#utility.yul\":28306:28325   */\n      swap1\n      pop\n        /* \"#utility.yul\":27929:28331   */\n      swap2\n      swap1\n      pop\n      jump\t// out\n        /* \"#utility.yul\":28337:28504   */\n    tag_344:\n        /* \"#utility.yul\":28477:28496   */\n      0x206973206d697373696e6720726f6c6520000000000000000000000000000000\n        /* \"#utility.yul\":28473:28474   */\n      0x00\n        /* \"#utility.yul\":28465:28471   */\n      dup3\n        /* \"#utility.yul\":28461:28475   */\n      add\n        /* \"#utility.yul\":28454:28497   */\n      mstore\n        /* \"#utility.yul\":28337:28504   */\n      pop\n      jump\t// out\n        /* \"#utility.yul\":28510:28912   */\n    tag_345:\n        /* \"#utility.yul\":28670:28673   */\n      0x00\n        /* \"#utility.yul\":28691:28776   */\n      tag_613\n        /* \"#utility.yul\":28773:28775   */\n      0x11\n        /* \"#utility.yul\":28768:28771   */\n      dup4\n        /* \"#utility.yul\":28691:28776   */\n      tag_308\n      jump\t// in\n    tag_613:\n        /* \"#utility.yul\":28684:28776   */\n      swap2\n      pop\n        /* \"#utility.yul\":28785:28878   */\n      tag_614\n        /* \"#utility.yul\":28874:28877   */\n      dup3\n        /* \"#utility.yul\":28785:28878   */\n      tag_344\n      jump\t// in\n    tag_614:\n        /* \"#utility.yul\":28903:28905   */\n      0x11\n        /* \"#utility.yul\":28898:28901   */\n      dup3\n        /* \"#utility.yul\":28894:28906   */\n      add\n        /* \"#utility.yul\":28887:28906   */\n      swap1\n      pop\n        /* \"#utility.yul\":28510:28912   */\n      swap2\n      swap1\n      pop\n      jump\t// out\n        /* \"#utility.yul\":28918:29885   */\n    tag_233:\n        /* \"#utility.yul\":29300:29303   */\n      0x00\n        /* \"#utility.yul\":29322:29470   */\n      tag_616\n        /* \"#utility.yul\":29466:29469   */\n      dup3\n        /* \"#utility.yul\":29322:29470   */\n      tag_343\n      jump\t// in\n    tag_616:\n        /* \"#utility.yul\":29315:29470   */\n      swap2\n      pop\n        /* \"#utility.yul\":29487:29582   */\n      tag_617\n        /* \"#utility.yul\":29578:29581   */\n      dup3\n        /* \"#utility.yul\":29569:29575   */\n      dup6\n        /* \"#utility.yul\":29487:29582   */\n      tag_309\n      jump\t// in\n    tag_617:\n        /* \"#utility.yul\":29480:29582   */\n      swap2\n      pop\n        /* \"#utility.yul\":29599:29747   */\n      tag_618\n        /* \"#utility.yul\":29743:29746   */\n      dup3\n        /* \"#utility.yul\":29599:29747   */\n      tag_345\n      jump\t// in\n    tag_618:\n        /* \"#utility.yul\":29592:29747   */\n      swap2\n      pop\n        /* \"#utility.yul\":29764:29859   */\n      tag_619\n        /* \"#utility.yul\":29855:29858   */\n      dup3\n        /* \"#utility.yul\":29846:29852   */\n      dup5\n        /* \"#utility.yul\":29764:29859   */\n      tag_309\n      jump\t// in\n    tag_619:\n        /* \"#utility.yul\":29757:29859   */\n      swap2\n      pop\n        /* \"#utility.yul\":29876:29879   */\n      dup2\n        /* \"#utility.yul\":29869:29879   */\n      swap1\n      pop\n        /* \"#utility.yul\":28918:29885   */\n      swap4\n      swap3\n      pop\n      pop\n      pop\n      jump\t// out\n        /* \"#utility.yul\":29891:30061   */\n    tag_346:\n        /* \"#utility.yul\":30031:30053   */\n      0x5061757361626c653a206e6f7420706175736564000000000000000000000000\n        /* \"#utility.yul\":30027:30028   */\n      0x00\n        /* \"#utility.yul\":30019:30025   */\n      dup3\n        /* \"#utility.yul\":30015:30029   */\n      add\n        /* \"#utility.yul\":30008:30054   */\n      mstore\n        /* \"#utility.yul\":29891:30061   */\n      pop\n      jump\t// out\n        /* \"#utility.yul\":30067:30433   */\n    tag_347:\n        /* \"#utility.yul\":30209:30212   */\n      0x00\n        /* \"#utility.yul\":30230:30297   */\n      tag_622\n        /* \"#utility.yul\":30294:30296   */\n      0x14\n        /* \"#utility.yul\":30289:30292   */\n      dup4\n        /* \"#utility.yul\":30230:30297   */\n      tag_304\n      jump\t// in\n    tag_622:\n        /* \"#utility.yul\":30223:30297   */\n      swap2\n      pop\n        /* \"#utility.yul\":30306:30399   */\n      tag_623\n        /* \"#utility.yul\":30395:30398   */\n      dup3\n        /* \"#utility.yul\":30306:30399   */\n      tag_346\n      jump\t// in\n    tag_623:\n        /* \"#utility.yul\":30424:30426   */\n      0x20\n        /* \"#utility.yul\":30419:30422   */\n      dup3\n        /* \"#utility.yul\":30415:30427   */\n      add\n        /* \"#utility.yul\":30408:30427   */\n      swap1\n      pop\n        /* \"#utility.yul\":30067:30433   */\n      swap2\n      swap1\n      pop\n      jump\t// out\n        /* \"#utility.yul\":30439:30858   */\n    tag_239:\n        /* \"#utility.yul\":30605:30609   */\n      0x00\n        /* \"#utility.yul\":30643:30645   */\n      0x20\n        /* \"#utility.yul\":30632:30641   */\n      dup3\n        /* \"#utility.yul\":30628:30646   */\n      add\n        /* \"#utility.yul\":30620:30646   */\n      swap1\n      pop\n        /* \"#utility.yul\":30692:30701   */\n      dup2\n        /* \"#utility.yul\":30686:30690   */\n      dup2\n        /* \"#utility.yul\":30682:30702   */\n      sub\n        /* \"#utility.yul\":30678:30679   */\n      0x00\n        /* \"#utility.yul\":30667:30676   */\n      dup4\n        /* \"#utility.yul\":30663:30680   */\n      add\n        /* \"#utility.yul\":30656:30703   */\n      mstore\n        /* \"#utility.yul\":30720:30851   */\n      tag_625\n        /* \"#utility.yul\":30846:30850   */\n      dup2\n        /* \"#utility.yul\":30720:30851   */\n      tag_347\n      jump\t// in\n    tag_625:\n        /* \"#utility.yul\":30712:30851   */\n      swap1\n      pop\n        /* \"#utility.yul\":30439:30858   */\n      swap2\n      swap1\n      pop\n      jump\t// out\n        /* \"#utility.yul\":30864:31044   */\n    tag_348:\n        /* \"#utility.yul\":30912:30989   */\n      0x4e487b7100000000000000000000000000000000000000000000000000000000\n        /* \"#utility.yul\":30909:30910   */\n      0x00\n        /* \"#utility.yul\":30902:30990   */\n      mstore\n        /* \"#utility.yul\":31009:31013   */\n      0x11\n        /* \"#utility.yul\":31006:31007   */\n      0x04\n        /* \"#utility.yul\":30999:31014   */\n      mstore\n        /* \"#utility.yul\":31033:31037   */\n      0x24\n        /* \"#utility.yul\":31030:31031   */\n      0x00\n        /* \"#utility.yul\":31023:31038   */\n      revert\n        /* \"#utility.yul\":31050:31460   */\n    tag_244:\n        /* \"#utility.yul\":31090:31097   */\n      0x00\n        /* \"#utility.yul\":31113:31133   */\n      tag_628\n        /* \"#utility.yul\":31131:31132   */\n      dup3\n        /* \"#utility.yul\":31113:31133   */\n      tag_300\n      jump\t// in\n    tag_628:\n        /* \"#utility.yul\":31108:31133   */\n      swap2\n      pop\n        /* \"#utility.yul\":31147:31167   */\n      tag_629\n        /* \"#utility.yul\":31165:31166   */\n      dup4\n        /* \"#utility.yul\":31147:31167   */\n      tag_300\n      jump\t// in\n    tag_629:\n        /* \"#utility.yul\":31142:31167   */\n      swap3\n      pop\n        /* \"#utility.yul\":31202:31203   */\n      dup3\n        /* \"#utility.yul\":31199:31200   */\n      dup3\n        /* \"#utility.yul\":31195:31204   */\n      mul\n        /* \"#utility.yul\":31224:31254   */\n      tag_630\n        /* \"#utility.yul\":31242:31253   */\n      dup2\n        /* \"#utility.yul\":31224:31254   */\n      tag_300\n      jump\t// in\n    tag_630:\n        /* \"#utility.yul\":31213:31254   */\n      swap2\n      pop\n        /* \"#utility.yul\":31403:31404   */\n      dup3\n        /* \"#utility.yul\":31394:31401   */\n      dup3\n        /* \"#utility.yul\":31390:31405   */\n      div\n        /* \"#utility.yul\":31387:31388   */\n      dup5\n        /* \"#utility.yul\":31384:31406   */\n      eq\n        /* \"#utility.yul\":31364:31365   */\n      dup4\n        /* \"#utility.yul\":31357:31366   */\n      iszero\n        /* \"#utility.yul\":31337:31420   */\n      or\n        /* \"#utility.yul\":31314:31453   */\n      tag_631\n      jumpi\n        /* \"#utility.yul\":31433:31451   */\n      tag_632\n      tag_348\n      jump\t// in\n    tag_632:\n        /* \"#utility.yul\":31314:31453   */\n    tag_631:\n        /* \"#utility.yul\":31098:31460   */\n      pop\n        /* \"#utility.yul\":31050:31460   */\n      swap3\n      swap2\n      pop\n      pop\n      jump\t// out\n        /* \"#utility.yul\":31466:31657   */\n    tag_246:\n        /* \"#utility.yul\":31506:31509   */\n      0x00\n        /* \"#utility.yul\":31525:31545   */\n      tag_634\n        /* \"#utility.yul\":31543:31544   */\n      dup3\n        /* \"#utility.yul\":31525:31545   */\n      tag_300\n      jump\t// in\n    tag_634:\n        /* \"#utility.yul\":31520:31545   */\n      swap2\n      pop\n        /* \"#utility.yul\":31559:31579   */\n      tag_635\n        /* \"#utility.yul\":31577:31578   */\n      dup4\n        /* \"#utility.yul\":31559:31579   */\n      tag_300\n      jump\t// in\n    tag_635:\n        /* \"#utility.yul\":31554:31579   */\n      swap3\n      pop\n        /* \"#utility.yul\":31602:31603   */\n      dup3\n        /* \"#utility.yul\":31599:31600   */\n      dup3\n        /* \"#utility.yul\":31595:31604   */\n      add\n        /* \"#utility.yul\":31588:31604   */\n      swap1\n      pop\n        /* \"#utility.yul\":31623:31626   */\n      dup1\n        /* \"#utility.yul\":31620:31621   */\n      dup3\n        /* \"#utility.yul\":31617:31627   */\n      gt\n        /* \"#utility.yul\":31614:31650   */\n      iszero\n      tag_636\n      jumpi\n        /* \"#utility.yul\":31630:31648   */\n      tag_637\n      tag_348\n      jump\t// in\n    tag_637:\n        /* \"#utility.yul\":31614:31650   */\n    tag_636:\n        /* \"#utility.yul\":31466:31657   */\n      swap3\n      swap2\n      pop\n      pop\n      jump\t// out\n        /* \"#utility.yul\":31663:31843   */\n    tag_253:\n        /* \"#utility.yul\":31711:31788   */\n      0x4e487b7100000000000000000000000000000000000000000000000000000000\n        /* \"#utility.yul\":31708:31709   */\n      0x00\n        /* \"#utility.yul\":31701:31789   */\n      mstore\n        /* \"#utility.yul\":31808:31812   */\n      0x32\n        /* \"#utility.yul\":31805:31806   */\n      0x04\n        /* \"#utility.yul\":31798:31813   */\n      mstore\n        /* \"#utility.yul\":31832:31836   */\n      0x24\n        /* \"#utility.yul\":31829:31830   */\n      0x00\n        /* \"#utility.yul\":31822:31837   */\n      revert\n        /* \"#utility.yul\":31849:32020   */\n    tag_266:\n        /* \"#utility.yul\":31888:31891   */\n      0x00\n        /* \"#utility.yul\":31911:31935   */\n      tag_640\n        /* \"#utility.yul\":31929:31934   */\n      dup3\n        /* \"#utility.yul\":31911:31935   */\n      tag_300\n      jump\t// in\n    tag_640:\n        /* \"#utility.yul\":31902:31935   */\n      swap2\n      pop\n        /* \"#utility.yul\":31957:31961   */\n      0x00\n        /* \"#utility.yul\":31950:31955   */\n      dup3\n        /* \"#utility.yul\":31947:31962   */\n      sub\n        /* \"#utility.yul\":31944:31985   */\n      tag_641\n      jumpi\n        /* \"#utility.yul\":31965:31983   */\n      tag_642\n      tag_348\n      jump\t// in\n    tag_642:\n        /* \"#utility.yul\":31944:31985   */\n    tag_641:\n        /* \"#utility.yul\":32012:32013   */\n      0x01\n        /* \"#utility.yul\":32005:32010   */\n      dup3\n        /* \"#utility.yul\":32001:32014   */\n      sub\n        /* \"#utility.yul\":31994:32014   */\n      swap1\n      pop\n        /* \"#utility.yul\":31849:32020   */\n      swap2\n      swap1\n      pop\n      jump\t// out\n        /* \"#utility.yul\":32026:32208   */\n    tag_349:\n        /* \"#utility.yul\":32166:32200   */\n      0x537472696e67733a20686578206c656e67746820696e73756666696369656e74\n        /* \"#utility.yul\":32162:32163   */\n      0x00\n        /* \"#utility.yul\":32154:32160   */\n      dup3\n        /* \"#utility.yul\":32150:32164   */\n      add\n        /* \"#utility.yul\":32143:32201   */\n      mstore\n        /* \"#utility.yul\":32026:32208   */\n      pop\n      jump\t// out\n        /* \"#utility.yul\":32214:32580   */\n    tag_350:\n        /* \"#utility.yul\":32356:32359   */\n      0x00\n        /* \"#utility.yul\":32377:32444   */\n      tag_645\n        /* \"#utility.yul\":32441:32443   */\n      0x20\n        /* \"#utility.yul\":32436:32439   */\n      dup4\n        /* \"#utility.yul\":32377:32444   */\n      tag_304\n      jump\t// in\n    tag_645:\n        /* \"#utility.yul\":32370:32444   */\n      swap2\n      pop\n        /* \"#utility.yul\":32453:32546   */\n      tag_646\n        /* \"#utility.yul\":32542:32545   */\n      dup3\n        /* \"#utility.yul\":32453:32546   */\n      tag_349\n      jump\t// in\n    tag_646:\n        /* \"#utility.yul\":32571:32573   */\n      0x20\n        /* \"#utility.yul\":32566:32569   */\n      dup3\n        /* \"#utility.yul\":32562:32574   */\n      add\n        /* \"#utility.yul\":32555:32574   */\n      swap1\n      pop\n        /* \"#utility.yul\":32214:32580   */\n      swap2\n      swap1\n      pop\n      jump\t// out\n        /* \"#utility.yul\":32586:33005   */\n    tag_269:\n        /* \"#utility.yul\":32752:32756   */\n      0x00\n        /* \"#utility.yul\":32790:32792   */\n      0x20\n        /* \"#utility.yul\":32779:32788   */\n      dup3\n        /* \"#utility.yul\":32775:32793   */\n      add\n        /* \"#utility.yul\":32767:32793   */\n      swap1\n      pop\n        /* \"#utility.yul\":32839:32848   */\n      dup2\n        /* \"#utility.yul\":32833:32837   */\n      dup2\n        /* \"#utility.yul\":32829:32849   */\n      sub\n        /* \"#utility.yul\":32825:32826   */\n      0x00\n        /* \"#utility.yul\":32814:32823   */\n      dup4\n        /* \"#utility.yul\":32810:32827   */\n      add\n        /* \"#utility.yul\":32803:32850   */\n      mstore\n        /* \"#utility.yul\":32867:32998   */\n      tag_648\n        /* \"#utility.yul\":32993:32997   */\n      dup2\n        /* \"#utility.yul\":32867:32998   */\n      tag_350\n      jump\t// in\n    tag_648:\n        /* \"#utility.yul\":32859:32998   */\n      swap1\n      pop\n        /* \"#utility.yul\":32586:33005   */\n      swap2\n      swap1\n      pop\n      jump\t// out\n\n    auxdata: 0xa26469706673582212206d7e31e3273a2de9c6e4adaa273103e031d6782cc7e583c8c985fb63780b5fa164736f6c634300081a0033\n}\n",
				"bytecode": {
					"linkReferences": {},
					"object": "608060405234801561000f575f80fd5b505f60015f6101000a81548160ff02191690831515021790555061003b5f801b3361007060201b60201c565b61006b7f114e74f6ea3bd819998f78687bfcb11b140da08e9b7d222fa9c1f1ba1f2aa1223361007060201b60201c565b6101c0565b610080828261015660201b60201c565b6101525760015f808481526020019081526020015f205f015f8373ffffffffffffffffffffffffffffffffffffffff1673ffffffffffffffffffffffffffffffffffffffff1681526020019081526020015f205f6101000a81548160ff0219169083151502179055506100f76101b960201b60201c565b73ffffffffffffffffffffffffffffffffffffffff168173ffffffffffffffffffffffffffffffffffffffff16837f2f8788117e7eff1d82e926ec794901d17c78024a50270940304540a733656f0d60405160405180910390a45b5050565b5f805f8481526020019081526020015f205f015f8373ffffffffffffffffffffffffffffffffffffffff1673ffffffffffffffffffffffffffffffffffffffff1681526020019081526020015f205f9054906101000a900460ff16905092915050565b5f33905090565b61261c806101cd5f395ff3fe608060405234801561000f575f80fd5b50600436106100f3575f3560e01c80635c975abb116100955780638f2b91ea116100645780638f2b91ea1461024857806391d148541461027e578063a217fddf146102ae578063d547741f146102cc576100f3565b80635c975abb146101d157806382aefa24146101ef5780638456cb591461020d5780638b23d87514610217576100f3565b80632f2ff15d116100d15780632f2ff15d1461017357806336568abe1461018f57806337851f2d146101ab5780633f4ba83a146101c7576100f3565b806301ffc9a7146100f7578063142e154214610127578063248a9ca314610143575b5f80fd5b610111600480360381019061010c919061164f565b6102e8565b60405161011e9190611694565b60405180910390f35b610141600480360381019061013c91906117e9565b610361565b005b61015d60048036038101906101589190611863565b6104ef565b60405161016a919061189d565b60405180910390f35b61018d60048036038101906101889190611910565b61050b565b005b6101a960048036038101906101a49190611910565b61052c565b005b6101c560048036038101906101c0919061194e565b6105af565b005b6101cf61091f565b005b6101d9610936565b6040516101e69190611694565b60405180910390f35b6101f761094b565b604051610204919061189d565b60405180910390f35b61021561096f565b005b610231600480360381019061022c91906117e9565b610986565b60405161023f929190611b43565b60405180910390f35b610262600480360381019061025d91906117e9565b610c53565b6040516102759796959493929190611bd7565b60405180910390f35b61029860048036038101906102939190611910565b610e85565b6040516102a59190611694565b60405180910390f35b6102b6610ee8565b6040516102c3919061189d565b60405180910390f35b6102e660048036038101906102e19190611910565b610eee565b005b5f7f7965db0b000000000000000000000000000000000000000000000000000000007bffffffffffffffffffffffffffffffffffffffffffffffffffffffff1916827bffffffffffffffffffffffffffffffffffffffffffffffffffffffff1916148061035a575061035982610f0f565b5b9050919050565b7f114e74f6ea3bd819998f78687bfcb11b140da08e9b7d222fa9c1f1ba1f2aa12261038b81610f78565b610393610f8c565b5f6002836040516103a49190611c93565b908152602001604051809103902060040154116103f6576040517f08c379a00000000000000000000000000000000000000000000000000000000081526004016103ed90611cf3565b60405180910390fd5b6002826040516104069190611c93565b90815260200160405180910390206005015f9054906101000a900460ff1615610464576040517f08c379a000000000000000000000000000000000000000000000000000000000815260040161045b90611d5b565b60405180910390fd5b60016002836040516104769190611c93565b90815260200160405180910390206005015f6101000a81548160ff0219169083151502179055503373ffffffffffffffffffffffffffffffffffffffff167f7b87df98e4ff33f07a9fbda6f93a6b69c498e48444877da8c54a83d3a43aee5b836040516104e39190611d79565b60405180910390a25050565b5f805f8381526020019081526020015f20600101549050919050565b610514826104ef565b61051d81610f78565b6105278383610fd6565b505050565b6105346110b0565b73ffffffffffffffffffffffffffffffffffffffff168173ffffffffffffffffffffffffffffffffffffffff16146105a1576040517f08c379a000000000000000000000000000000000000000000000000000000000815260040161059890611e09565b60405180910390fd5b6105ab82826110b7565b5050565b7f114e74f6ea3bd819998f78687bfcb11b140da08e9b7d222fa9c1f1ba1f2aa1226105d981610f78565b6105e1610f8c565b5f855111610624576040517f08c379a000000000000000000000000000000000000000000000000000000000815260040161061b90611e71565b60405180910390fd5b5f73ffffffffffffffffffffffffffffffffffffffff168473ffffffffffffffffffffffffffffffffffffffff1603610692576040517f08c379a000000000000000000000000000000000000000000000000000000000815260040161068990611ed9565b60405180910390fd5b5f8351116106d5576040517f08c379a00000000000000000000000000000000000000000000000000000000081526004016106cc90611f41565b60405180910390fd5b5f6002866040516106e69190611c93565b90815260200160405180910390206004015414610738576040517f08c379a000000000000000000000000000000000000000000000000000000000815260040161072f90611fa9565b60405180910390fd5b6040518060e001604052808681526020013373ffffffffffffffffffffffffffffffffffffffff1681526020018573ffffffffffffffffffffffffffffffffffffffff1681526020018481526020014281526020015f15158152602001838152506002866040516107a99190611c93565b90815260200160405180910390205f820151815f0190816107ca91906121c1565b506020820151816001015f6101000a81548173ffffffffffffffffffffffffffffffffffffffff021916908373ffffffffffffffffffffffffffffffffffffffff1602179055506040820151816002015f6101000a81548173ffffffffffffffffffffffffffffffffffffffff021916908373ffffffffffffffffffffffffffffffffffffffff160217905550606082015181600301908161086c91906121c1565b506080820151816004015560a0820151816005015f6101000a81548160ff02191690831515021790555060c08201518160060190816108ab91906121c1565b509050508373ffffffffffffffffffffffffffffffffffffffff163373ffffffffffffffffffffffffffffffffffffffff167f2af155826810ef2dfc642eb7e9c4b891594d8067978057a44fc1e01773bcd70687864260405161091093929190612290565b60405180910390a35050505050565b5f801b61092b81610f78565b610933611191565b50565b5f60015f9054906101000a900460ff16905090565b7f114e74f6ea3bd819998f78687bfcb11b140da08e9b7d222fa9c1f1ba1f2aa12281565b5f801b61097b81610f78565b6109836111f2565b50565b5f61098f611582565b60028360405161099f9190611c93565b90815260200160405180910390206040518060e00160405290815f820180546109c790611ff4565b80601f01602080910402602001604051908101604052809291908181526020018280546109f390611ff4565b8015610a3e5780601f10610a1557610100808354040283529160200191610a3e565b820191905f5260205f20905b815481529060010190602001808311610a2157829003601f168201915b50505050508152602001600182015f9054906101000a900473ffffffffffffffffffffffffffffffffffffffff1673ffffffffffffffffffffffffffffffffffffffff1673ffffffffffffffffffffffffffffffffffffffff168152602001600282015f9054906101000a900473ffffffffffffffffffffffffffffffffffffffff1673ffffffffffffffffffffffffffffffffffffffff1673ffffffffffffffffffffffffffffffffffffffff168152602001600382018054610b0190611ff4565b80601f0160208091040260200160405190810160405280929190818152602001828054610b2d90611ff4565b8015610b785780601f10610b4f57610100808354040283529160200191610b78565b820191905f5260205f20905b815481529060010190602001808311610b5b57829003601f168201915b5050505050815260200160048201548152602001600582015f9054906101000a900460ff16151515158152602001600682018054610bb590611ff4565b80601f0160208091040260200160405190810160405280929190818152602001828054610be190611ff4565b8015610c2c5780601f10610c0357610100808354040283529160200191610c2c565b820191905f5260205f20905b815481529060010190602001808311610c0f57829003601f168201915b50505050508152505090505f8160800151118015610c4c57508060a00151155b9150915091565b6002818051602081018201805184825260208301602085012081835280955050505050505f91509050805f018054610c8a90611ff4565b80601f0160208091040260200160405190810160405280929190818152602001828054610cb690611ff4565b8015610d015780601f10610cd857610100808354040283529160200191610d01565b820191905f5260205f20905b815481529060010190602001808311610ce457829003601f168201915b505050505090806001015f9054906101000a900473ffffffffffffffffffffffffffffffffffffffff1690806002015f9054906101000a900473ffffffffffffffffffffffffffffffffffffffff1690806003018054610d6090611ff4565b80601f0160208091040260200160405190810160405280929190818152602001828054610d8c90611ff4565b8015610dd75780601f10610dae57610100808354040283529160200191610dd7565b820191905f5260205f20905b815481529060010190602001808311610dba57829003601f168201915b505050505090806004015490806005015f9054906101000a900460ff1690806006018054610e0490611ff4565b80601f0160208091040260200160405190810160405280929190818152602001828054610e3090611ff4565b8015610e7b5780601f10610e5257610100808354040283529160200191610e7b565b820191905f5260205f20905b815481529060010190602001808311610e5e57829003601f168201915b5050505050905087565b5f805f8481526020019081526020015f205f015f8373ffffffffffffffffffffffffffffffffffffffff1673ffffffffffffffffffffffffffffffffffffffff1681526020019081526020015f205f9054906101000a900460ff16905092915050565b5f801b81565b610ef7826104ef565b610f0081610f78565b610f0a83836110b7565b505050565b5f7f01ffc9a7000000000000000000000000000000000000000000000000000000007bffffffffffffffffffffffffffffffffffffffffffffffffffffffff1916827bffffffffffffffffffffffffffffffffffffffffffffffffffffffff1916149050919050565b610f8981610f846110b0565b611253565b50565b610f94610936565b15610fd4576040517f08c379a0000000000000000000000000000000000000000000000000000000008152600401610fcb9061231d565b60405180910390fd5b565b610fe08282610e85565b6110ac5760015f808481526020019081526020015f205f015f8373ffffffffffffffffffffffffffffffffffffffff1673ffffffffffffffffffffffffffffffffffffffff1681526020019081526020015f205f6101000a81548160ff0219169083151502179055506110516110b0565b73ffffffffffffffffffffffffffffffffffffffff168173ffffffffffffffffffffffffffffffffffffffff16837f2f8788117e7eff1d82e926ec794901d17c78024a50270940304540a733656f0d60405160405180910390a45b5050565b5f33905090565b6110c18282610e85565b1561118d575f805f8481526020019081526020015f205f015f8373ffffffffffffffffffffffffffffffffffffffff1673ffffffffffffffffffffffffffffffffffffffff1681526020019081526020015f205f6101000a81548160ff0219169083151502179055506111326110b0565b73ffffffffffffffffffffffffffffffffffffffff168173ffffffffffffffffffffffffffffffffffffffff16837ff6391f5c32d9c69d2a47ea670b442974b53935d1edc7fd64eb21e047a839171b60405160405180910390a45b5050565b6111996112d7565b5f60015f6101000a81548160ff0219169083151502179055507f5db9ee0a495bf2e6ff9c91a7834c1ba4fdd244a5e8aa4e537bd38aeae4b073aa6111db6110b0565b6040516111e8919061233b565b60405180910390a1565b6111fa610f8c565b6001805f6101000a81548160ff0219169083151502179055507f62e78cea01bee320cd4e420270b5ea74000d11b0c9f74754ebdbfc544b05a25861123c6110b0565b604051611249919061233b565b60405180910390a1565b61125d8282610e85565b6112d35761126a81611320565b611277835f1c602061134d565b6040516020016112889291906123e8565b6040516020818303038152906040526040517f08c379a00000000000000000000000000000000000000000000000000000000081526004016112ca9190611d79565b60405180910390fd5b5050565b6112df610936565b61131e576040517f08c379a00000000000000000000000000000000000000000000000000000000081526004016113159061246b565b60405180910390fd5b565b60606113468273ffffffffffffffffffffffffffffffffffffffff16601460ff1661134d565b9050919050565b60605f600283600261135f91906124b6565b61136991906124f7565b67ffffffffffffffff811115611382576113816116c5565b5b6040519080825280601f01601f1916602001820160405280156113b45781602001600182028036833780820191505090505b5090507f3000000000000000000000000000000000000000000000000000000000000000815f815181106113eb576113ea61252a565b5b60200101907effffffffffffffffffffffffffffffffffffffffffffffffffffffffffffff191690815f1a9053507f78000000000000000000000000000000000000000000000000000000000000008160018151811061144e5761144d61252a565b5b60200101907effffffffffffffffffffffffffffffffffffffffffffffffffffffffffffff191690815f1a9053505f600184600261148c91906124b6565b61149691906124f7565b90505b6001811115611535577f3031323334353637383961626364656600000000000000000000000000000000600f8616601081106114d8576114d761252a565b5b1a60f81b8282815181106114ef576114ee61252a565b5b60200101907effffffffffffffffffffffffffffffffffffffffffffffffffffffffffffff191690815f1a905350600485901c94508061152e90612557565b9050611499565b505f8414611578576040517f08c379a000000000000000000000000000000000000000000000000000000000815260040161156f906125c8565b60405180910390fd5b8091505092915050565b6040518060e00160405280606081526020015f73ffffffffffffffffffffffffffffffffffffffff1681526020015f73ffffffffffffffffffffffffffffffffffffffff168152602001606081526020015f81526020015f15158152602001606081525090565b5f604051905090565b5f80fd5b5f80fd5b5f7fffffffff0000000000000000000000000000000000000000000000000000000082169050919050565b61162e816115fa565b8114611638575f80fd5b50565b5f8135905061164981611625565b92915050565b5f60208284031215611664576116636115f2565b5b5f6116718482850161163b565b91505092915050565b5f8115159050919050565b61168e8161167a565b82525050565b5f6020820190506116a75f830184611685565b92915050565b5f80fd5b5f80fd5b5f601f19601f8301169050919050565b7f4e487b71000000000000000000000000000000000000000000000000000000005f52604160045260245ffd5b6116fb826116b5565b810181811067ffffffffffffffff8211171561171a576117196116c5565b5b80604052505050565b5f61172c6115e9565b905061173882826116f2565b919050565b5f67ffffffffffffffff821115611757576117566116c5565b5b611760826116b5565b9050602081019050919050565b828183375f83830152505050565b5f61178d6117888461173d565b611723565b9050828152602081018484840111156117a9576117a86116b1565b5b6117b484828561176d565b509392505050565b5f82601f8301126117d0576117cf6116ad565b5b81356117e084826020860161177b565b91505092915050565b5f602082840312156117fe576117fd6115f2565b5b5f82013567ffffffffffffffff81111561181b5761181a6115f6565b5b611827848285016117bc565b91505092915050565b5f819050919050565b61184281611830565b811461184c575f80fd5b50565b5f8135905061185d81611839565b92915050565b5f60208284031215611878576118776115f2565b5b5f6118858482850161184f565b91505092915050565b61189781611830565b82525050565b5f6020820190506118b05f83018461188e565b92915050565b5f73ffffffffffffffffffffffffffffffffffffffff82169050919050565b5f6118df826118b6565b9050919050565b6118ef816118d5565b81146118f9575f80fd5b50565b5f8135905061190a816118e6565b92915050565b5f8060408385031215611926576119256115f2565b5b5f6119338582860161184f565b9250506020611944858286016118fc565b9150509250929050565b5f805f8060808587031215611966576119656115f2565b5b5f85013567ffffffffffffffff811115611983576119826115f6565b5b61198f878288016117bc565b94505060206119a0878288016118fc565b935050604085013567ffffffffffffffff8111156119c1576119c06115f6565b5b6119cd878288016117bc565b925050606085013567ffffffffffffffff8111156119ee576119ed6115f6565b5b6119fa878288016117bc565b91505092959194509250565b5f81519050919050565b5f82825260208201905092915050565b8281835e5f83830152505050565b5f611a3882611a06565b611a428185611a10565b9350611a52818560208601611a20565b611a5b816116b5565b840191505092915050565b611a6f816118d5565b82525050565b5f819050919050565b611a8781611a75565b82525050565b611a968161167a565b82525050565b5f60e083015f8301518482035f860152611ab68282611a2e565b9150506020830151611acb6020860182611a66565b506040830151611ade6040860182611a66565b5060608301518482036060860152611af68282611a2e565b9150506080830151611b0b6080860182611a7e565b5060a0830151611b1e60a0860182611a8d565b5060c083015184820360c0860152611b368282611a2e565b9150508091505092915050565b5f604082019050611b565f830185611685565b8181036020830152611b688184611a9c565b90509392505050565b5f82825260208201905092915050565b5f611b8b82611a06565b611b958185611b71565b9350611ba5818560208601611a20565b611bae816116b5565b840191505092915050565b611bc2816118d5565b82525050565b611bd181611a75565b82525050565b5f60e0820190508181035f830152611bef818a611b81565b9050611bfe6020830189611bb9565b611c0b6040830188611bb9565b8181036060830152611c1d8187611b81565b9050611c2c6080830186611bc8565b611c3960a0830185611685565b81810360c0830152611c4b8184611b81565b905098975050505050505050565b5f81905092915050565b5f611c6d82611a06565b611c778185611c59565b9350611c87818560208601611a20565b80840191505092915050565b5f611c9e8284611c63565b915081905092915050565b7f436572746966696361746520646f6573206e6f742065786973740000000000005f82015250565b5f611cdd601a83611b71565b9150611ce882611ca9565b602082019050919050565b5f6020820190508181035f830152611d0a81611cd1565b9050919050565b7f436572746966696361746520697320616c7265616479207265766f6b656400005f82015250565b5f611d45601e83611b71565b9150611d5082611d11565b602082019050919050565b5f6020820190508181035f830152611d7281611d39565b9050919050565b5f6020820190508181035f830152611d918184611b81565b905092915050565b7f416363657373436f6e74726f6c3a2063616e206f6e6c792072656e6f756e63655f8201527f20726f6c657320666f722073656c660000000000000000000000000000000000602082015250565b5f611df3602f83611b71565b9150611dfe82611d99565b604082019050919050565b5f6020820190508181035f830152611e2081611de7565b9050919050565b7f43657274696669636174652049442063616e6e6f7420626520656d70747900005f82015250565b5f611e5b601e83611b71565b9150611e6682611e27565b602082019050919050565b5f6020820190508181035f830152611e8881611e4f565b9050919050565b7f496e76616c69642073747564656e7420616464726573730000000000000000005f82015250565b5f611ec3601783611b71565b9150611ece82611e8f565b602082019050919050565b5f6020820190508181035f830152611ef081611eb7565b9050919050565b7f4950465320686173682063616e6e6f7420626520656d707479000000000000005f82015250565b5f611f2b601983611b71565b9150611f3682611ef7565b602082019050919050565b5f6020820190508181035f830152611f5881611f1f565b9050919050565b7f436572746966696361746520494420616c7265616479206578697374730000005f82015250565b5f611f93601d83611b71565b9150611f9e82611f5f565b602082019050919050565b5f6020820190508181035f830152611fc081611f87565b9050919050565b7f4e487b71000000000000000000000000000000000000000000000000000000005f52602260045260245ffd5b5f600282049050600182168061200b57607f821691505b60208210810361201e5761201d611fc7565b5b50919050565b5f819050815f5260205f209050919050565b5f6020601f8301049050919050565b5f82821b905092915050565b5f600883026120807fffffffffffffffffffffffffffffffffffffffffffffffffffffffffffffffff82612045565b61208a8683612045565b95508019841693508086168417925050509392505050565b5f819050919050565b5f6120c56120c06120bb84611a75565b6120a2565b611a75565b9050919050565b5f819050919050565b6120de836120ab565b6120f26120ea826120cc565b848454612051565b825550505050565b5f90565b6121066120fa565b6121118184846120d5565b505050565b5b81811015612134576121295f826120fe565b600181019050612117565b5050565b601f8211156121795761214a81612024565b61215384612036565b81016020851015612162578190505b61217661216e85612036565b830182612116565b50505b505050565b5f82821c905092915050565b5f6121995f198460080261217e565b1980831691505092915050565b5f6121b1838361218a565b9150826002028217905092915050565b6121ca82611a06565b67ffffffffffffffff8111156121e3576121e26116c5565b5b6121ed8254611ff4565b6121f8828285612138565b5f60209050601f831160018114612229575f8415612217578287015190505b61222185826121a6565b865550612288565b601f19841661223786612024565b5f5b8281101561225e57848901518255600182019150602085019450602081019050612239565b8683101561227b5784890151612277601f89168261218a565b8355505b6001600288020188555050505b505050505050565b5f6060820190508181035f8301526122a88186611b81565b905081810360208301526122bc8185611b81565b90506122cb6040830184611bc8565b949350505050565b7f5061757361626c653a20706175736564000000000000000000000000000000005f82015250565b5f612307601083611b71565b9150612312826122d3565b602082019050919050565b5f6020820190508181035f830152612334816122fb565b9050919050565b5f60208201905061234e5f830184611bb9565b92915050565b7f416363657373436f6e74726f6c3a206163636f756e74200000000000000000005f82015250565b5f612388601783611c59565b915061239382612354565b601782019050919050565b7f206973206d697373696e6720726f6c65200000000000000000000000000000005f82015250565b5f6123d2601183611c59565b91506123dd8261239e565b601182019050919050565b5f6123f28261237c565b91506123fe8285611c63565b9150612409826123c6565b91506124158284611c63565b91508190509392505050565b7f5061757361626c653a206e6f74207061757365640000000000000000000000005f82015250565b5f612455601483611b71565b915061246082612421565b602082019050919050565b5f6020820190508181035f83015261248281612449565b9050919050565b7f4e487b71000000000000000000000000000000000000000000000000000000005f52601160045260245ffd5b5f6124c082611a75565b91506124cb83611a75565b92508282026124d981611a75565b915082820484148315176124f0576124ef612489565b5b5092915050565b5f61250182611a75565b915061250c83611a75565b925082820190508082111561252457612523612489565b5b92915050565b7f4e487b71000000000000000000000000000000000000000000000000000000005f52603260045260245ffd5b5f61256182611a75565b91505f820361257357612572612489565b5b600182039050919050565b7f537472696e67733a20686578206c656e67746820696e73756666696369656e745f82015250565b5f6125b2602083611b71565b91506125bd8261257e565b602082019050919050565b5f6020820190508181035f8301526125df816125a6565b905091905056fea26469706673582212206d7e31e3273a2de9c6e4adaa273103e031d6782cc7e583c8c985fb63780b5fa164736f6c634300081a0033",
					"opcodes": "PUSH1 0x80 PUSH1 0x40 MSTORE CALLVALUE DUP1 ISZERO PUSH2 0xF JUMPI PUSH0 DUP1 REVERT JUMPDEST POP PUSH0 PUSH1 0x1 PUSH0 PUSH2 0x100 EXP DUP2 SLOAD DUP2 PUSH1 0xFF MUL NOT AND SWAP1 DUP4 ISZERO ISZERO MUL OR SWAP1 SSTORE POP PUSH2 0x3B PUSH0 DUP1 SHL CALLER PUSH2 0x70 PUSH1 0x20 SHL PUSH1 0x20 SHR JUMP JUMPDEST PUSH2 0x6B PUSH32 0x114E74F6EA3BD819998F78687BFCB11B140DA08E9B7D222FA9C1F1BA1F2AA122 CALLER PUSH2 0x70 PUSH1 0x20 SHL PUSH1 0x20 SHR JUMP JUMPDEST PUSH2 0x1C0 JUMP JUMPDEST PUSH2 0x80 DUP3 DUP3 PUSH2 0x156 PUSH1 0x20 SHL PUSH1 0x20 SHR JUMP JUMPDEST PUSH2 0x152 JUMPI PUSH1 0x1 PUSH0 DUP1 DUP5 DUP2 MSTORE PUSH1 0x20 ADD SWAP1 DUP2 MSTORE PUSH1 0x20 ADD PUSH0 KECCAK256 PUSH0 ADD PUSH0 DUP4 PUSH20 0xFFFFFFFFFFFFFFFFFFFFFFFFFFFFFFFFFFFFFFFF AND PUSH20 0xFFFFFFFFFFFFFFFFFFFFFFFFFFFFFFFFFFFFFFFF AND DUP2 MSTORE PUSH1 0x20 ADD SWAP1 DUP2 MSTORE PUSH1 0x20 ADD PUSH0 KECCAK256 PUSH0 PUSH2 0x100 EXP DUP2 SLOAD DUP2 PUSH1 0xFF MUL NOT AND SWAP1 DUP4 ISZERO ISZERO MUL OR SWAP1 SSTORE POP PUSH2 0xF7 PUSH2 0x1B9 PUSH1 0x20 SHL PUSH1 0x20 SHR JUMP JUMPDEST PUSH20 0xFFFFFFFFFFFFFFFFFFFFFFFFFFFFFFFFFFFFFFFF AND DUP2 PUSH20 0xFFFFFFFFFFFFFFFFFFFFFFFFFFFFFFFFFFFFFFFF AND DUP4 PUSH32 0x2F8788117E7EFF1D82E926EC794901D17C78024A50270940304540A733656F0D PUSH1 0x40 MLOAD PUSH1 0x40 MLOAD DUP1 SWAP2 SUB SWAP1 LOG4 JUMPDEST POP POP JUMP JUMPDEST PUSH0 DUP1 PUSH0 DUP5 DUP2 MSTORE PUSH1 0x20 ADD SWAP1 DUP2 MSTORE PUSH1 0x20 ADD PUSH0 KECCAK256 PUSH0 ADD PUSH0 DUP4 PUSH20 0xFFFFFFFFFFFFFFFFFFFFFFFFFFFFFFFFFFFFFFFF AND PUSH20 0xFFFFFFFFFFFFFFFFFFFFFFFFFFFFFFFFFFFFFFFF AND DUP2 MSTORE PUSH1 0x20 ADD SWAP1 DUP2 MSTORE PUSH1 0x20 ADD PUSH0 KECCAK256 PUSH0 SWAP1 SLOAD SWAP1 PUSH2 0x100 EXP SWAP1 DIV PUSH1 0xFF AND SWAP1 POP SWAP3 SWAP2 POP POP JUMP JUMPDEST PUSH0 CALLER SWAP1 POP SWAP1 JUMP JUMPDEST PUSH2 0x261C DUP1 PUSH2 0x1CD PUSH0 CODECOPY PUSH0 RETURN INVALID PUSH1 0x80 PUSH1 0x40 MSTORE CALLVALUE DUP1 ISZERO PUSH2 0xF JUMPI PUSH0 DUP1 REVERT JUMPDEST POP PUSH1 0x4 CALLDATASIZE LT PUSH2 0xF3 JUMPI PUSH0 CALLDATALOAD PUSH1 0xE0 SHR DUP1 PUSH4 0x5C975ABB GT PUSH2 0x95 JUMPI DUP1 PUSH4 0x8F2B91EA GT PUSH2 0x64 JUMPI DUP1 PUSH4 0x8F2B91EA EQ PUSH2 0x248 JUMPI DUP1 PUSH4 0x91D14854 EQ PUSH2 0x27E JUMPI DUP1 PUSH4 0xA217FDDF EQ PUSH2 0x2AE JUMPI DUP1 PUSH4 0xD547741F EQ PUSH2 0x2CC JUMPI PUSH2 0xF3 JUMP JUMPDEST DUP1 PUSH4 0x5C975ABB EQ PUSH2 0x1D1 JUMPI DUP1 PUSH4 0x82AEFA24 EQ PUSH2 0x1EF JUMPI DUP1 PUSH4 0x8456CB59 EQ PUSH2 0x20D JUMPI DUP1 PUSH4 0x8B23D875 EQ PUSH2 0x217 JUMPI PUSH2 0xF3 JUMP JUMPDEST DUP1 PUSH4 0x2F2FF15D GT PUSH2 0xD1 JUMPI DUP1 PUSH4 0x2F2FF15D EQ PUSH2 0x173 JUMPI DUP1 PUSH4 0x36568ABE EQ PUSH2 0x18F JUMPI DUP1 PUSH4 0x37851F2D EQ PUSH2 0x1AB JUMPI DUP1 PUSH4 0x3F4BA83A EQ PUSH2 0x1C7 JUMPI PUSH2 0xF3 JUMP JUMPDEST DUP1 PUSH4 0x1FFC9A7 EQ PUSH2 0xF7 JUMPI DUP1 PUSH4 0x142E1542 EQ PUSH2 0x127 JUMPI DUP1 PUSH4 0x248A9CA3 EQ PUSH2 0x143 JUMPI JUMPDEST PUSH0 DUP1 REVERT JUMPDEST PUSH2 0x111 PUSH1 0x4 DUP1 CALLDATASIZE SUB DUP2 ADD SWAP1 PUSH2 0x10C SWAP2 SWAP1 PUSH2 0x164F JUMP JUMPDEST PUSH2 0x2E8 JUMP JUMPDEST PUSH1 0x40 MLOAD PUSH2 0x11E SWAP2 SWAP1 PUSH2 0x1694 JUMP JUMPDEST PUSH1 0x40 MLOAD DUP1 SWAP2 SUB SWAP1 RETURN JUMPDEST PUSH2 0x141 PUSH1 0x4 DUP1 CALLDATASIZE SUB DUP2 ADD SWAP1 PUSH2 0x13C SWAP2 SWAP1 PUSH2 0x17E9 JUMP JUMPDEST PUSH2 0x361 JUMP JUMPDEST STOP JUMPDEST PUSH2 0x15D PUSH1 0x4 DUP1 CALLDATASIZE SUB DUP2 ADD SWAP1 PUSH2 0x158 SWAP2 SWAP1 PUSH2 0x1863 JUMP JUMPDEST PUSH2 0x4EF JUMP JUMPDEST PUSH1 0x40 MLOAD PUSH2 0x16A SWAP2 SWAP1 PUSH2 0x189D JUMP JUMPDEST PUSH1 0x40 MLOAD DUP1 SWAP2 SUB SWAP1 RETURN JUMPDEST PUSH2 0x18D PUSH1 0x4 DUP1 CALLDATASIZE SUB DUP2 ADD SWAP1 PUSH2 0x188 SWAP2 SWAP1 PUSH2 0x1910 JUMP JUMPDEST PUSH2 0x50B JUMP JUMPDEST STOP JUMPDEST PUSH2 0x1A9 PUSH1 0x4 DUP1 CALLDATASIZE SUB DUP2 ADD SWAP1 PUSH2 0x1A4 SWAP2 SWAP1 PUSH2 0x1910 JUMP JUMPDEST PUSH2 0x52C JUMP JUMPDEST STOP JUMPDEST PUSH2 0x1C5 PUSH1 0x4 DUP1 CALLDATASIZE SUB DUP2 ADD SWAP1 PUSH2 0x1C0 SWAP2 SWAP1 PUSH2 0x194E JUMP JUMPDEST PUSH2 0x5AF JUMP JUMPDEST STOP JUMPDEST PUSH2 0x1CF PUSH2 0x91F JUMP JUMPDEST STOP JUMPDEST PUSH2 0x1D9 PUSH2 0x936 JUMP JUMPDEST PUSH1 0x40 MLOAD PUSH2 0x1E6 SWAP2 SWAP1 PUSH2 0x1694 JUMP JUMPDEST PUSH1 0x40 MLOAD DUP1 SWAP2 SUB SWAP1 RETURN JUMPDEST PUSH2 0x1F7 PUSH2 0x94B JUMP JUMPDEST PUSH1 0x40 MLOAD PUSH2 0x204 SWAP2 SWAP1 PUSH2 0x189D JUMP JUMPDEST PUSH1 0x40 MLOAD DUP1 SWAP2 SUB SWAP1 RETURN JUMPDEST PUSH2 0x215 PUSH2 0x96F JUMP JUMPDEST STOP JUMPDEST PUSH2 0x231 PUSH1 0x4 DUP1 CALLDATASIZE SUB DUP2 ADD SWAP1 PUSH2 0x22C SWAP2 SWAP1 PUSH2 0x17E9 JUMP JUMPDEST PUSH2 0x986 JUMP JUMPDEST PUSH1 0x40 MLOAD PUSH2 0x23F SWAP3 SWAP2 SWAP1 PUSH2 0x1B43 JUMP JUMPDEST PUSH1 0x40 MLOAD DUP1 SWAP2 SUB SWAP1 RETURN JUMPDEST PUSH2 0x262 PUSH1 0x4 DUP1 CALLDATASIZE SUB DUP2 ADD SWAP1 PUSH2 0x25D SWAP2 SWAP1 PUSH2 0x17E9 JUMP JUMPDEST PUSH2 0xC53 JUMP JUMPDEST PUSH1 0x40 MLOAD PUSH2 0x275 SWAP8 SWAP7 SWAP6 SWAP5 SWAP4 SWAP3 SWAP2 SWAP1 PUSH2 0x1BD7 JUMP JUMPDEST PUSH1 0x40 MLOAD DUP1 SWAP2 SUB SWAP1 RETURN JUMPDEST PUSH2 0x298 PUSH1 0x4 DUP1 CALLDATASIZE SUB DUP2 ADD SWAP1 PUSH2 0x293 SWAP2 SWAP1 PUSH2 0x1910 JUMP JUMPDEST PUSH2 0xE85 JUMP JUMPDEST PUSH1 0x40 MLOAD PUSH2 0x2A5 SWAP2 SWAP1 PUSH2 0x1694 JUMP JUMPDEST PUSH1 0x40 MLOAD DUP1 SWAP2 SUB SWAP1 RETURN JUMPDEST PUSH2 0x2B6 PUSH2 0xEE8 JUMP JUMPDEST PUSH1 0x40 MLOAD PUSH2 0x2C3 SWAP2 SWAP1 PUSH2 0x189D JUMP JUMPDEST PUSH1 0x40 MLOAD DUP1 SWAP2 SUB SWAP1 RETURN JUMPDEST PUSH2 0x2E6 PUSH1 0x4 DUP1 CALLDATASIZE SUB DUP2 ADD SWAP1 PUSH2 0x2E1 SWAP2 SWAP1 PUSH2 0x1910 JUMP JUMPDEST PUSH2 0xEEE JUMP JUMPDEST STOP JUMPDEST PUSH0 PUSH32 0x7965DB0B00000000000000000000000000000000000000000000000000000000 PUSH28 0xFFFFFFFFFFFFFFFFFFFFFFFFFFFFFFFFFFFFFFFFFFFFFFFFFFFFFFFF NOT AND DUP3 PUSH28 0xFFFFFFFFFFFFFFFFFFFFFFFFFFFFFFFFFFFFFFFFFFFFFFFFFFFFFFFF NOT AND EQ DUP1 PUSH2 0x35A JUMPI POP PUSH2 0x359 DUP3 PUSH2 0xF0F JUMP JUMPDEST JUMPDEST SWAP1 POP SWAP2 SWAP1 POP JUMP JUMPDEST PUSH32 0x114E74F6EA3BD819998F78687BFCB11B140DA08E9B7D222FA9C1F1BA1F2AA122 PUSH2 0x38B DUP2 PUSH2 0xF78 JUMP JUMPDEST PUSH2 0x393 PUSH2 0xF8C JUMP JUMPDEST PUSH0 PUSH1 0x2 DUP4 PUSH1 0x40 MLOAD PUSH2 0x3A4 SWAP2 SWAP1 PUSH2 0x1C93 JUMP JUMPDEST SWAP1 DUP2 MSTORE PUSH1 0x20 ADD PUSH1 0x40 MLOAD DUP1 SWAP2 SUB SWAP1 KECCAK256 PUSH1 0x4 ADD SLOAD GT PUSH2 0x3F6 JUMPI PUSH1 0x40 MLOAD PUSH32 0x8C379A000000000000000000000000000000000000000000000000000000000 DUP2 MSTORE PUSH1 0x4 ADD PUSH2 0x3ED SWAP1 PUSH2 0x1CF3 JUMP JUMPDEST PUSH1 0x40 MLOAD DUP1 SWAP2 SUB SWAP1 REVERT JUMPDEST PUSH1 0x2 DUP3 PUSH1 0x40 MLOAD PUSH2 0x406 SWAP2 SWAP1 PUSH2 0x1C93 JUMP JUMPDEST SWAP1 DUP2 MSTORE PUSH1 0x20 ADD PUSH1 0x40 MLOAD DUP1 SWAP2 SUB SWAP1 KECCAK256 PUSH1 0x5 ADD PUSH0 SWAP1 SLOAD SWAP1 PUSH2 0x100 EXP SWAP1 DIV PUSH1 0xFF AND ISZERO PUSH2 0x464 JUMPI PUSH1 0x40 MLOAD PUSH32 0x8C379A000000000000000000000000000000000000000000000000000000000 DUP2 MSTORE PUSH1 0x4 ADD PUSH2 0x45B SWAP1 PUSH2 0x1D5B JUMP JUMPDEST PUSH1 0x40 MLOAD DUP1 SWAP2 SUB SWAP1 REVERT JUMPDEST PUSH1 0x1 PUSH1 0x2 DUP4 PUSH1 0x40 MLOAD PUSH2 0x476 SWAP2 SWAP1 PUSH2 0x1C93 JUMP JUMPDEST SWAP1 DUP2 MSTORE PUSH1 0x20 ADD PUSH1 0x40 MLOAD DUP1 SWAP2 SUB SWAP1 KECCAK256 PUSH1 0x5 ADD PUSH0 PUSH2 0x100 EXP DUP2 SLOAD DUP2 PUSH1 0xFF MUL NOT AND SWAP1 DUP4 ISZERO ISZERO MUL OR SWAP1 SSTORE POP CALLER PUSH20 0xFFFFFFFFFFFFFFFFFFFFFFFFFFFFFFFFFFFFFFFF AND PUSH32 0x7B87DF98E4FF33F07A9FBDA6F93A6B69C498E48444877DA8C54A83D3A43AEE5B DUP4 PUSH1 0x40 MLOAD PUSH2 0x4E3 SWAP2 SWAP1 PUSH2 0x1D79 JUMP JUMPDEST PUSH1 0x40 MLOAD DUP1 SWAP2 SUB SWAP1 LOG2 POP POP JUMP JUMPDEST PUSH0 DUP1 PUSH0 DUP4 DUP2 MSTORE PUSH1 0x20 ADD SWAP1 DUP2 MSTORE PUSH1 0x20 ADD PUSH0 KECCAK256 PUSH1 0x1 ADD SLOAD SWAP1 POP SWAP2 SWAP1 POP JUMP JUMPDEST PUSH2 0x514 DUP3 PUSH2 0x4EF JUMP JUMPDEST PUSH2 0x51D DUP2 PUSH2 0xF78 JUMP JUMPDEST PUSH2 0x527 DUP4 DUP4 PUSH2 0xFD6 JUMP JUMPDEST POP POP POP JUMP JUMPDEST PUSH2 0x534 PUSH2 0x10B0 JUMP JUMPDEST PUSH20 0xFFFFFFFFFFFFFFFFFFFFFFFFFFFFFFFFFFFFFFFF AND DUP2 PUSH20 0xFFFFFFFFFFFFFFFFFFFFFFFFFFFFFFFFFFFFFFFF AND EQ PUSH2 0x5A1 JUMPI PUSH1 0x40 MLOAD PUSH32 0x8C379A000000000000000000000000000000000000000000000000000000000 DUP2 MSTORE PUSH1 0x4 ADD PUSH2 0x598 SWAP1 PUSH2 0x1E09 JUMP JUMPDEST PUSH1 0x40 MLOAD DUP1 SWAP2 SUB SWAP1 REVERT JUMPDEST PUSH2 0x5AB DUP3 DUP3 PUSH2 0x10B7 JUMP JUMPDEST POP POP JUMP JUMPDEST PUSH32 0x114E74F6EA3BD819998F78687BFCB11B140DA08E9B7D222FA9C1F1BA1F2AA122 PUSH2 0x5D9 DUP2 PUSH2 0xF78 JUMP JUMPDEST PUSH2 0x5E1 PUSH2 0xF8C JUMP JUMPDEST PUSH0 DUP6 MLOAD GT PUSH2 0x624 JUMPI PUSH1 0x40 MLOAD PUSH32 0x8C379A000000000000000000000000000000000000000000000000000000000 DUP2 MSTORE PUSH1 0x4 ADD PUSH2 0x61B SWAP1 PUSH2 0x1E71 JUMP JUMPDEST PUSH1 0x40 MLOAD DUP1 SWAP2 SUB SWAP1 REVERT JUMPDEST PUSH0 PUSH20 0xFFFFFFFFFFFFFFFFFFFFFFFFFFFFFFFFFFFFFFFF AND DUP5 PUSH20 0xFFFFFFFFFFFFFFFFFFFFFFFFFFFFFFFFFFFFFFFF AND SUB PUSH2 0x692 JUMPI PUSH1 0x40 MLOAD PUSH32 0x8C379A000000000000000000000000000000000000000000000000000000000 DUP2 MSTORE PUSH1 0x4 ADD PUSH2 0x689 SWAP1 PUSH2 0x1ED9 JUMP JUMPDEST PUSH1 0x40 MLOAD DUP1 SWAP2 SUB SWAP1 REVERT JUMPDEST PUSH0 DUP4 MLOAD GT PUSH2 0x6D5 JUMPI PUSH1 0x40 MLOAD PUSH32 0x8C379A000000000000000000000000000000000000000000000000000000000 DUP2 MSTORE PUSH1 0x4 ADD PUSH2 0x6CC SWAP1 PUSH2 0x1F41 JUMP JUMPDEST PUSH1 0x40 MLOAD DUP1 SWAP2 SUB SWAP1 REVERT JUMPDEST PUSH0 PUSH1 0x2 DUP7 PUSH1 0x40 MLOAD PUSH2 0x6E6 SWAP2 SWAP1 PUSH2 0x1C93 JUMP JUMPDEST SWAP1 DUP2 MSTORE PUSH1 0x20 ADD PUSH1 0x40 MLOAD DUP1 SWAP2 SUB SWAP1 KECCAK256 PUSH1 0x4 ADD SLOAD EQ PUSH2 0x738 JUMPI PUSH1 0x40 MLOAD PUSH32 0x8C379A000000000000000000000000000000000000000000000000000000000 DUP2 MSTORE PUSH1 0x4 ADD PUSH2 0x72F SWAP1 PUSH2 0x1FA9 JUMP JUMPDEST PUSH1 0x40 MLOAD DUP1 SWAP2 SUB SWAP1 REVERT JUMPDEST PUSH1 0x40 MLOAD DUP1 PUSH1 0xE0 ADD PUSH1 0x40 MSTORE DUP1 DUP7 DUP2 MSTORE PUSH1 0x20 ADD CALLER PUSH20 0xFFFFFFFFFFFFFFFFFFFFFFFFFFFFFFFFFFFFFFFF AND DUP2 MSTORE PUSH1 0x20 ADD DUP6 PUSH20 0xFFFFFFFFFFFFFFFFFFFFFFFFFFFFFFFFFFFFFFFF AND DUP2 MSTORE PUSH1 0x20 ADD DUP5 DUP2 MSTORE PUSH1 0x20 ADD TIMESTAMP DUP2 MSTORE PUSH1 0x20 ADD PUSH0 ISZERO ISZERO DUP2 MSTORE PUSH1 0x20 ADD DUP4 DUP2 MSTORE POP PUSH1 0x2 DUP7 PUSH1 0x40 MLOAD PUSH2 0x7A9 SWAP2 SWAP1 PUSH2 0x1C93 JUMP JUMPDEST SWAP1 DUP2 MSTORE PUSH1 0x20 ADD PUSH1 0x40 MLOAD DUP1 SWAP2 SUB SWAP1 KECCAK256 PUSH0 DUP3 ADD MLOAD DUP2 PUSH0 ADD SWAP1 DUP2 PUSH2 0x7CA SWAP2 SWAP1 PUSH2 0x21C1 JUMP JUMPDEST POP PUSH1 0x20 DUP3 ADD MLOAD DUP2 PUSH1 0x1 ADD PUSH0 PUSH2 0x100 EXP DUP2 SLOAD DUP2 PUSH20 0xFFFFFFFFFFFFFFFFFFFFFFFFFFFFFFFFFFFFFFFF MUL NOT AND SWAP1 DUP4 PUSH20 0xFFFFFFFFFFFFFFFFFFFFFFFFFFFFFFFFFFFFFFFF AND MUL OR SWAP1 SSTORE POP PUSH1 0x40 DUP3 ADD MLOAD DUP2 PUSH1 0x2 ADD PUSH0 PUSH2 0x100 EXP DUP2 SLOAD DUP2 PUSH20 0xFFFFFFFFFFFFFFFFFFFFFFFFFFFFFFFFFFFFFFFF MUL NOT AND SWAP1 DUP4 PUSH20 0xFFFFFFFFFFFFFFFFFFFFFFFFFFFFFFFFFFFFFFFF AND MUL OR SWAP1 SSTORE POP PUSH1 0x60 DUP3 ADD MLOAD DUP2 PUSH1 0x3 ADD SWAP1 DUP2 PUSH2 0x86C SWAP2 SWAP1 PUSH2 0x21C1 JUMP JUMPDEST POP PUSH1 0x80 DUP3 ADD MLOAD DUP2 PUSH1 0x4 ADD SSTORE PUSH1 0xA0 DUP3 ADD MLOAD DUP2 PUSH1 0x5 ADD PUSH0 PUSH2 0x100 EXP DUP2 SLOAD DUP2 PUSH1 0xFF MUL NOT AND SWAP1 DUP4 ISZERO ISZERO MUL OR SWAP1 SSTORE POP PUSH1 0xC0 DUP3 ADD MLOAD DUP2 PUSH1 0x6 ADD SWAP1 DUP2 PUSH2 0x8AB SWAP2 SWAP1 PUSH2 0x21C1 JUMP JUMPDEST POP SWAP1 POP POP DUP4 PUSH20 0xFFFFFFFFFFFFFFFFFFFFFFFFFFFFFFFFFFFFFFFF AND CALLER PUSH20 0xFFFFFFFFFFFFFFFFFFFFFFFFFFFFFFFFFFFFFFFF AND PUSH32 0x2AF155826810EF2DFC642EB7E9C4B891594D8067978057A44FC1E01773BCD706 DUP8 DUP7 TIMESTAMP PUSH1 0x40 MLOAD PUSH2 0x910 SWAP4 SWAP3 SWAP2 SWAP1 PUSH2 0x2290 JUMP JUMPDEST PUSH1 0x40 MLOAD DUP1 SWAP2 SUB SWAP1 LOG3 POP POP POP POP POP JUMP JUMPDEST PUSH0 DUP1 SHL PUSH2 0x92B DUP2 PUSH2 0xF78 JUMP JUMPDEST PUSH2 0x933 PUSH2 0x1191 JUMP JUMPDEST POP JUMP JUMPDEST PUSH0 PUSH1 0x1 PUSH0 SWAP1 SLOAD SWAP1 PUSH2 0x100 EXP SWAP1 DIV PUSH1 0xFF AND SWAP1 POP SWAP1 JUMP JUMPDEST PUSH32 0x114E74F6EA3BD819998F78687BFCB11B140DA08E9B7D222FA9C1F1BA1F2AA122 DUP2 JUMP JUMPDEST PUSH0 DUP1 SHL PUSH2 0x97B DUP2 PUSH2 0xF78 JUMP JUMPDEST PUSH2 0x983 PUSH2 0x11F2 JUMP JUMPDEST POP JUMP JUMPDEST PUSH0 PUSH2 0x98F PUSH2 0x1582 JUMP JUMPDEST PUSH1 0x2 DUP4 PUSH1 0x40 MLOAD PUSH2 0x99F SWAP2 SWAP1 PUSH2 0x1C93 JUMP JUMPDEST SWAP1 DUP2 MSTORE PUSH1 0x20 ADD PUSH1 0x40 MLOAD DUP1 SWAP2 SUB SWAP1 KECCAK256 PUSH1 0x40 MLOAD DUP1 PUSH1 0xE0 ADD PUSH1 0x40 MSTORE SWAP1 DUP2 PUSH0 DUP3 ADD DUP1 SLOAD PUSH2 0x9C7 SWAP1 PUSH2 0x1FF4 JUMP JUMPDEST DUP1 PUSH1 0x1F ADD PUSH1 0x20 DUP1 SWAP2 DIV MUL PUSH1 0x20 ADD PUSH1 0x40 MLOAD SWAP1 DUP2 ADD PUSH1 0x40 MSTORE DUP1 SWAP3 SWAP2 SWAP1 DUP2 DUP2 MSTORE PUSH1 0x20 ADD DUP3 DUP1 SLOAD PUSH2 0x9F3 SWAP1 PUSH2 0x1FF4 JUMP JUMPDEST DUP1 ISZERO PUSH2 0xA3E JUMPI DUP1 PUSH1 0x1F LT PUSH2 0xA15 JUMPI PUSH2 0x100 DUP1 DUP4 SLOAD DIV MUL DUP4 MSTORE SWAP2 PUSH1 0x20 ADD SWAP2 PUSH2 0xA3E JUMP JUMPDEST DUP3 ADD SWAP2 SWAP1 PUSH0 MSTORE PUSH1 0x20 PUSH0 KECCAK256 SWAP1 JUMPDEST DUP2 SLOAD DUP2 MSTORE SWAP1 PUSH1 0x1 ADD SWAP1 PUSH1 0x20 ADD DUP1 DUP4 GT PUSH2 0xA21 JUMPI DUP3 SWAP1 SUB PUSH1 0x1F AND DUP3 ADD SWAP2 JUMPDEST POP POP POP POP POP DUP2 MSTORE PUSH1 0x20 ADD PUSH1 0x1 DUP3 ADD PUSH0 SWAP1 SLOAD SWAP1 PUSH2 0x100 EXP SWAP1 DIV PUSH20 0xFFFFFFFFFFFFFFFFFFFFFFFFFFFFFFFFFFFFFFFF AND PUSH20 0xFFFFFFFFFFFFFFFFFFFFFFFFFFFFFFFFFFFFFFFF AND PUSH20 0xFFFFFFFFFFFFFFFFFFFFFFFFFFFFFFFFFFFFFFFF AND DUP2 MSTORE PUSH1 0x20 ADD PUSH1 0x2 DUP3 ADD PUSH0 SWAP1 SLOAD SWAP1 PUSH2 0x100 EXP SWAP1 DIV PUSH20 0xFFFFFFFFFFFFFFFFFFFFFFFFFFFFFFFFFFFFFFFF AND PUSH20 0xFFFFFFFFFFFFFFFFFFFFFFFFFFFFFFFFFFFFFFFF AND PUSH20 0xFFFFFFFFFFFFFFFFFFFFFFFFFFFFFFFFFFFFFFFF AND DUP2 MSTORE PUSH1 0x20 ADD PUSH1 0x3 DUP3 ADD DUP1 SLOAD PUSH2 0xB01 SWAP1 PUSH2 0x1FF4 JUMP JUMPDEST DUP1 PUSH1 0x1F ADD PUSH1 0x20 DUP1 SWAP2 DIV MUL PUSH1 0x20 ADD PUSH1 0x40 MLOAD SWAP1 DUP2 ADD PUSH1 0x40 MSTORE DUP1 SWAP3 SWAP2 SWAP1 DUP2 DUP2 MSTORE PUSH1 0x20 ADD DUP3 DUP1 SLOAD PUSH2 0xB2D SWAP1 PUSH2 0x1FF4 JUMP JUMPDEST DUP1 ISZERO PUSH2 0xB78 JUMPI DUP1 PUSH1 0x1F LT PUSH2 0xB4F JUMPI PUSH2 0x100 DUP1 DUP4 SLOAD DIV MUL DUP4 MSTORE SWAP2 PUSH1 0x20 ADD SWAP2 PUSH2 0xB78 JUMP JUMPDEST DUP3 ADD SWAP2 SWAP1 PUSH0 MSTORE PUSH1 0x20 PUSH0 KECCAK256 SWAP1 JUMPDEST DUP2 SLOAD DUP2 MSTORE SWAP1 PUSH1 0x1 ADD SWAP1 PUSH1 0x20 ADD DUP1 DUP4 GT PUSH2 0xB5B JUMPI DUP3 SWAP1 SUB PUSH1 0x1F AND DUP3 ADD SWAP2 JUMPDEST POP POP POP POP POP DUP2 MSTORE PUSH1 0x20 ADD PUSH1 0x4 DUP3 ADD SLOAD DUP2 MSTORE PUSH1 0x20 ADD PUSH1 0x5 DUP3 ADD PUSH0 SWAP1 SLOAD SWAP1 PUSH2 0x100 EXP SWAP1 DIV PUSH1 0xFF AND ISZERO ISZERO ISZERO ISZERO DUP2 MSTORE PUSH1 0x20 ADD PUSH1 0x6 DUP3 ADD DUP1 SLOAD PUSH2 0xBB5 SWAP1 PUSH2 0x1FF4 JUMP JUMPDEST DUP1 PUSH1 0x1F ADD PUSH1 0x20 DUP1 SWAP2 DIV MUL PUSH1 0x20 ADD PUSH1 0x40 MLOAD SWAP1 DUP2 ADD PUSH1 0x40 MSTORE DUP1 SWAP3 SWAP2 SWAP1 DUP2 DUP2 MSTORE PUSH1 0x20 ADD DUP3 DUP1 SLOAD PUSH2 0xBE1 SWAP1 PUSH2 0x1FF4 JUMP JUMPDEST DUP1 ISZERO PUSH2 0xC2C JUMPI DUP1 PUSH1 0x1F LT PUSH2 0xC03 JUMPI PUSH2 0x100 DUP1 DUP4 SLOAD DIV MUL DUP4 MSTORE SWAP2 PUSH1 0x20 ADD SWAP2 PUSH2 0xC2C JUMP JUMPDEST DUP3 ADD SWAP2 SWAP1 PUSH0 MSTORE PUSH1 0x20 PUSH0 KECCAK256 SWAP1 JUMPDEST DUP2 SLOAD DUP2 MSTORE SWAP1 PUSH1 0x1 ADD SWAP1 PUSH1 0x20 ADD DUP1 DUP4 GT PUSH2 0xC0F JUMPI DUP3 SWAP1 SUB PUSH1 0x1F AND DUP3 ADD SWAP2 JUMPDEST POP POP POP POP POP DUP2 MSTORE POP POP SWAP1 POP PUSH0 DUP2 PUSH1 0x80 ADD MLOAD GT DUP1 ISZERO PUSH2 0xC4C JUMPI POP DUP1 PUSH1 0xA0 ADD MLOAD ISZERO JUMPDEST SWAP2 POP SWAP2 POP SWAP2 JUMP JUMPDEST PUSH1 0x2 DUP2 DUP1 MLOAD PUSH1 0x20 DUP2 ADD DUP3 ADD DUP1 MLOAD DUP5 DUP3 MSTORE PUSH1 0x20 DUP4 ADD PUSH1 0x20 DUP6 ADD KECCAK256 DUP2 DUP4 MSTORE DUP1 SWAP6 POP POP POP POP POP POP PUSH0 SWAP2 POP SWAP1 POP DUP1 PUSH0 ADD DUP1 SLOAD PUSH2 0xC8A SWAP1 PUSH2 0x1FF4 JUMP JUMPDEST DUP1 PUSH1 0x1F ADD PUSH1 0x20 DUP1 SWAP2 DIV MUL PUSH1 0x20 ADD PUSH1 0x40 MLOAD SWAP1 DUP2 ADD PUSH1 0x40 MSTORE DUP1 SWAP3 SWAP2 SWAP1 DUP2 DUP2 MSTORE PUSH1 0x20 ADD DUP3 DUP1 SLOAD PUSH2 0xCB6 SWAP1 PUSH2 0x1FF4 JUMP JUMPDEST DUP1 ISZERO PUSH2 0xD01 JUMPI DUP1 PUSH1 0x1F LT PUSH2 0xCD8 JUMPI PUSH2 0x100 DUP1 DUP4 SLOAD DIV MUL DUP4 MSTORE SWAP2 PUSH1 0x20 ADD SWAP2 PUSH2 0xD01 JUMP JUMPDEST DUP3 ADD SWAP2 SWAP1 PUSH0 MSTORE PUSH1 0x20 PUSH0 KECCAK256 SWAP1 JUMPDEST DUP2 SLOAD DUP2 MSTORE SWAP1 PUSH1 0x1 ADD SWAP1 PUSH1 0x20 ADD DUP1 DUP4 GT PUSH2 0xCE4 JUMPI DUP3 SWAP1 SUB PUSH1 0x1F AND DUP3 ADD SWAP2 JUMPDEST POP POP POP POP POP SWAP1 DUP1 PUSH1 0x1 ADD PUSH0 SWAP1 SLOAD SWAP1 PUSH2 0x100 EXP SWAP1 DIV PUSH20 0xFFFFFFFFFFFFFFFFFFFFFFFFFFFFFFFFFFFFFFFF AND SWAP1 DUP1 PUSH1 0x2 ADD PUSH0 SWAP1 SLOAD SWAP1 PUSH2 0x100 EXP SWAP1 DIV PUSH20 0xFFFFFFFFFFFFFFFFFFFFFFFFFFFFFFFFFFFFFFFF AND SWAP1 DUP1 PUSH1 0x3 ADD DUP1 SLOAD PUSH2 0xD60 SWAP1 PUSH2 0x1FF4 JUMP JUMPDEST DUP1 PUSH1 0x1F ADD PUSH1 0x20 DUP1 SWAP2 DIV MUL PUSH1 0x20 ADD PUSH1 0x40 MLOAD SWAP1 DUP2 ADD PUSH1 0x40 MSTORE DUP1 SWAP3 SWAP2 SWAP1 DUP2 DUP2 MSTORE PUSH1 0x20 ADD DUP3 DUP1 SLOAD PUSH2 0xD8C SWAP1 PUSH2 0x1FF4 JUMP JUMPDEST DUP1 ISZERO PUSH2 0xDD7 JUMPI DUP1 PUSH1 0x1F LT PUSH2 0xDAE JUMPI PUSH2 0x100 DUP1 DUP4 SLOAD DIV MUL DUP4 MSTORE SWAP2 PUSH1 0x20 ADD SWAP2 PUSH2 0xDD7 JUMP JUMPDEST DUP3 ADD SWAP2 SWAP1 PUSH0 MSTORE PUSH1 0x20 PUSH0 KECCAK256 SWAP1 JUMPDEST DUP2 SLOAD DUP2 MSTORE SWAP1 PUSH1 0x1 ADD SWAP1 PUSH1 0x20 ADD DUP1 DUP4 GT PUSH2 0xDBA JUMPI DUP3 SWAP1 SUB PUSH1 0x1F AND DUP3 ADD SWAP2 JUMPDEST POP POP POP POP POP SWAP1 DUP1 PUSH1 0x4 ADD SLOAD SWAP1 DUP1 PUSH1 0x5 ADD PUSH0 SWAP1 SLOAD SWAP1 PUSH2 0x100 EXP SWAP1 DIV PUSH1 0xFF AND SWAP1 DUP1 PUSH1 0x6 ADD DUP1 SLOAD PUSH2 0xE04 SWAP1 PUSH2 0x1FF4 JUMP JUMPDEST DUP1 PUSH1 0x1F ADD PUSH1 0x20 DUP1 SWAP2 DIV MUL PUSH1 0x20 ADD PUSH1 0x40 MLOAD SWAP1 DUP2 ADD PUSH1 0x40 MSTORE DUP1 SWAP3 SWAP2 SWAP1 DUP2 DUP2 MSTORE PUSH1 0x20 ADD DUP3 DUP1 SLOAD PUSH2 0xE30 SWAP1 PUSH2 0x1FF4 JUMP JUMPDEST DUP1 ISZERO PUSH2 0xE7B JUMPI DUP1 PUSH1 0x1F LT PUSH2 0xE52 JUMPI PUSH2 0x100 DUP1 DUP4 SLOAD DIV MUL DUP4 MSTORE SWAP2 PUSH1 0x20 ADD SWAP2 PUSH2 0xE7B JUMP JUMPDEST DUP3 ADD SWAP2 SWAP1 PUSH0 MSTORE PUSH1 0x20 PUSH0 KECCAK256 SWAP1 JUMPDEST DUP2 SLOAD DUP2 MSTORE SWAP1 PUSH1 0x1 ADD SWAP1 PUSH1 0x20 ADD DUP1 DUP4 GT PUSH2 0xE5E JUMPI DUP3 SWAP1 SUB PUSH1 0x1F AND DUP3 ADD SWAP2 JUMPDEST POP POP POP POP POP SWAP1 POP DUP8 JUMP JUMPDEST PUSH0 DUP1 PUSH0 DUP5 DUP2 MSTORE PUSH1 0x20 ADD SWAP1 DUP2 MSTORE PUSH1 0x20 ADD PUSH0 KECCAK256 PUSH0 ADD PUSH0 DUP4 PUSH20 0xFFFFFFFFFFFFFFFFFFFFFFFFFFFFFFFFFFFFFFFF AND PUSH20 0xFFFFFFFFFFFFFFFFFFFFFFFFFFFFFFFFFFFFFFFF AND DUP2 MSTORE PUSH1 0x20 ADD SWAP1 DUP2 MSTORE PUSH1 0x20 ADD PUSH0 KECCAK256 PUSH0 SWAP1 SLOAD SWAP1 PUSH2 0x100 EXP SWAP1 DIV PUSH1 0xFF AND SWAP1 POP SWAP3 SWAP2 POP POP JUMP JUMPDEST PUSH0 DUP1 SHL DUP2 JUMP JUMPDEST PUSH2 0xEF7 DUP3 PUSH2 0x4EF JUMP JUMPDEST PUSH2 0xF00 DUP2 PUSH2 0xF78 JUMP JUMPDEST PUSH2 0xF0A DUP4 DUP4 PUSH2 0x10B7 JUMP JUMPDEST POP POP POP JUMP JUMPDEST PUSH0 PUSH32 0x1FFC9A700000000000000000000000000000000000000000000000000000000 PUSH28 0xFFFFFFFFFFFFFFFFFFFFFFFFFFFFFFFFFFFFFFFFFFFFFFFFFFFFFFFF NOT AND DUP3 PUSH28 0xFFFFFFFFFFFFFFFFFFFFFFFFFFFFFFFFFFFFFFFFFFFFFFFFFFFFFFFF NOT AND EQ SWAP1 POP SWAP2 SWAP1 POP JUMP JUMPDEST PUSH2 0xF89 DUP2 PUSH2 0xF84 PUSH2 0x10B0 JUMP JUMPDEST PUSH2 0x1253 JUMP JUMPDEST POP JUMP JUMPDEST PUSH2 0xF94 PUSH2 0x936 JUMP JUMPDEST ISZERO PUSH2 0xFD4 JUMPI PUSH1 0x40 MLOAD PUSH32 0x8C379A000000000000000000000000000000000000000000000000000000000 DUP2 MSTORE PUSH1 0x4 ADD PUSH2 0xFCB SWAP1 PUSH2 0x231D JUMP JUMPDEST PUSH1 0x40 MLOAD DUP1 SWAP2 SUB SWAP1 REVERT JUMPDEST JUMP JUMPDEST PUSH2 0xFE0 DUP3 DUP3 PUSH2 0xE85 JUMP JUMPDEST PUSH2 0x10AC JUMPI PUSH1 0x1 PUSH0 DUP1 DUP5 DUP2 MSTORE PUSH1 0x20 ADD SWAP1 DUP2 MSTORE PUSH1 0x20 ADD PUSH0 KECCAK256 PUSH0 ADD PUSH0 DUP4 PUSH20 0xFFFFFFFFFFFFFFFFFFFFFFFFFFFFFFFFFFFFFFFF AND PUSH20 0xFFFFFFFFFFFFFFFFFFFFFFFFFFFFFFFFFFFFFFFF AND DUP2 MSTORE PUSH1 0x20 ADD SWAP1 DUP2 MSTORE PUSH1 0x20 ADD PUSH0 KECCAK256 PUSH0 PUSH2 0x100 EXP DUP2 SLOAD DUP2 PUSH1 0xFF MUL NOT AND SWAP1 DUP4 ISZERO ISZERO MUL OR SWAP1 SSTORE POP PUSH2 0x1051 PUSH2 0x10B0 JUMP JUMPDEST PUSH20 0xFFFFFFFFFFFFFFFFFFFFFFFFFFFFFFFFFFFFFFFF AND DUP2 PUSH20 0xFFFFFFFFFFFFFFFFFFFFFFFFFFFFFFFFFFFFFFFF AND DUP4 PUSH32 0x2F8788117E7EFF1D82E926EC794901D17C78024A50270940304540A733656F0D PUSH1 0x40 MLOAD PUSH1 0x40 MLOAD DUP1 SWAP2 SUB SWAP1 LOG4 JUMPDEST POP POP JUMP JUMPDEST PUSH0 CALLER SWAP1 POP SWAP1 JUMP JUMPDEST PUSH2 0x10C1 DUP3 DUP3 PUSH2 0xE85 JUMP JUMPDEST ISZERO PUSH2 0x118D JUMPI PUSH0 DUP1 PUSH0 DUP5 DUP2 MSTORE PUSH1 0x20 ADD SWAP1 DUP2 MSTORE PUSH1 0x20 ADD PUSH0 KECCAK256 PUSH0 ADD PUSH0 DUP4 PUSH20 0xFFFFFFFFFFFFFFFFFFFFFFFFFFFFFFFFFFFFFFFF AND PUSH20 0xFFFFFFFFFFFFFFFFFFFFFFFFFFFFFFFFFFFFFFFF AND DUP2 MSTORE PUSH1 0x20 ADD SWAP1 DUP2 MSTORE PUSH1 0x20 ADD PUSH0 KECCAK256 PUSH0 PUSH2 0x100 EXP DUP2 SLOAD DUP2 PUSH1 0xFF MUL NOT AND SWAP1 DUP4 ISZERO ISZERO MUL OR SWAP1 SSTORE POP PUSH2 0x1132 PUSH2 0x10B0 JUMP JUMPDEST PUSH20 0xFFFFFFFFFFFFFFFFFFFFFFFFFFFFFFFFFFFFFFFF AND DUP2 PUSH20 0xFFFFFFFFFFFFFFFFFFFFFFFFFFFFFFFFFFFFFFFF AND DUP4 PUSH32 0xF6391F5C32D9C69D2A47EA670B442974B53935D1EDC7FD64EB21E047A839171B PUSH1 0x40 MLOAD PUSH1 0x40 MLOAD DUP1 SWAP2 SUB SWAP1 LOG4 JUMPDEST POP POP JUMP JUMPDEST PUSH2 0x1199 PUSH2 0x12D7 JUMP JUMPDEST PUSH0 PUSH1 0x1 PUSH0 PUSH2 0x100 EXP DUP2 SLOAD DUP2 PUSH1 0xFF MUL NOT AND SWAP1 DUP4 ISZERO ISZERO MUL OR SWAP1 SSTORE POP PUSH32 0x5DB9EE0A495BF2E6FF9C91A7834C1BA4FDD244A5E8AA4E537BD38AEAE4B073AA PUSH2 0x11DB PUSH2 0x10B0 JUMP JUMPDEST PUSH1 0x40 MLOAD PUSH2 0x11E8 SWAP2 SWAP1 PUSH2 0x233B JUMP JUMPDEST PUSH1 0x40 MLOAD DUP1 SWAP2 SUB SWAP1 LOG1 JUMP JUMPDEST PUSH2 0x11FA PUSH2 0xF8C JUMP JUMPDEST PUSH1 0x1 DUP1 PUSH0 PUSH2 0x100 EXP DUP2 SLOAD DUP2 PUSH1 0xFF MUL NOT AND SWAP1 DUP4 ISZERO ISZERO MUL OR SWAP1 SSTORE POP PUSH32 0x62E78CEA01BEE320CD4E420270B5EA74000D11B0C9F74754EBDBFC544B05A258 PUSH2 0x123C PUSH2 0x10B0 JUMP JUMPDEST PUSH1 0x40 MLOAD PUSH2 0x1249 SWAP2 SWAP1 PUSH2 0x233B JUMP JUMPDEST PUSH1 0x40 MLOAD DUP1 SWAP2 SUB SWAP1 LOG1 JUMP JUMPDEST PUSH2 0x125D DUP3 DUP3 PUSH2 0xE85 JUMP JUMPDEST PUSH2 0x12D3 JUMPI PUSH2 0x126A DUP2 PUSH2 0x1320 JUMP JUMPDEST PUSH2 0x1277 DUP4 PUSH0 SHR PUSH1 0x20 PUSH2 0x134D JUMP JUMPDEST PUSH1 0x40 MLOAD PUSH1 0x20 ADD PUSH2 0x1288 SWAP3 SWAP2 SWAP1 PUSH2 0x23E8 JUMP JUMPDEST PUSH1 0x40 MLOAD PUSH1 0x20 DUP2 DUP4 SUB SUB DUP2 MSTORE SWAP1 PUSH1 0x40 MSTORE PUSH1 0x40 MLOAD PUSH32 0x8C379A000000000000000000000000000000000000000000000000000000000 DUP2 MSTORE PUSH1 0x4 ADD PUSH2 0x12CA SWAP2 SWAP1 PUSH2 0x1D79 JUMP JUMPDEST PUSH1 0x40 MLOAD DUP1 SWAP2 SUB SWAP1 REVERT JUMPDEST POP POP JUMP JUMPDEST PUSH2 0x12DF PUSH2 0x936 JUMP JUMPDEST PUSH2 0x131E JUMPI PUSH1 0x40 MLOAD PUSH32 0x8C379A000000000000000000000000000000000000000000000000000000000 DUP2 MSTORE PUSH1 0x4 ADD PUSH2 0x1315 SWAP1 PUSH2 0x246B JUMP JUMPDEST PUSH1 0x40 MLOAD DUP1 SWAP2 SUB SWAP1 REVERT JUMPDEST JUMP JUMPDEST PUSH1 0x60 PUSH2 0x1346 DUP3 PUSH20 0xFFFFFFFFFFFFFFFFFFFFFFFFFFFFFFFFFFFFFFFF AND PUSH1 0x14 PUSH1 0xFF AND PUSH2 0x134D JUMP JUMPDEST SWAP1 POP SWAP2 SWAP1 POP JUMP JUMPDEST PUSH1 0x60 PUSH0 PUSH1 0x2 DUP4 PUSH1 0x2 PUSH2 0x135F SWAP2 SWAP1 PUSH2 0x24B6 JUMP JUMPDEST PUSH2 0x1369 SWAP2 SWAP1 PUSH2 0x24F7 JUMP JUMPDEST PUSH8 0xFFFFFFFFFFFFFFFF DUP2 GT ISZERO PUSH2 0x1382 JUMPI PUSH2 0x1381 PUSH2 0x16C5 JUMP JUMPDEST JUMPDEST PUSH1 0x40 MLOAD SWAP1 DUP1 DUP3 MSTORE DUP1 PUSH1 0x1F ADD PUSH1 0x1F NOT AND PUSH1 0x20 ADD DUP3 ADD PUSH1 0x40 MSTORE DUP1 ISZERO PUSH2 0x13B4 JUMPI DUP2 PUSH1 0x20 ADD PUSH1 0x1 DUP3 MUL DUP1 CALLDATASIZE DUP4 CALLDATACOPY DUP1 DUP3 ADD SWAP2 POP POP SWAP1 POP JUMPDEST POP SWAP1 POP PUSH32 0x3000000000000000000000000000000000000000000000000000000000000000 DUP2 PUSH0 DUP2 MLOAD DUP2 LT PUSH2 0x13EB JUMPI PUSH2 0x13EA PUSH2 0x252A JUMP JUMPDEST JUMPDEST PUSH1 0x20 ADD ADD SWAP1 PUSH31 0xFFFFFFFFFFFFFFFFFFFFFFFFFFFFFFFFFFFFFFFFFFFFFFFFFFFFFFFFFFFFFF NOT AND SWAP1 DUP2 PUSH0 BYTE SWAP1 MSTORE8 POP PUSH32 0x7800000000000000000000000000000000000000000000000000000000000000 DUP2 PUSH1 0x1 DUP2 MLOAD DUP2 LT PUSH2 0x144E JUMPI PUSH2 0x144D PUSH2 0x252A JUMP JUMPDEST JUMPDEST PUSH1 0x20 ADD ADD SWAP1 PUSH31 0xFFFFFFFFFFFFFFFFFFFFFFFFFFFFFFFFFFFFFFFFFFFFFFFFFFFFFFFFFFFFFF NOT AND SWAP1 DUP2 PUSH0 BYTE SWAP1 MSTORE8 POP PUSH0 PUSH1 0x1 DUP5 PUSH1 0x2 PUSH2 0x148C SWAP2 SWAP1 PUSH2 0x24B6 JUMP JUMPDEST PUSH2 0x1496 SWAP2 SWAP1 PUSH2 0x24F7 JUMP JUMPDEST SWAP1 POP JUMPDEST PUSH1 0x1 DUP2 GT ISZERO PUSH2 0x1535 JUMPI PUSH32 0x3031323334353637383961626364656600000000000000000000000000000000 PUSH1 0xF DUP7 AND PUSH1 0x10 DUP2 LT PUSH2 0x14D8 JUMPI PUSH2 0x14D7 PUSH2 0x252A JUMP JUMPDEST JUMPDEST BYTE PUSH1 0xF8 SHL DUP3 DUP3 DUP2 MLOAD DUP2 LT PUSH2 0x14EF JUMPI PUSH2 0x14EE PUSH2 0x252A JUMP JUMPDEST JUMPDEST PUSH1 0x20 ADD ADD SWAP1 PUSH31 0xFFFFFFFFFFFFFFFFFFFFFFFFFFFFFFFFFFFFFFFFFFFFFFFFFFFFFFFFFFFFFF NOT AND SWAP1 DUP2 PUSH0 BYTE SWAP1 MSTORE8 POP PUSH1 0x4 DUP6 SWAP1 SHR SWAP5 POP DUP1 PUSH2 0x152E SWAP1 PUSH2 0x2557 JUMP JUMPDEST SWAP1 POP PUSH2 0x1499 JUMP JUMPDEST POP PUSH0 DUP5 EQ PUSH2 0x1578 JUMPI PUSH1 0x40 MLOAD PUSH32 0x8C379A000000000000000000000000000000000000000000000000000000000 DUP2 MSTORE PUSH1 0x4 ADD PUSH2 0x156F SWAP1 PUSH2 0x25C8 JUMP JUMPDEST PUSH1 0x40 MLOAD DUP1 SWAP2 SUB SWAP1 REVERT JUMPDEST DUP1 SWAP2 POP POP SWAP3 SWAP2 POP POP JUMP JUMPDEST PUSH1 0x40 MLOAD DUP1 PUSH1 0xE0 ADD PUSH1 0x40 MSTORE DUP1 PUSH1 0x60 DUP2 MSTORE PUSH1 0x20 ADD PUSH0 PUSH20 0xFFFFFFFFFFFFFFFFFFFFFFFFFFFFFFFFFFFFFFFF AND DUP2 MSTORE PUSH1 0x20 ADD PUSH0 PUSH20 0xFFFFFFFFFFFFFFFFFFFFFFFFFFFFFFFFFFFFFFFF AND DUP2 MSTORE PUSH1 0x20 ADD PUSH1 0x60 DUP2 MSTORE PUSH1 0x20 ADD PUSH0 DUP2 MSTORE PUSH1 0x20 ADD PUSH0 ISZERO ISZERO DUP2 MSTORE PUSH1 0x20 ADD PUSH1 0x60 DUP2 MSTORE POP SWAP1 JUMP JUMPDEST PUSH0 PUSH1 0x40 MLOAD SWAP1 POP SWAP1 JUMP JUMPDEST PUSH0 DUP1 REVERT JUMPDEST PUSH0 DUP1 REVERT JUMPDEST PUSH0 PUSH32 0xFFFFFFFF00000000000000000000000000000000000000000000000000000000 DUP3 AND SWAP1 POP SWAP2 SWAP1 POP JUMP JUMPDEST PUSH2 0x162E DUP2 PUSH2 0x15FA JUMP JUMPDEST DUP2 EQ PUSH2 0x1638 JUMPI PUSH0 DUP1 REVERT JUMPDEST POP JUMP JUMPDEST PUSH0 DUP2 CALLDATALOAD SWAP1 POP PUSH2 0x1649 DUP2 PUSH2 0x1625 JUMP JUMPDEST SWAP3 SWAP2 POP POP JUMP JUMPDEST PUSH0 PUSH1 0x20 DUP3 DUP5 SUB SLT ISZERO PUSH2 0x1664 JUMPI PUSH2 0x1663 PUSH2 0x15F2 JUMP JUMPDEST JUMPDEST PUSH0 PUSH2 0x1671 DUP5 DUP3 DUP6 ADD PUSH2 0x163B JUMP JUMPDEST SWAP2 POP POP SWAP3 SWAP2 POP POP JUMP JUMPDEST PUSH0 DUP2 ISZERO ISZERO SWAP1 POP SWAP2 SWAP1 POP JUMP JUMPDEST PUSH2 0x168E DUP2 PUSH2 0x167A JUMP JUMPDEST DUP3 MSTORE POP POP JUMP JUMPDEST PUSH0 PUSH1 0x20 DUP3 ADD SWAP1 POP PUSH2 0x16A7 PUSH0 DUP4 ADD DUP5 PUSH2 0x1685 JUMP JUMPDEST SWAP3 SWAP2 POP POP JUMP JUMPDEST PUSH0 DUP1 REVERT JUMPDEST PUSH0 DUP1 REVERT JUMPDEST PUSH0 PUSH1 0x1F NOT PUSH1 0x1F DUP4 ADD AND SWAP1 POP SWAP2 SWAP1 POP JUMP JUMPDEST PUSH32 0x4E487B7100000000000000000000000000000000000000000000000000000000 PUSH0 MSTORE PUSH1 0x41 PUSH1 0x4 MSTORE PUSH1 0x24 PUSH0 REVERT JUMPDEST PUSH2 0x16FB DUP3 PUSH2 0x16B5 JUMP JUMPDEST DUP2 ADD DUP2 DUP2 LT PUSH8 0xFFFFFFFFFFFFFFFF DUP3 GT OR ISZERO PUSH2 0x171A JUMPI PUSH2 0x1719 PUSH2 0x16C5 JUMP JUMPDEST JUMPDEST DUP1 PUSH1 0x40 MSTORE POP POP POP JUMP JUMPDEST PUSH0 PUSH2 0x172C PUSH2 0x15E9 JUMP JUMPDEST SWAP1 POP PUSH2 0x1738 DUP3 DUP3 PUSH2 0x16F2 JUMP JUMPDEST SWAP2 SWAP1 POP JUMP JUMPDEST PUSH0 PUSH8 0xFFFFFFFFFFFFFFFF DUP3 GT ISZERO PUSH2 0x1757 JUMPI PUSH2 0x1756 PUSH2 0x16C5 JUMP JUMPDEST JUMPDEST PUSH2 0x1760 DUP3 PUSH2 0x16B5 JUMP JUMPDEST SWAP1 POP PUSH1 0x20 DUP2 ADD SWAP1 POP SWAP2 SWAP1 POP JUMP JUMPDEST DUP3 DUP2 DUP4 CALLDATACOPY PUSH0 DUP4 DUP4 ADD MSTORE POP POP POP JUMP JUMPDEST PUSH0 PUSH2 0x178D PUSH2 0x1788 DUP5 PUSH2 0x173D JUMP JUMPDEST PUSH2 0x1723 JUMP JUMPDEST SWAP1 POP DUP3 DUP2 MSTORE PUSH1 0x20 DUP2 ADD DUP5 DUP5 DUP5 ADD GT ISZERO PUSH2 0x17A9 JUMPI PUSH2 0x17A8 PUSH2 0x16B1 JUMP JUMPDEST JUMPDEST PUSH2 0x17B4 DUP5 DUP3 DUP6 PUSH2 0x176D JUMP JUMPDEST POP SWAP4 SWAP3 POP POP POP JUMP JUMPDEST PUSH0 DUP3 PUSH1 0x1F DUP4 ADD SLT PUSH2 0x17D0 JUMPI PUSH2 0x17CF PUSH2 0x16AD JUMP JUMPDEST JUMPDEST DUP2 CALLDATALOAD PUSH2 0x17E0 DUP5 DUP3 PUSH1 0x20 DUP7 ADD PUSH2 0x177B JUMP JUMPDEST SWAP2 POP POP SWAP3 SWAP2 POP POP JUMP JUMPDEST PUSH0 PUSH1 0x20 DUP3 DUP5 SUB SLT ISZERO PUSH2 0x17FE JUMPI PUSH2 0x17FD PUSH2 0x15F2 JUMP JUMPDEST JUMPDEST PUSH0 DUP3 ADD CALLDATALOAD PUSH8 0xFFFFFFFFFFFFFFFF DUP2 GT ISZERO PUSH2 0x181B JUMPI PUSH2 0x181A PUSH2 0x15F6 JUMP JUMPDEST JUMPDEST PUSH2 0x1827 DUP5 DUP3 DUP6 ADD PUSH2 0x17BC JUMP JUMPDEST SWAP2 POP POP SWAP3 SWAP2 POP POP JUMP JUMPDEST PUSH0 DUP2 SWAP1 POP SWAP2 SWAP1 POP JUMP JUMPDEST PUSH2 0x1842 DUP2 PUSH2 0x1830 JUMP JUMPDEST DUP2 EQ PUSH2 0x184C JUMPI PUSH0 DUP1 REVERT JUMPDEST POP JUMP JUMPDEST PUSH0 DUP2 CALLDATALOAD SWAP1 POP PUSH2 0x185D DUP2 PUSH2 0x1839 JUMP JUMPDEST SWAP3 SWAP2 POP POP JUMP JUMPDEST PUSH0 PUSH1 0x20 DUP3 DUP5 SUB SLT ISZERO PUSH2 0x1878 JUMPI PUSH2 0x1877 PUSH2 0x15F2 JUMP JUMPDEST JUMPDEST PUSH0 PUSH2 0x1885 DUP5 DUP3 DUP6 ADD PUSH2 0x184F JUMP JUMPDEST SWAP2 POP POP SWAP3 SWAP2 POP POP JUMP JUMPDEST PUSH2 0x1897 DUP2 PUSH2 0x1830 JUMP JUMPDEST DUP3 MSTORE POP POP JUMP JUMPDEST PUSH0 PUSH1 0x20 DUP3 ADD SWAP1 POP PUSH2 0x18B0 PUSH0 DUP4 ADD DUP5 PUSH2 0x188E JUMP JUMPDEST SWAP3 SWAP2 POP POP JUMP JUMPDEST PUSH0 PUSH20 0xFFFFFFFFFFFFFFFFFFFFFFFFFFFFFFFFFFFFFFFF DUP3 AND SWAP1 POP SWAP2 SWAP1 POP JUMP JUMPDEST PUSH0 PUSH2 0x18DF DUP3 PUSH2 0x18B6 JUMP JUMPDEST SWAP1 POP SWAP2 SWAP1 POP JUMP JUMPDEST PUSH2 0x18EF DUP2 PUSH2 0x18D5 JUMP JUMPDEST DUP2 EQ PUSH2 0x18F9 JUMPI PUSH0 DUP1 REVERT JUMPDEST POP JUMP JUMPDEST PUSH0 DUP2 CALLDATALOAD SWAP1 POP PUSH2 0x190A DUP2 PUSH2 0x18E6 JUMP JUMPDEST SWAP3 SWAP2 POP POP JUMP JUMPDEST PUSH0 DUP1 PUSH1 0x40 DUP4 DUP6 SUB SLT ISZERO PUSH2 0x1926 JUMPI PUSH2 0x1925 PUSH2 0x15F2 JUMP JUMPDEST JUMPDEST PUSH0 PUSH2 0x1933 DUP6 DUP3 DUP7 ADD PUSH2 0x184F JUMP JUMPDEST SWAP3 POP POP PUSH1 0x20 PUSH2 0x1944 DUP6 DUP3 DUP7 ADD PUSH2 0x18FC JUMP JUMPDEST SWAP2 POP POP SWAP3 POP SWAP3 SWAP1 POP JUMP JUMPDEST PUSH0 DUP1 PUSH0 DUP1 PUSH1 0x80 DUP6 DUP8 SUB SLT ISZERO PUSH2 0x1966 JUMPI PUSH2 0x1965 PUSH2 0x15F2 JUMP JUMPDEST JUMPDEST PUSH0 DUP6 ADD CALLDATALOAD PUSH8 0xFFFFFFFFFFFFFFFF DUP2 GT ISZERO PUSH2 0x1983 JUMPI PUSH2 0x1982 PUSH2 0x15F6 JUMP JUMPDEST JUMPDEST PUSH2 0x198F DUP8 DUP3 DUP9 ADD PUSH2 0x17BC JUMP JUMPDEST SWAP5 POP POP PUSH1 0x20 PUSH2 0x19A0 DUP8 DUP3 DUP9 ADD PUSH2 0x18FC JUMP JUMPDEST SWAP4 POP POP PUSH1 0x40 DUP6 ADD CALLDATALOAD PUSH8 0xFFFFFFFFFFFFFFFF DUP2 GT ISZERO PUSH2 0x19C1 JUMPI PUSH2 0x19C0 PUSH2 0x15F6 JUMP JUMPDEST JUMPDEST PUSH2 0x19CD DUP8 DUP3 DUP9 ADD PUSH2 0x17BC JUMP JUMPDEST SWAP3 POP POP PUSH1 0x60 DUP6 ADD CALLDATALOAD PUSH8 0xFFFFFFFFFFFFFFFF DUP2 GT ISZERO PUSH2 0x19EE JUMPI PUSH2 0x19ED PUSH2 0x15F6 JUMP JUMPDEST JUMPDEST PUSH2 0x19FA DUP8 DUP3 DUP9 ADD PUSH2 0x17BC JUMP JUMPDEST SWAP2 POP POP SWAP3 SWAP6 SWAP2 SWAP5 POP SWAP3 POP JUMP JUMPDEST PUSH0 DUP2 MLOAD SWAP1 POP SWAP2 SWAP1 POP JUMP JUMPDEST PUSH0 DUP3 DUP3 MSTORE PUSH1 0x20 DUP3 ADD SWAP1 POP SWAP3 SWAP2 POP POP JUMP JUMPDEST DUP3 DUP2 DUP4 MCOPY PUSH0 DUP4 DUP4 ADD MSTORE POP POP POP JUMP JUMPDEST PUSH0 PUSH2 0x1A38 DUP3 PUSH2 0x1A06 JUMP JUMPDEST PUSH2 0x1A42 DUP2 DUP6 PUSH2 0x1A10 JUMP JUMPDEST SWAP4 POP PUSH2 0x1A52 DUP2 DUP6 PUSH1 0x20 DUP7 ADD PUSH2 0x1A20 JUMP JUMPDEST PUSH2 0x1A5B DUP2 PUSH2 0x16B5 JUMP JUMPDEST DUP5 ADD SWAP2 POP POP SWAP3 SWAP2 POP POP JUMP JUMPDEST PUSH2 0x1A6F DUP2 PUSH2 0x18D5 JUMP JUMPDEST DUP3 MSTORE POP POP JUMP JUMPDEST PUSH0 DUP2 SWAP1 POP SWAP2 SWAP1 POP JUMP JUMPDEST PUSH2 0x1A87 DUP2 PUSH2 0x1A75 JUMP JUMPDEST DUP3 MSTORE POP POP JUMP JUMPDEST PUSH2 0x1A96 DUP2 PUSH2 0x167A JUMP JUMPDEST DUP3 MSTORE POP POP JUMP JUMPDEST PUSH0 PUSH1 0xE0 DUP4 ADD PUSH0 DUP4 ADD MLOAD DUP5 DUP3 SUB PUSH0 DUP7 ADD MSTORE PUSH2 0x1AB6 DUP3 DUP3 PUSH2 0x1A2E JUMP JUMPDEST SWAP2 POP POP PUSH1 0x20 DUP4 ADD MLOAD PUSH2 0x1ACB PUSH1 0x20 DUP7 ADD DUP3 PUSH2 0x1A66 JUMP JUMPDEST POP PUSH1 0x40 DUP4 ADD MLOAD PUSH2 0x1ADE PUSH1 0x40 DUP7 ADD DUP3 PUSH2 0x1A66 JUMP JUMPDEST POP PUSH1 0x60 DUP4 ADD MLOAD DUP5 DUP3 SUB PUSH1 0x60 DUP7 ADD MSTORE PUSH2 0x1AF6 DUP3 DUP3 PUSH2 0x1A2E JUMP JUMPDEST SWAP2 POP POP PUSH1 0x80 DUP4 ADD MLOAD PUSH2 0x1B0B PUSH1 0x80 DUP7 ADD DUP3 PUSH2 0x1A7E JUMP JUMPDEST POP PUSH1 0xA0 DUP4 ADD MLOAD PUSH2 0x1B1E PUSH1 0xA0 DUP7 ADD DUP3 PUSH2 0x1A8D JUMP JUMPDEST POP PUSH1 0xC0 DUP4 ADD MLOAD DUP5 DUP3 SUB PUSH1 0xC0 DUP7 ADD MSTORE PUSH2 0x1B36 DUP3 DUP3 PUSH2 0x1A2E JUMP JUMPDEST SWAP2 POP POP DUP1 SWAP2 POP POP SWAP3 SWAP2 POP POP JUMP JUMPDEST PUSH0 PUSH1 0x40 DUP3 ADD SWAP1 POP PUSH2 0x1B56 PUSH0 DUP4 ADD DUP6 PUSH2 0x1685 JUMP JUMPDEST DUP2 DUP2 SUB PUSH1 0x20 DUP4 ADD MSTORE PUSH2 0x1B68 DUP2 DUP5 PUSH2 0x1A9C JUMP JUMPDEST SWAP1 POP SWAP4 SWAP3 POP POP POP JUMP JUMPDEST PUSH0 DUP3 DUP3 MSTORE PUSH1 0x20 DUP3 ADD SWAP1 POP SWAP3 SWAP2 POP POP JUMP JUMPDEST PUSH0 PUSH2 0x1B8B DUP3 PUSH2 0x1A06 JUMP JUMPDEST PUSH2 0x1B95 DUP2 DUP6 PUSH2 0x1B71 JUMP JUMPDEST SWAP4 POP PUSH2 0x1BA5 DUP2 DUP6 PUSH1 0x20 DUP7 ADD PUSH2 0x1A20 JUMP JUMPDEST PUSH2 0x1BAE DUP2 PUSH2 0x16B5 JUMP JUMPDEST DUP5 ADD SWAP2 POP POP SWAP3 SWAP2 POP POP JUMP JUMPDEST PUSH2 0x1BC2 DUP2 PUSH2 0x18D5 JUMP JUMPDEST DUP3 MSTORE POP POP JUMP JUMPDEST PUSH2 0x1BD1 DUP2 PUSH2 0x1A75 JUMP JUMPDEST DUP3 MSTORE POP POP JUMP JUMPDEST PUSH0 PUSH1 0xE0 DUP3 ADD SWAP1 POP DUP2 DUP2 SUB PUSH0 DUP4 ADD MSTORE PUSH2 0x1BEF DUP2 DUP11 PUSH2 0x1B81 JUMP JUMPDEST SWAP1 POP PUSH2 0x1BFE PUSH1 0x20 DUP4 ADD DUP10 PUSH2 0x1BB9 JUMP JUMPDEST PUSH2 0x1C0B PUSH1 0x40 DUP4 ADD DUP9 PUSH2 0x1BB9 JUMP JUMPDEST DUP2 DUP2 SUB PUSH1 0x60 DUP4 ADD MSTORE PUSH2 0x1C1D DUP2 DUP8 PUSH2 0x1B81 JUMP JUMPDEST SWAP1 POP PUSH2 0x1C2C PUSH1 0x80 DUP4 ADD DUP7 PUSH2 0x1BC8 JUMP JUMPDEST PUSH2 0x1C39 PUSH1 0xA0 DUP4 ADD DUP6 PUSH2 0x1685 JUMP JUMPDEST DUP2 DUP2 SUB PUSH1 0xC0 DUP4 ADD MSTORE PUSH2 0x1C4B DUP2 DUP5 PUSH2 0x1B81 JUMP JUMPDEST SWAP1 POP SWAP9 SWAP8 POP POP POP POP POP POP POP POP JUMP JUMPDEST PUSH0 DUP2 SWAP1 POP SWAP3 SWAP2 POP POP JUMP JUMPDEST PUSH0 PUSH2 0x1C6D DUP3 PUSH2 0x1A06 JUMP JUMPDEST PUSH2 0x1C77 DUP2 DUP6 PUSH2 0x1C59 JUMP JUMPDEST SWAP4 POP PUSH2 0x1C87 DUP2 DUP6 PUSH1 0x20 DUP7 ADD PUSH2 0x1A20 JUMP JUMPDEST DUP1 DUP5 ADD SWAP2 POP POP SWAP3 SWAP2 POP POP JUMP JUMPDEST PUSH0 PUSH2 0x1C9E DUP3 DUP5 PUSH2 0x1C63 JUMP JUMPDEST SWAP2 POP DUP2 SWAP1 POP SWAP3 SWAP2 POP POP JUMP JUMPDEST PUSH32 0x436572746966696361746520646F6573206E6F74206578697374000000000000 PUSH0 DUP3 ADD MSTORE POP JUMP JUMPDEST PUSH0 PUSH2 0x1CDD PUSH1 0x1A DUP4 PUSH2 0x1B71 JUMP JUMPDEST SWAP2 POP PUSH2 0x1CE8 DUP3 PUSH2 0x1CA9 JUMP JUMPDEST PUSH1 0x20 DUP3 ADD SWAP1 POP SWAP2 SWAP1 POP JUMP JUMPDEST PUSH0 PUSH1 0x20 DUP3 ADD SWAP1 POP DUP2 DUP2 SUB PUSH0 DUP4 ADD MSTORE PUSH2 0x1D0A DUP2 PUSH2 0x1CD1 JUMP JUMPDEST SWAP1 POP SWAP2 SWAP1 POP JUMP JUMPDEST PUSH32 0x436572746966696361746520697320616C7265616479207265766F6B65640000 PUSH0 DUP3 ADD MSTORE POP JUMP JUMPDEST PUSH0 PUSH2 0x1D45 PUSH1 0x1E DUP4 PUSH2 0x1B71 JUMP JUMPDEST SWAP2 POP PUSH2 0x1D50 DUP3 PUSH2 0x1D11 JUMP JUMPDEST PUSH1 0x20 DUP3 ADD SWAP1 POP SWAP2 SWAP1 POP JUMP JUMPDEST PUSH0 PUSH1 0x20 DUP3 ADD SWAP1 POP DUP2 DUP2 SUB PUSH0 DUP4 ADD MSTORE PUSH2 0x1D72 DUP2 PUSH2 0x1D39 JUMP JUMPDEST SWAP1 POP SWAP2 SWAP1 POP JUMP JUMPDEST PUSH0 PUSH1 0x20 DUP3 ADD SWAP1 POP DUP2 DUP2 SUB PUSH0 DUP4 ADD MSTORE PUSH2 0x1D91 DUP2 DUP5 PUSH2 0x1B81 JUMP JUMPDEST SWAP1 POP SWAP3 SWAP2 POP POP JUMP JUMPDEST PUSH32 0x416363657373436F6E74726F6C3A2063616E206F6E6C792072656E6F756E6365 PUSH0 DUP3 ADD MSTORE PUSH32 0x20726F6C657320666F722073656C660000000000000000000000000000000000 PUSH1 0x20 DUP3 ADD MSTORE POP JUMP JUMPDEST PUSH0 PUSH2 0x1DF3 PUSH1 0x2F DUP4 PUSH2 0x1B71 JUMP JUMPDEST SWAP2 POP PUSH2 0x1DFE DUP3 PUSH2 0x1D99 JUMP JUMPDEST PUSH1 0x40 DUP3 ADD SWAP1 POP SWAP2 SWAP1 POP JUMP JUMPDEST PUSH0 PUSH1 0x20 DUP3 ADD SWAP1 POP DUP2 DUP2 SUB PUSH0 DUP4 ADD MSTORE PUSH2 0x1E20 DUP2 PUSH2 0x1DE7 JUMP JUMPDEST SWAP1 POP SWAP2 SWAP1 POP JUMP JUMPDEST PUSH32 0x43657274696669636174652049442063616E6E6F7420626520656D7074790000 PUSH0 DUP3 ADD MSTORE POP JUMP JUMPDEST PUSH0 PUSH2 0x1E5B PUSH1 0x1E DUP4 PUSH2 0x1B71 JUMP JUMPDEST SWAP2 POP PUSH2 0x1E66 DUP3 PUSH2 0x1E27 JUMP JUMPDEST PUSH1 0x20 DUP3 ADD SWAP1 POP SWAP2 SWAP1 POP JUMP JUMPDEST PUSH0 PUSH1 0x20 DUP3 ADD SWAP1 POP DUP2 DUP2 SUB PUSH0 DUP4 ADD MSTORE PUSH2 0x1E88 DUP2 PUSH2 0x1E4F JUMP JUMPDEST SWAP1 POP SWAP2 SWAP1 POP JUMP JUMPDEST PUSH32 0x496E76616C69642073747564656E742061646472657373000000000000000000 PUSH0 DUP3 ADD MSTORE POP JUMP JUMPDEST PUSH0 PUSH2 0x1EC3 PUSH1 0x17 DUP4 PUSH2 0x1B71 JUMP JUMPDEST SWAP2 POP PUSH2 0x1ECE DUP3 PUSH2 0x1E8F JUMP JUMPDEST PUSH1 0x20 DUP3 ADD SWAP1 POP SWAP2 SWAP1 POP JUMP JUMPDEST PUSH0 PUSH1 0x20 DUP3 ADD SWAP1 POP DUP2 DUP2 SUB PUSH0 DUP4 ADD MSTORE PUSH2 0x1EF0 DUP2 PUSH2 0x1EB7 JUMP JUMPDEST SWAP1 POP SWAP2 SWAP1 POP JUMP JUMPDEST PUSH32 0x4950465320686173682063616E6E6F7420626520656D70747900000000000000 PUSH0 DUP3 ADD MSTORE POP JUMP JUMPDEST PUSH0 PUSH2 0x1F2B PUSH1 0x19 DUP4 PUSH2 0x1B71 JUMP JUMPDEST SWAP2 POP PUSH2 0x1F36 DUP3 PUSH2 0x1EF7 JUMP JUMPDEST PUSH1 0x20 DUP3 ADD SWAP1 POP SWAP2 SWAP1 POP JUMP JUMPDEST PUSH0 PUSH1 0x20 DUP3 ADD SWAP1 POP DUP2 DUP2 SUB PUSH0 DUP4 ADD MSTORE PUSH2 0x1F58 DUP2 PUSH2 0x1F1F JUMP JUMPDEST SWAP1 POP SWAP2 SWAP1 POP JUMP JUMPDEST PUSH32 0x436572746966696361746520494420616C726561647920657869737473000000 PUSH0 DUP3 ADD MSTORE POP JUMP JUMPDEST PUSH0 PUSH2 0x1F93 PUSH1 0x1D DUP4 PUSH2 0x1B71 JUMP JUMPDEST SWAP2 POP PUSH2 0x1F9E DUP3 PUSH2 0x1F5F JUMP JUMPDEST PUSH1 0x20 DUP3 ADD SWAP1 POP SWAP2 SWAP1 POP JUMP JUMPDEST PUSH0 PUSH1 0x20 DUP3 ADD SWAP1 POP DUP2 DUP2 SUB PUSH0 DUP4 ADD MSTORE PUSH2 0x1FC0 DUP2 PUSH2 0x1F87 JUMP JUMPDEST SWAP1 POP SWAP2 SWAP1 POP JUMP JUMPDEST PUSH32 0x4E487B7100000000000000000000000000000000000000000000000000000000 PUSH0 MSTORE PUSH1 0x22 PUSH1 0x4 MSTORE PUSH1 0x24 PUSH0 REVERT JUMPDEST PUSH0 PUSH1 0x2 DUP3 DIV SWAP1 POP PUSH1 0x1 DUP3 AND DUP1 PUSH2 0x200B JUMPI PUSH1 0x7F DUP3 AND SWAP2 POP JUMPDEST PUSH1 0x20 DUP3 LT DUP2 SUB PUSH2 0x201E JUMPI PUSH2 0x201D PUSH2 0x1FC7 JUMP JUMPDEST JUMPDEST POP SWAP2 SWAP1 POP JUMP JUMPDEST PUSH0 DUP2 SWAP1 POP DUP2 PUSH0 MSTORE PUSH1 0x20 PUSH0 KECCAK256 SWAP1 POP SWAP2 SWAP1 POP JUMP JUMPDEST PUSH0 PUSH1 0x20 PUSH1 0x1F DUP4 ADD DIV SWAP1 POP SWAP2 SWAP1 POP JUMP JUMPDEST PUSH0 DUP3 DUP3 SHL SWAP1 POP SWAP3 SWAP2 POP POP JUMP JUMPDEST PUSH0 PUSH1 0x8 DUP4 MUL PUSH2 0x2080 PUSH32 0xFFFFFFFFFFFFFFFFFFFFFFFFFFFFFFFFFFFFFFFFFFFFFFFFFFFFFFFFFFFFFFFF DUP3 PUSH2 0x2045 JUMP JUMPDEST PUSH2 0x208A DUP7 DUP4 PUSH2 0x2045 JUMP JUMPDEST SWAP6 POP DUP1 NOT DUP5 AND SWAP4 POP DUP1 DUP7 AND DUP5 OR SWAP3 POP POP POP SWAP4 SWAP3 POP POP POP JUMP JUMPDEST PUSH0 DUP2 SWAP1 POP SWAP2 SWAP1 POP JUMP JUMPDEST PUSH0 PUSH2 0x20C5 PUSH2 0x20C0 PUSH2 0x20BB DUP5 PUSH2 0x1A75 JUMP JUMPDEST PUSH2 0x20A2 JUMP JUMPDEST PUSH2 0x1A75 JUMP JUMPDEST SWAP1 POP SWAP2 SWAP1 POP JUMP JUMPDEST PUSH0 DUP2 SWAP1 POP SWAP2 SWAP1 POP JUMP JUMPDEST PUSH2 0x20DE DUP4 PUSH2 0x20AB JUMP JUMPDEST PUSH2 0x20F2 PUSH2 0x20EA DUP3 PUSH2 0x20CC JUMP JUMPDEST DUP5 DUP5 SLOAD PUSH2 0x2051 JUMP JUMPDEST DUP3 SSTORE POP POP POP POP JUMP JUMPDEST PUSH0 SWAP1 JUMP JUMPDEST PUSH2 0x2106 PUSH2 0x20FA JUMP JUMPDEST PUSH2 0x2111 DUP2 DUP5 DUP5 PUSH2 0x20D5 JUMP JUMPDEST POP POP POP JUMP JUMPDEST JUMPDEST DUP2 DUP2 LT ISZERO PUSH2 0x2134 JUMPI PUSH2 0x2129 PUSH0 DUP3 PUSH2 0x20FE JUMP JUMPDEST PUSH1 0x1 DUP2 ADD SWAP1 POP PUSH2 0x2117 JUMP JUMPDEST POP POP JUMP JUMPDEST PUSH1 0x1F DUP3 GT ISZERO PUSH2 0x2179 JUMPI PUSH2 0x214A DUP2 PUSH2 0x2024 JUMP JUMPDEST PUSH2 0x2153 DUP5 PUSH2 0x2036 JUMP JUMPDEST DUP2 ADD PUSH1 0x20 DUP6 LT ISZERO PUSH2 0x2162 JUMPI DUP2 SWAP1 POP JUMPDEST PUSH2 0x2176 PUSH2 0x216E DUP6 PUSH2 0x2036 JUMP JUMPDEST DUP4 ADD DUP3 PUSH2 0x2116 JUMP JUMPDEST POP POP JUMPDEST POP POP POP JUMP JUMPDEST PUSH0 DUP3 DUP3 SHR SWAP1 POP SWAP3 SWAP2 POP POP JUMP JUMPDEST PUSH0 PUSH2 0x2199 PUSH0 NOT DUP5 PUSH1 0x8 MUL PUSH2 0x217E JUMP JUMPDEST NOT DUP1 DUP4 AND SWAP2 POP POP SWAP3 SWAP2 POP POP JUMP JUMPDEST PUSH0 PUSH2 0x21B1 DUP4 DUP4 PUSH2 0x218A JUMP JUMPDEST SWAP2 POP DUP3 PUSH1 0x2 MUL DUP3 OR SWAP1 POP SWAP3 SWAP2 POP POP JUMP JUMPDEST PUSH2 0x21CA DUP3 PUSH2 0x1A06 JUMP JUMPDEST PUSH8 0xFFFFFFFFFFFFFFFF DUP2 GT ISZERO PUSH2 0x21E3 JUMPI PUSH2 0x21E2 PUSH2 0x16C5 JUMP JUMPDEST JUMPDEST PUSH2 0x21ED DUP3 SLOAD PUSH2 0x1FF4 JUMP JUMPDEST PUSH2 0x21F8 DUP3 DUP3 DUP6 PUSH2 0x2138 JUMP JUMPDEST PUSH0 PUSH1 0x20 SWAP1 POP PUSH1 0x1F DUP4 GT PUSH1 0x1 DUP2 EQ PUSH2 0x2229 JUMPI PUSH0 DUP5 ISZERO PUSH2 0x2217 JUMPI DUP3 DUP8 ADD MLOAD SWAP1 POP JUMPDEST PUSH2 0x2221 DUP6 DUP3 PUSH2 0x21A6 JUMP JUMPDEST DUP7 SSTORE POP PUSH2 0x2288 JUMP JUMPDEST PUSH1 0x1F NOT DUP5 AND PUSH2 0x2237 DUP7 PUSH2 0x2024 JUMP JUMPDEST PUSH0 JUMPDEST DUP3 DUP2 LT ISZERO PUSH2 0x225E JUMPI DUP5 DUP10 ADD MLOAD DUP3 SSTORE PUSH1 0x1 DUP3 ADD SWAP2 POP PUSH1 0x20 DUP6 ADD SWAP5 POP PUSH1 0x20 DUP2 ADD SWAP1 POP PUSH2 0x2239 JUMP JUMPDEST DUP7 DUP4 LT ISZERO PUSH2 0x227B JUMPI DUP5 DUP10 ADD MLOAD PUSH2 0x2277 PUSH1 0x1F DUP10 AND DUP3 PUSH2 0x218A JUMP JUMPDEST DUP4 SSTORE POP JUMPDEST PUSH1 0x1 PUSH1 0x2 DUP9 MUL ADD DUP9 SSTORE POP POP POP JUMPDEST POP POP POP POP POP POP JUMP JUMPDEST PUSH0 PUSH1 0x60 DUP3 ADD SWAP1 POP DUP2 DUP2 SUB PUSH0 DUP4 ADD MSTORE PUSH2 0x22A8 DUP2 DUP7 PUSH2 0x1B81 JUMP JUMPDEST SWAP1 POP DUP2 DUP2 SUB PUSH1 0x20 DUP4 ADD MSTORE PUSH2 0x22BC DUP2 DUP6 PUSH2 0x1B81 JUMP JUMPDEST SWAP1 POP PUSH2 0x22CB PUSH1 0x40 DUP4 ADD DUP5 PUSH2 0x1BC8 JUMP JUMPDEST SWAP5 SWAP4 POP POP POP POP JUMP JUMPDEST PUSH32 0x5061757361626C653A2070617573656400000000000000000000000000000000 PUSH0 DUP3 ADD MSTORE POP JUMP JUMPDEST PUSH0 PUSH2 0x2307 PUSH1 0x10 DUP4 PUSH2 0x1B71 JUMP JUMPDEST SWAP2 POP PUSH2 0x2312 DUP3 PUSH2 0x22D3 JUMP JUMPDEST PUSH1 0x20 DUP3 ADD SWAP1 POP SWAP2 SWAP1 POP JUMP JUMPDEST PUSH0 PUSH1 0x20 DUP3 ADD SWAP1 POP DUP2 DUP2 SUB PUSH0 DUP4 ADD MSTORE PUSH2 0x2334 DUP2 PUSH2 0x22FB JUMP JUMPDEST SWAP1 POP SWAP2 SWAP1 POP JUMP JUMPDEST PUSH0 PUSH1 0x20 DUP3 ADD SWAP1 POP PUSH2 0x234E PUSH0 DUP4 ADD DUP5 PUSH2 0x1BB9 JUMP JUMPDEST SWAP3 SWAP2 POP POP JUMP JUMPDEST PUSH32 0x416363657373436F6E74726F6C3A206163636F756E7420000000000000000000 PUSH0 DUP3 ADD MSTORE POP JUMP JUMPDEST PUSH0 PUSH2 0x2388 PUSH1 0x17 DUP4 PUSH2 0x1C59 JUMP JUMPDEST SWAP2 POP PUSH2 0x2393 DUP3 PUSH2 0x2354 JUMP JUMPDEST PUSH1 0x17 DUP3 ADD SWAP1 POP SWAP2 SWAP1 POP JUMP JUMPDEST PUSH32 0x206973206D697373696E6720726F6C6520000000000000000000000000000000 PUSH0 DUP3 ADD MSTORE POP JUMP JUMPDEST PUSH0 PUSH2 0x23D2 PUSH1 0x11 DUP4 PUSH2 0x1C59 JUMP JUMPDEST SWAP2 POP PUSH2 0x23DD DUP3 PUSH2 0x239E JUMP JUMPDEST PUSH1 0x11 DUP3 ADD SWAP1 POP SWAP2 SWAP1 POP JUMP JUMPDEST PUSH0 PUSH2 0x23F2 DUP3 PUSH2 0x237C JUMP JUMPDEST SWAP2 POP PUSH2 0x23FE DUP3 DUP6 PUSH2 0x1C63 JUMP JUMPDEST SWAP2 POP PUSH2 0x2409 DUP3 PUSH2 0x23C6 JUMP JUMPDEST SWAP2 POP PUSH2 0x2415 DUP3 DUP5 PUSH2 0x1C63 JUMP JUMPDEST SWAP2 POP DUP2 SWAP1 POP SWAP4 SWAP3 POP POP POP JUMP JUMPDEST PUSH32 0x5061757361626C653A206E6F7420706175736564000000000000000000000000 PUSH0 DUP3 ADD MSTORE POP JUMP JUMPDEST PUSH0 PUSH2 0x2455 PUSH1 0x14 DUP4 PUSH2 0x1B71 JUMP JUMPDEST SWAP2 POP PUSH2 0x2460 DUP3 PUSH2 0x2421 JUMP JUMPDEST PUSH1 0x20 DUP3 ADD SWAP1 POP SWAP2 SWAP1 POP JUMP JUMPDEST PUSH0 PUSH1 0x20 DUP3 ADD SWAP1 POP DUP2 DUP2 SUB PUSH0 DUP4 ADD MSTORE PUSH2 0x2482 DUP2 PUSH2 0x2449 JUMP JUMPDEST SWAP1 POP SWAP2 SWAP1 POP JUMP JUMPDEST PUSH32 0x4E487B7100000000000000000000000000000000000000000000000000000000 PUSH0 MSTORE PUSH1 0x11 PUSH1 0x4 MSTORE PUSH1 0x24 PUSH0 REVERT JUMPDEST PUSH0 PUSH2 0x24C0 DUP3 PUSH2 0x1A75 JUMP JUMPDEST SWAP2 POP PUSH2 0x24CB DUP4 PUSH2 0x1A75 JUMP JUMPDEST SWAP3 POP DUP3 DUP3 MUL PUSH2 0x24D9 DUP2 PUSH2 0x1A75 JUMP JUMPDEST SWAP2 POP DUP3 DUP3 DIV DUP5 EQ DUP4 ISZERO OR PUSH2 0x24F0 JUMPI PUSH2 0x24EF PUSH2 0x2489 JUMP JUMPDEST JUMPDEST POP SWAP3 SWAP2 POP POP JUMP JUMPDEST PUSH0 PUSH2 0x2501 DUP3 PUSH2 0x1A75 JUMP JUMPDEST SWAP2 POP PUSH2 0x250C DUP4 PUSH2 0x1A75 JUMP JUMPDEST SWAP3 POP DUP3 DUP3 ADD SWAP1 POP DUP1 DUP3 GT ISZERO PUSH2 0x2524 JUMPI PUSH2 0x2523 PUSH2 0x2489 JUMP JUMPDEST JUMPDEST SWAP3 SWAP2 POP POP JUMP JUMPDEST PUSH32 0x4E487B7100000000000000000000000000000000000000000000000000000000 PUSH0 MSTORE PUSH1 0x32 PUSH1 0x4 MSTORE PUSH1 0x24 PUSH0 REVERT JUMPDEST PUSH0 PUSH2 0x2561 DUP3 PUSH2 0x1A75 JUMP JUMPDEST SWAP2 POP PUSH0 DUP3 SUB PUSH2 0x2573 JUMPI PUSH2 0x2572 PUSH2 0x2489 JUMP JUMPDEST JUMPDEST PUSH1 0x1 DUP3 SUB SWAP1 POP SWAP2 SWAP1 POP JUMP JUMPDEST PUSH32 0x537472696E67733A20686578206C656E67746820696E73756666696369656E74 PUSH0 DUP3 ADD MSTORE POP JUMP JUMPDEST PUSH0 PUSH2 0x25B2 PUSH1 0x20 DUP4 PUSH2 0x1B71 JUMP JUMPDEST SWAP2 POP PUSH2 0x25BD DUP3 PUSH2 0x257E JUMP JUMPDEST PUSH1 0x20 DUP3 ADD SWAP1 POP SWAP2 SWAP1 POP JUMP JUMPDEST PUSH0 PUSH1 0x20 DUP3 ADD SWAP1 POP DUP2 DUP2 SUB PUSH0 DUP4 ADD MSTORE PUSH2 0x25DF DUP2 PUSH2 0x25A6 JUMP JUMPDEST SWAP1 POP SWAP2 SWAP1 POP JUMP INVALID LOG2 PUSH5 0x6970667358 0x22 SLT KECCAK256 PUSH14 0x7E31E3273A2DE9C6E4ADAA273103 0xE0 BALANCE 0xD6 PUSH25 0x2CC7E583C8C985FB63780B5FA164736F6C634300081A003300 "
				},
				"gasEstimates": {
					"creation": {
						"codeDepositCost": "1951200",
						"executionCost": "infinite",
						"totalCost": "infinite"
					},
					"external": {
						"DEFAULT_ADMIN_ROLE()": "396",
						"ISSUER_ROLE()": "370",
						"certificates(string)": "infinite",
						"getRoleAdmin(bytes32)": "infinite",
						"grantRole(bytes32,address)": "infinite",
						"hasRole(bytes32,address)": "3166",
						"issueCertificate(string,address,string,string)": "infinite",
						"pause()": "infinite",
						"paused()": "2496",
						"renounceRole(bytes32,address)": "infinite",
						"revokeCertificate(string)": "infinite",
						"revokeRole(bytes32,address)": "infinite",
						"supportsInterface(bytes4)": "741",
						"unpause()": "infinite",
						"verifyCertificate(string)": "infinite"
					}
				},
				"methodIdentifiers": {
					"DEFAULT_ADMIN_ROLE()": "a217fddf",
					"ISSUER_ROLE()": "82aefa24",
					"certificates(string)": "8f2b91ea",
					"getRoleAdmin(bytes32)": "248a9ca3",
					"grantRole(bytes32,address)": "2f2ff15d",
					"hasRole(bytes32,address)": "91d14854",
					"issueCertificate(string,address,string,string)": "37851f2d",
					"pause()": "8456cb59",
					"paused()": "5c975abb",
					"renounceRole(bytes32,address)": "36568abe",
					"revokeCertificate(string)": "142e1542",
					"revokeRole(bytes32,address)": "d547741f",
					"supportsInterface(bytes4)": "01ffc9a7",
					"unpause()": "3f4ba83a",
					"verifyCertificate(string)": "8b23d875"
				}
			},
			"storageLayout": {
				"storage": [
					{
						"astId": 24,
						"contract": "contracts/CertificateVerification.sol:CertificateVerification",
						"label": "_roles",
						"offset": 0,
						"slot": "0",
						"type": "t_mapping(t_bytes32,t_struct(RoleData)19_storage)"
					},
					{
						"astId": 406,
						"contract": "contracts/CertificateVerification.sol:CertificateVerification",
						"label": "_paused",
						"offset": 0,
						"slot": "1",
						"type": "t_bool"
					},
					{
						"astId": 1787,
						"contract": "contracts/CertificateVerification.sol:CertificateVerification",
						"label": "certificates",
						"offset": 0,
						"slot": "2",
						"type": "t_mapping(t_string_memory_ptr,t_struct(Certificate)1782_storage)"
					}
				],
				"types": {
					"t_address": {
						"encoding": "inplace",
						"label": "address",
						"numberOfBytes": "20"
					},
					"t_bool": {
						"encoding": "inplace",
						"label": "bool",
						"numberOfBytes": "1"
					},
					"t_bytes32": {
						"encoding": "inplace",
						"label": "bytes32",
						"numberOfBytes": "32"
					},
					"t_mapping(t_address,t_bool)": {
						"encoding": "mapping",
						"key": "t_address",
						"label": "mapping(address => bool)",
						"numberOfBytes": "32",
						"value": "t_bool"
					},
					"t_mapping(t_bytes32,t_struct(RoleData)19_storage)": {
						"encoding": "mapping",
						"key": "t_bytes32",
						"label": "mapping(bytes32 => struct AccessControl.RoleData)",
						"numberOfBytes": "32",
						"value": "t_struct(RoleData)19_storage"
					},
					"t_mapping(t_string_memory_ptr,t_struct(Certificate)1782_storage)": {
						"encoding": "mapping",
						"key": "t_string_memory_ptr",
						"label": "mapping(string => struct CertificateVerification.Certificate)",
						"numberOfBytes": "32",
						"value": "t_struct(Certificate)1782_storage"
					},
					"t_string_memory_ptr": {
						"encoding": "bytes",
						"label": "string",
						"numberOfBytes": "32"
					},
					"t_string_storage": {
						"encoding": "bytes",
						"label": "string",
						"numberOfBytes": "32"
					},
					"t_struct(Certificate)1782_storage": {
						"encoding": "inplace",
						"label": "struct CertificateVerification.Certificate",
						"members": [
							{
								"astId": 1769,
								"contract": "contracts/CertificateVerification.sol:CertificateVerification",
								"label": "certificateId",
								"offset": 0,
								"slot": "0",
								"type": "t_string_storage"
							},
							{
								"astId": 1771,
								"contract": "contracts/CertificateVerification.sol:CertificateVerification",
								"label": "issuer",
								"offset": 0,
								"slot": "1",
								"type": "t_address"
							},
							{
								"astId": 1773,
								"contract": "contracts/CertificateVerification.sol:CertificateVerification",
								"label": "studentAddress",
								"offset": 0,
								"slot": "2",
								"type": "t_address"
							},
							{
								"astId": 1775,
								"contract": "contracts/CertificateVerification.sol:CertificateVerification",
								"label": "ipfsHash",
								"offset": 0,
								"slot": "3",
								"type": "t_string_storage"
							},
							{
								"astId": 1777,
								"contract": "contracts/CertificateVerification.sol:CertificateVerification",
								"label": "issueDate",
								"offset": 0,
								"slot": "4",
								"type": "t_uint256"
							},
							{
								"astId": 1779,
								"contract": "contracts/CertificateVerification.sol:CertificateVerification",
								"label": "isRevoked",
								"offset": 0,
								"slot": "5",
								"type": "t_bool"
							},
							{
								"astId": 1781,
								"contract": "contracts/CertificateVerification.sol:CertificateVerification",
								"label": "metadata",
								"offset": 0,
								"slot": "6",
								"type": "t_string_storage"
							}
						],
						"numberOfBytes": "224"
					},
					"t_struct(RoleData)19_storage": {
						"encoding": "inplace",
						"label": "struct AccessControl.RoleData",
						"members": [
							{
								"astId": 16,
								"contract": "contracts/CertificateVerification.sol:CertificateVerification",
								"label": "members",
								"offset": 0,
								"slot": "0",
								"type": "t_mapping(t_address,t_bool)"
							},
							{
								"astId": 18,
								"contract": "contracts/CertificateVerification.sol:CertificateVerification",
								"label": "adminRole",
								"offset": 0,
								"slot": "1",
								"type": "t_bytes32"
							}
						],
						"numberOfBytes": "64"
					},
					"t_uint256": {
						"encoding": "inplace",
						"label": "uint256",
						"numberOfBytes": "32"
					}
				}
			},
			"userdoc": {
				"kind": "user",
				"methods": {},
				"version": 1
			}
		}
	}
}